:10000000F8FF002011040000732300007323000098
:100010007323000073230000732300007323000088
:100020007323000073230000732300007323000078
:100030007323000073230000732300007323000068
:100040007323000073230000732300007323000058
:10040000FFFFFFFFFFFFFFFFFFFFFFFFFEFFFFFFFD
:1004100062B607F0E5FBFEE710B500200400E4B289
:10042000082C08DA0022012114F14000C0B201F0CA
:10043000FFFD641CF3E700220121492001F0F8FDD3
:10044000012201214A2001F0F3FD012201214B206C
:1004500001F0EEFD002201214C2001F0E9FD002217
:1004600001214D2001F0E4FD4FF4A071492001F07D
:1004700077FE4FF4A0714A2001F072FE4FF4A07194
:100480004B2001F06DFE4FF4A0714C2001F068FE8E
:100490000020DFF8241D08600120DFF81C1D086023
:1004A0004FF4FA7001F0CFFE0120DFF8101D086054
:1004B0000020DFF80C1D08600020DFF8081D086030
:1004C0001120DFF8041D08700020DFF8001D08600F
:1004D0000120DFF8F81C08600120DFF8E81C086044
:1004E000782001F0B0FE0120DFF8D01C0860002069
:1004F000DFF8CC1C08600020DFF8C81C0860B120C1
:10050000DFF8C41C08700020DFF8C01C0860012060
:10051000DFF8B81C08600120DFF8A81C0860012083
:10052000DFF8981C08600120DFF8941C08600020A8
:10053000DFF8901C08600520DFF88C1C0870002094
:10054000DFF8881C08600120DFF8801C08600120AB
:10055000DFF8701C08600120DFF8601C08600120D3
:10056000DFF85C1C08600020DFF8581C08603A20A7
:10057000DFF8541C08700020DFF8501C08600120D0
:10058000DFF8481C08600120DFF8381C08600120F3
:10059000DFF8281C08600120DFF8241C0860002018
:1005A000DFF8201C08603A20DFF81C1C08700020CF
:1005B000DFF8181C08600120DFF8101C086001201B
:1005C000DFF8001C08600120DFF8F01B0860002045
:1005D000DFF8EC1B08600020DFF8E81B0860B220A1
:1005E000DFF8E41B08700020DFF8E01B0860012042
:1005F000DFF8D81B08600120DFF8C81B0860012065
:10060000DFF8B81B08600120DFF8B41B0860002089
:10061000DFF8B01B08600520DFF8AC1B0870002075
:10062000DFF8A81B08600120DFF8A01B086001208C
:10063000DFF8901B08600120DFF8801B08600120B4
:10064000DFF87C1B08600020DFF8781B08603A2088
:10065000DFF8741B08700020DFF8701B08600120B1
:10066000DFF8681B08600120DFF8581B08600120D4
:10067000DFF8481B08600120DFF8441B08600020F9
:10068000DFF8401B08603A20DFF83C1B08700020B0
:10069000DFF8381B08600120DFF8301B08600120FC
:1006A000DFF8201B08600120DFF8101B0860002025
:1006B000DFF80C1B08600020DFF8081B0860B3207F
:1006C000DFF8041B08700020DFF8001B0860012021
:1006D000DFF8F81A08600120DFF8E81A0860012046
:1006E000DFF8D81A08600120DFF8D41A086000206B
:1006F000DFF8D01A08600520DFF8CC1A0870002057
:10070000DFF8C81A08600120DFF8C01A086001206D
:10071000DFF8B01A08600120DFF8A01A0860012095
:10072000DFF89C1A08600020DFF8981A08603A2069
:10073000DFF8941A08700020DFF8901A0860012092
:10074000DFF8881A08600120DFF8781A08600120B5
:10075000DFF8681A08600120DFF8641A08600020DA
:10076000DFF8601A08603A20DFF85C1A0870002091
:10077000DFF8581A08600120DFF8501A08600120DD
:10078000DFF8401A08600120DFF8301A0860012005
:10079000DFF82C1A08600020DFF8281A086005200E
:1007A000DFF8241A08700020DFF8201A0860012002
:1007B000DFF8181A08600120DFF8081A0860012025
:1007C000DFF8F81908600120DFF8F419086000204C
:1007D000DFF8F01908603A20DFF8EC190870002003
:1007E000DFF8E81908600120DFF8E019086001204F
:1007F000DFF8D01908600120DFF8C0190860012077
:10080000DFF8BC1908600020DFF8B81908603A204A
:10081000DFF8B41908700020DFF8B0190860012073
:10082000DFF8A81908600120DFF898190860012096
:10083000DFF8881908600020DFF8841908600020BC
:10084000DFF880190860B420DFF87C1908700020F8
:10085000DFF8781908600120DFF8701908600120BE
:10086000DFF8601908600120DFF8501908600120E6
:10087000DFF84C1908600020DFF8481908600720ED
:10088000DFF8441908700020DFF8401908600120E3
:10089000DFF8381908600120DFF828190860012006
:1008A000DFF8181908600020DFF81419086000202C
:1008B000DFF810190860C020DFF80C19087000205C
:1008C000DFF8081908600120DFF80019086001202E
:1008D000DFF8F01808600120DFF8E0180860012058
:1008E000DFF8DC1808600020DFF8D818086028203E
:1008F000DFF8D41808700020DFF8D0180860012055
:10090000DFF8C81808600120DFF8B8180860012077
:10091000DFF8A81808600120DFF8A418086000209C
:10092000DFF8A01808600820DFF89C180870002085
:10093000DFF8981808600120DFF89018086001209F
:10094000DFF8801808600120DFF8701808600120C7
:10095000DFF86C1808600020DFF868180860842051
:10096000DFF8641808700020DFF8601808600120C4
:10097000DFF8581808600120DFF8481808600120E7
:10098000DFF8381808600020DFF83418086000200D
:10099000DFF830180860C120DFF82C18087000203C
:1009A000DFF8281808600120DFF82018086001200F
:1009B000DFF8101808600120DFF800180860012037
:1009C000DFF8FC1708600020DFF8F8170860C02087
:1009D000DFF8F41708700020DFF8F0170860012036
:1009E000DFF8E81708600120DFF8D8170860012059
:1009F000DFF8C81708600020DFF8C417086000207F
:100A0000DFF8C0170860C220DFF8BC1708700020AC
:100A1000DFF8B81708600120DFF8B0170860012080
:100A2000DFF8A01708600120DFF8901708600120A8
:100A3000DFF88C1708600020DFF8881708600C20AA
:100A4000DFF8841708700020DFF8801708600120A5
:100A5000DFF8781708600120DFF8681708600120C8
:100A6000DFF8581708600120DFF8541708600020ED
:100A7000DFF8501708600020DFF84C1708700020DE
:100A8000DFF8481708600120DFF8401708600120F0
:100A9000DFF8301708600120DFF820170860002019
:100AA000DFF81C1708600020DFF818170860C32063
:100AB000DFF8141708700020DFF810170860012015
:100AC000DFF8081708600120DFF8F8160860012039
:100AD000DFF8E81608600120DFF8E416086000205F
:100AE000DFF8E01608608C20DFF8DC1608700020C4
:100AF000DFF8D81608600120DFF8D0160860012062
:100B0000DFF8C01608600120DFF8B0160860012089
:100B1000DFF8AC1608600020DFF8A81608602A206D
:100B2000DFF8A41608700020DFF8A0160860012086
:100B3000DFF8981608600120DFF8881608600120A9
:100B4000DFF8781608600020DFF8741608600020CF
:100B5000DFF870160860C420DFF86C1608700020FB
:100B6000DFF8681608600120DFF8601608600120D1
:100B7000DFF8501608600120DFF8401608600120F9
:100B8000DFF83C1608600020DFF8381608608A207D
:100B9000DFF8341608700020DFF8301608600120F6
:100BA000DFF8281608600120DFF818160860012019
:100BB000DFF8081608600120DFF80416086000203E
:100BC000DFF800160860EE20DFF8FC150870002042
:100BD000DFF8F81508600120DFF8F0150860012043
:100BE000DFF8E01508600120DFF8D015086000206C
:100BF000DFF8CC1508600020DFF8C8150860C520B4
:100C0000DFF8C41508700020DFF8C0150860012067
:100C1000DFF8B81508600120DFF8A815086001208A
:100C2000DFF8981508600120DFF8941508600020AF
:100C3000DFF8901508600C20DFF88C150870002094
:100C4000DFF8881508600120DFF8801508600120B2
:100C5000DFF8701508600120DFF8601508600020DB
:100C6000DFF85C1508600020DFF858150860E02008
:100C7000DFF8541508700020DFF8501508600120D7
:100C8000DFF8481508600120DFF8381508600120FA
:100C9000DFF8281508600120DFF82415086000201F
:100CA000DFF8201508600520DFF81C15087000200B
:100CB000DFF8181508600120DFF810150860012022
:100CC000DFF8001508600120DFF8F014086001204B
:100CD000DFF8EC1408600020DFF8E81408601A2040
:100CE000DFF8E41408700020DFF8E0140860012049
:100CF000DFF8D81408600120DFF8C814086001206C
:100D0000DFF8B81408600120DFF8B4140860002090
:100D1000DFF8B01408600C20DFF8AC140870002075
:100D2000DFF8A81408600120DFF8A0140860012093
:100D3000DFF8901408600120DFF8801408600120BB
:100D4000DFF87C1408600020DFF8781408600E20BB
:100D5000DFF8741408700020DFF8701408600120B8
:100D6000DFF8681408600120DFF8581408600120DB
:100D7000DFF8481408600120DFF844140860002000
:100D8000DFF8401408603A20DFF83C1408700020B7
:100D9000DFF8381408600120DFF830140860012003
:100DA000DFF8201408600120DFF81014086001202B
:100DB000DFF80C1408600020DFF808140860342005
:100DC000DFF8041408700020DFF800140860012028
:100DD000DFF8F81308600120DFF8E813086001204D
:100DE000DFF8D81308600120DFF8D4130860002072
:100DF000DFF8D01308602D20DFF8CC130870002036
:100E0000DFF8C81308600120DFF8C0130860012074
:100E1000DFF8B01308600120DFF8A013086001209C
:100E2000DFF89C1308600020DFF8981308602F207B
:100E3000DFF8941308700020DFF890130860012099
:100E4000DFF8881308600120DFF8781308600120BC
:100E5000DFF8681308600120DFF8641308600020E1
:100E6000DFF8601308602D20DFF85C1308700020A5
:100E7000DFF8581308600120DFF8501308600120E4
:100E8000DFF8401308600120DFF83013086001200C
:100E9000DFF82C1308600020DFF8281308602A20F0
:100EA000DFF8241308700020DFF820130860012009
:100EB000DFF8181308600120DFF80813086001202C
:100EC000DFF8F81208600120DFF8F4120860002053
:100ED000DFF8F01208602F20BB4908700020BB49E2
:100EE00008600120B94908600120B6490860012066
:100EF000B24908600120B24908600020B149086089
:100F00003C20B14908700020B04908600120AF4979
:100F100008600120AB4908600120A8490860012051
:100F2000A74908600020A74908600020A64908706A
:100F30000020A64908600120A44908600120A149B9
:100F4000086001209D49086001209D49086000203B
:100F50009C49086001209C49087000209B4908605A
:100F600001209A49086001209649086001209349B0
:100F70000860012092490860002092490860022020
:100F80009149087000209149086001208F4908604C
:100F900001208C49086001208849086001208849A7
:100FA00008600020874908601020874908700020E9
:100FB0008649086001208549086001208149086050
:100FC00001207E49086000207D49086000207D499D
:100FD0000860E1207C49087000207C4908600120FD
:100FE0007A49086001207749086001207349086048
:100FF000012073490860002072490860042072498A
:1010000008700020714908600120704908600120C3
:101010006C4908600120694908600120684908603E
:101020000020684908601B20674908700020674954
:1010300008600120654908600120624908600120BC
:101040005E49086001205E49086000205D49086033
:101050000D205D49087000205C49086001205B4953
:1010600008600120574908600120544908600120A8
:10107000534908600020534908600E205249087007
:1010800000205249086001205049086001204D4964
:101090000860012049490860012049490860002092
:1010A000484908602D2048490870002047490860D9
:1010B00001204649086001204249086001203F495B
:1010C000086001203E49086000203E490860292050
:1010D0003D49087000203D49086001203B490860F7
:1010E0000120384908600120344908600120344952
:1010F000086000203349086024203349087000202C
:101100003249086001203149086001202D490860FA
:1011100001202A4908600120294908600020294946
:10112000086029202849087000202849086001200B
:101130002649086001202349086001201F490860F2
:1011400001201F49086000201E49086028201E4910
:10115000087000201D49086001201C49086001201A
:1011600018490860012015490860012014490860E9
:1011700000201449086026201349087000201349F4
:10118000086001201149086001200E490860012013
:101190000A49086001200A490860002009490860DE
:1011A00031200949087000200849086001200749DA
:1011B0000860012003490BE03410FE432810FE4371
:1011C0003010FE432C10FE4380F00F402410FE43ED
:1011D00008600120DFF80C1C08600120DFF8081C03
:1011E00008600020DFF8041C08603B20DFF8001CCA
:1011F00008700020DFF8FC1B08600120DFF8F41BFA
:1012000008600120DFF8E41B08600120DFF8D41B30
:1012100008600120DFF8D01B08600020DFF8CC1B3D
:1012200008600020DFF8C81B08700020DFF8C41B2E
:1012300008600120DFF8BC1B08600120DFF8AC1B50
:1012400008600120DFF89C1B08600120DFF8981B74
:1012500008600020DFF8941B08600020DFF8901B76
:1012600008700020DFF88C1B08600120DFF8841B69
:1012700008600120DFF8741B08600120DFF8641BA0
:1012800008600120DFF8601B08600020DFF85C1BAD
:1012900008600320DFF8581B08700020DFF8541B9B
:1012A00008600120DFF84C1B08600120DFF83C1BC0
:1012B00008600120DFF82C1B08600120DFF8281BE4
:1012C00008600020DFF8241B08601220DFF8201BD4
:1012D00008700020DFF81C1B08600120DFF8141BD9
:1012E00008600120DFF8041B08600120DFF8F41A11
:1012F00008600020DFF8F01A08600020DFF8EC1A20
:1013000008603A20DFF8E81A08700020DFF8E41AD5
:1013100008600120DFF8DC1A08600120DFF8CC1A31
:1013200008600120DFF8BC1A08600120DFF8B81A55
:1013300008600020DFF8B41A08600520DFF8B01A52
:1013400008700020DFF8AC1A08600120DFF8A41A4A
:1013500008600120DFF8941A08600120DFF8841A81
:1013600008600020DFF8801A08600020DFF87C1A8F
:1013700008602920DFF8781A08700020DFF8741A56
:1013800008600120DFF86C1A08600120DFF85C1AA1
:1013900008600120DFF84C1A08600020DFF8481AC6
:1013A00008600020DFF8441A08602C20DFF8401A9B
:1013B00008700020DFF83C1A08600120DFF8341ABA
:1013C00008600120DFF8241A0860DFF8400C00787C
:1013D00000F001F810BD10B50400E4B2042C04DBE9
:1013E000C821DFF82C0C00F05AFFDFF8200C047045
:1013F000E4B2002C09D0022C00F0B982C0F05E816A
:10140000032C00F0EA8300F0EBBC0120DFF8D419D4
:1014100008600020DFF8D01908600020DFF8CC1940
:1014200008603620DFF8C81908700020DFF8C419FA
:1014300008600120DFF8BC1908600120DFF8AC1952
:1014400008600120DFF89C1908600120DFF8981976
:1014500008600020DFF894190860C820DFF89019B0
:1014600008700020DFF88C1908600120DFF884196B
:1014700008600120DFF8741908600120DFF86419A2
:1014800008600020DFF8601908600020DFF85C19B0
:1014900008602A20DFF8581908700020DFF8541976
:1014A00008600120DFF84C1908600120DFF83C19C2
:1014B00008600120DFF82C1908600120DFF82819E6
:1014C00008600020DFF8241908600020DFF82019E8
:1014D00008700020DFF81C1908600120DFF81419DB
:1014E00008600120DFF8041908600120DFF8F41813
:1014F00008600120DFF8F01808600020DFF8EC1821
:1015000008600020DFF8E81808700020DFF8E41811
:1015100008600120DFF8DC1808600120DFF8CC1833
:1015200008600120DFF8BC1808600120DFF8B81857
:1015300008600020DFF8B41808600020DFF8B01859
:1015400008700020DFF8AC1808600120DFF8A4184C
:1015500008600120DFF8941808600120DFF8841883
:1015600008600120DFF8801808600020DFF87C1890
:1015700008608020DFF8781808700020DFF8741801
:1015800008600120DFF86C1808600120DFF85C18A3
:1015900008600120DFF84C1808600020DFF84818C8
:1015A00008600020DFF8441808602B20DFF840189E
:1015B00008700020DFF83C1808600120DFF83418BC
:1015C00008600120DFF8241808600120DFF81418F3
:1015D00008600120DFF8101808600020DFF80C1800
:1015E00008600020DFF8081808700020DFF80418F1
:1015F00008600120DFF8FC1708600120DFF8EC1715
:1016000008600120DFF8DC1708600120DFF8D81738
:1016100008600020DFF8D41708603220DFF8D01708
:1016200008700020DFF8CC1708600120DFF8C4172D
:1016300008600120DFF8B41708600120DFF8A41764
:1016400008600120DFF8A01708600020DFF89C1771
:1016500008600020DFF8981708700020DFF8941762
:1016600008600120DFF88C1708600120DFF87C1784
:1016700008600120DFF86C1708600120DFF86817A8
:1016800008600020DFF864170860B220DFF86017F8
:1016900008700020DFF85C1708600120DFF854179D
:1016A00008600120DFF8441708608020DFF8641923
:1016B00008808020DFF86019088091E30120DFF8BE
:1016C000241708600020DFF8201708600020DFF8EA
:1016D0001C1708603620DFF8181708700020DFF8A4
:1016E000141708600120DFF80C1708600120DFF8EC
:1016F000FC1608600120DFF8EC1608600120DFF816
:10170000E81608600020DFF8E4160860A820DFF87B
:10171000E01608700020DFF8DC1608600120DFF812
:10172000D41608600120DFF8C41608600120DFF835
:10173000B41608600020DFF8B01608600020DFF85B
:10174000AC1608602A20DFF8A81608700020DFF821
:10175000A41608600120DFF89C1608600120DFF85D
:101760008C1608600120DFF87C1608600120DFF885
:10177000781608600020DFF8741608600020DFF893
:10178000701608700020DFF86C1608600120DFF882
:10179000641608600120DFF8541608600120DFF8A5
:1017A000441608600120DFF8401608600020DFF8CA
:1017B0003C1608600320DFF8381608700020DFF8B8
:1017C000341608600120DFF82C1608600120DFF8CD
:1017D0001C1608600120DFF80C1608600120DFF8F5
:1017E000081608600020DFF8041608600020DFF803
:1017F000001608700020DFF8FC1508600120DFF8F3
:10180000F41508600120DFF8E41508600120DFF816
:10181000D41508600120DFF8D01508600020DFF83B
:10182000CC1508608220DFF8C81508700020DFF8AA
:10183000C41508600120DFF8BC1508600120DFF83E
:10184000AC1508600120DFF89C1508600020DFF867
:10185000981508600020DFF8941508602B20DFF849
:10186000901508700020DFF88C1508600120DFF863
:10187000841508600120DFF8741508600120DFF886
:10188000641508600120DFF8601508600020DFF8AB
:101890005C1508600020DFF8581508700020DFF89C
:1018A000541508600120DFF84C1508600120DFF8AE
:1018B0003C1508600120DFF82C1508600120DFF8D6
:1018C000281508600020DFF8241508600220DFF8E2
:1018D000201508700020DFF81C1508600120DFF8D3
:1018E000141508600120DFF8041508600120DFF8F6
:1018F000F41408600120DFF8F01408600020DFF81D
:10190000EC1408600020DFF8E81408700020DFF80D
:10191000E41408600120DFF8DC1408600120DFF81F
:10192000CC1408600120DFF8BC1408600120DFF847
:10193000B81408600020DFF8B41408608120DFF8D4
:10194000B01408700020DFF8AC1408600120DFF844
:10195000A41408600120DFF8941408608020DFF8E8
:10196000B41608808020DFF8B016088038E2012025
:10197000DFF8701408600020DFF86C1408600020A5
:10198000DFF8681408603620DFF86414087000205F
:10199000DFF8601408600120DFF8581408600120A7
:1019A000DFF8481408600120DFF8381408600120CF
:1019B000DFF8341408600020DFF8301408600820D5
:1019C000DFF82C1408700020DFF8281408600120CC
:1019D000DFF8201408600120DFF8101408600120EF
:1019E000DFF8001408600020DFF8FC130860002016
:1019F000DFF8F81308602A20DFF8F41308700020DD
:101A0000DFF8F01308600120DFF8E8130860012018
:101A1000DFF8D81308600120DFF8C8130860012040
:101A2000DFF8C41308600020DFF8C013086000204E
:101A3000DFF8BC1308700020DFF8B813086001203D
:101A4000DFF8B01308600120DFF8A0130860012060
:101A5000DFF8901308600120DFF88C130860002085
:101A6000DFF8881308600220DFF884130870002074
:101A7000DFF8801308600120DFF878130860012088
:101A8000DFF8681308600120DFF8581308600120B0
:101A9000DFF8541308600020DFF8501308600020BE
:101AA000DFF84C1308700020DFF8481308600120AD
:101AB000DFF8401308600120DFF8301308600120D0
:101AC000DFF8201308600120DFF81C1308600020F5
:101AD000DFF8181308608120DFF814130870002065
:101AE000DFF8101308600120DFF8081308600120F8
:101AF000DFF8F81208600120BA4908600020BA49EE
:101B000008600020B94908602B20B94908700020FE
:101B1000B84908600120B74908600120B34908604E
:101B20000120B04908600120AF4908600020AF499A
:101B300008600020AE4908700020AE49086001200E
:101B4000AC4908600120A94908600120A549086046
:101B50000120A54908600020A44908600320A44989
:101B600008700020A34908600120A24908600120F4
:101B70009E49086001209B49086001209A4908603D
:101B800000209A490860002099490870002099496E
:101B900008600120974908600120944908600120ED
:101BA0009049086001209049086000208F49086032
:101BB00082208F49087000208E49086001208D49DD
:101BC00008600120894908608020DFF848140880F7
:101BD0008020DFF84414088002E101208149086078
:101BE0000020814908600020804908603620804933
:101BF000087000207F49086001207E4908600120AC
:101C00007A49086001207749086001207649086018
:101C100000207649086068207549087000207549E1
:101C200008600120734908600120704908600120A4
:101C30006C49086000206C49086000206B4908600E
:101C40002A206B49087000206A4908600120694910
:101C50000860012065490860012062490860012090
:101C600061490860002061490860002060490870EF
:101C700000206049086001205E49086001205B493E
:101C8000086001205749086001205749086000207A
:101C900056490860032056490870002055490860DD
:101CA00001205449086001205049086001204D4935
:101CB000086001204C49086000204C490860002061
:101CC0004B49087000204B490860012049490860D1
:101CD000012046490860012042490860012042492C
:101CE00008600020414908608220414908700020B6
:101CF0004049086001203F49086001203B490860D5
:101D00000120384908600020374908600020374921
:101D100008602B20364908700020364908600120F1
:101D20003449086001203149086001202D490860CC
:101D300001202D49086000202C49086000202C4912
:101D4000087000202B49086001202A490860012002
:101D500026490860012023490860012022490860C3
:101D600000202249086000202149087000202149F4
:101D7000086001201F49086001201C4908600120FB
:101D800018490860012018490860002017490860B8
:101D900000201749087000201649086001201549E5
:101DA000086001201149086001200E4908600120E7
:101DB0000D49086000200D49086080200C4908701A
:101DC00000200C49086001200A49086001200749E9
:101DD000086080208F49088080208F490880FFE7B5
:101DE00010BD00002810FE433010FE432C10FE43AF
:101DF00080F00F402410FE4303B484480078C007ED
:101E000005D5BDF800002030ADF8000004E0BDF8B5
:101E100002002030ADF80200012080490860002057
:101E20007F49086000207F4908602A207E490870A9
:101E300000207E49086001207C4908600120794922
:101E4000086001207549086001207549086000207C
:101E500074490860BDF8000080B2000A7249087039
:101E600000207249086001207049086001206D4916
:101E70000860012069490860012069490860002064
:101E800068490860BDF8000067490870002067498C
:101E9000086001206549086001206249086001204E
:101EA0005E49086001205E49086000205D490860C5
:101EB000BDF80000BDF8041011FA80F0401E0012B9
:101EC00059490870002059490860012057490860A5
:101ED0000120544908600120504908600120504900
:101EE000086000204F490860BDF80000BDF80410EC
:101EF0000818401E4C49087000204C490860012019
:101F00004A490860012047490860012043490860A8
:101F10000020434908600020424908602B204249C4
:101F200008700020414908600120404908600120F4
:101F30003C4908600120394908600120384908609F
:101F4000002038490860BDF8020080B2000A364916
:101F500008700020354908600120344908600120DC
:101F60003049086001202D49086001202C49086093
:101F700000202C490860BDF802002B4908700020A1
:101F80002A49086001202949086001202549086084
:101F900001202249086001202149086000202149D0
:101FA0000860BDF80200BDF8061011FA80F0401E6E
:101FB00000121D49087000201C49086001201B49BF
:101FC00008600120174908600120144908600120B9
:101FD00013490860002013490860BDF80200BDF8ED
:101FE00006100818401E1049087000200F490860AC
:101FF00001200E49086001200A49086002B07047BC
:102000000448008870470448008870475012FF1F3A
:10201000607D0000840EFF1F860EFF1F2810FE4308
:102020003010FE432C10FE4380F00F402410FE437E
:1020300070B504000D0016004FF480712000C0B28E
:1020400000F08EF86DB2002D11D14348E4B2611159
:1020500050F821004049E4B2621151F82210496958
:10206000012214F01F039A409143416136E03A483F
:10207000E4B2611150F821003749E4B2621151F81D
:1020800022104969012214F01F039A401143416153
:10209000F6B2002E11D13048E4B2611150F821009F
:1020A0000068012114F01F02914088432A49E4B2DC
:1020B000621151F82210086010E02748E4B2611163
:1020C00050F821000068012114F01F0291400843DC
:1020D0002149E4B2621151F82210086070BD10B5B8
:1020E00004001D48E4B2611150F82100406914F069
:1020F0001F010200CA40D00703D47B21174800F01B
:10210000CEF81548E4B2611150F82100012114F015
:102110001F029140C16010BD10B504000E48E4B22A
:10212000611150F82100406914F01F010200CA40FB
:10213000D00703D58C21094800F0B1F80648E4B275
:10214000611150F82100006914F01F010200CA401B
:1021500012F0010010BD0000E00DFF1F207F000005
:1021600010B4294A12684FF40073C0B24409A34066
:102170001A43254B1A60254AC0B2431152F8232056
:10218000012310F01F04A340C2F8A0301F4AC0B2C0
:10219000431152F82320C0B210F01F0342F823105D
:1021A00010BC704710B4184A12684FF40073C0B2E4
:1021B0004409A3401A43144B1A60144AC0B2431195
:1021C00052F82320012310F01F04A340C2F8A030CE
:1021D00031F4E0610D4AC0B2431152F82320C0B27D
:1021E00010F01F0352F8232012F4E0621143074A53
:1021F000C0B2431152F82320C0B210F01F0342F8BE
:10220000231010BC7047000038800440500EFF1FA0
:1022100010B50400002C15D0B4F1807F03D3292120
:102220000F4800F03CF800200E4908600E4804609A
:1022300000200E49086005200A4908600948006826
:10224000C003FBD510BD10B504002000441E0028BB
:1022500004D007480068FFF7DBFFF6E710BD000079
:10226000FC7D000010E000E014E000E018E000E079
:10227000E811FF1FDFF800F0690FFF1FDFF800F023
:102280008D0FFF1FBFF34F8F4648006810F4E060CA
:102290004549084343490860BFF34F8FFEE738B50F
:1022A00004000D00002000F08DF82A0021003F48B6
:1022B00000F0C0F8002000F0A2F84FF47A70FFF7A9
:1022C000C2FFF2E738B504000D00210049B2042036
:1022D00000F0CCF9200032BD10B50024042000F03D
:1022E000DFF9042000F012FA002841D1002000F0AC
:1022F00069F8042000F00AFA012801D10120040045
:10230000002000F07CF82A4800F094F84FF4FA70AE
:10231000FFF799FFE4B2012CEBD1042000F0F6F9AD
:102320000028E6D1042000F0F1F9002806D10020B1
:1023300000F065F86420FFF786FFF3E7042000F063
:10234000E5F9012806D1002000F059F83220FFF706
:102350007AFFF3E7174800F06DF8FFF78BFF642072
:10236000FFF771FF0020FFF789FFFFF78BFFC0E742
:1023700010BD10B510480468012000F023F80120BA
:1023800000F03DF80D48E4B20F2101FB0402E4B275
:1023900021000B4800F04EF84FF47A70FFF753FF1E
:1023A000EDE700000CED00E00400FA05A08000005D
:1023B000108200004081000004ED00E0C806FF1F0D
:1023C0003C80000010B5040064B2042C07DA01223E
:1023D0000121174864B2205CFFF72AFE0EE00420BA
:1023E00004002000441E40B2002807D00122012131
:1023F0000F4864B2205CFFF71BFEF2E710BD10B57A
:10240000040064B2042C05DA094864B2205CFFF7CA
:1024100066FE0CE0042004002000441E40B20028A8
:1024200005D0034864B2205CFFF759FEF4E710BD05
:10243000880EFF1F0EB400B582B003A900910246BA
:1024400000AB0121034878440A3000F077F906BC5C
:102450005DF810FB995D00002DE9F84304000D00C4
:1024600064B2002C08D0022C2CD018D3042C4FD0EE
:102470003BD3052C5FD071E0DFF80C02006850F40C
:102480008060DFF8041208604FF440716620FFF7A7
:1024900067FE4FF440716720FFF762FE5EE0DFF8F1
:1024A000E801006850F40060DFF8DC1108604FF4C8
:1024B00040714320FFF754FE4FF440714420FFF772
:1024C0004FFE4BE0DFF8C001006850F48050DFF8A9
:1024D000B81108604FF440716320FFF741FE4FF4DC
:1024E00040716220FFF73CFE38E0DFF89C01006895
:1024F00050F40050DFF8901108604FF44071502004
:10250000FFF72EFE4FF440715120FFF729FE25E022
:10251000DFF87801006850F48060DFF8701108601F
:102520004FF440714E20FFF71BFE4FF440714F20D7
:10253000FFF716FE12E0DFF85401006850F4006067
:10254000DFF8481108604FF440718920FFF708FE5A
:102550004FF440718820FFF703FEFFE7DFF83001FA
:1025600064B250F82400C07810F0F300DFF82011B6
:1025700064B251F82410C870DFF8140164B250F846
:1025800024008078DFF8081164B251F824108870B4
:1025900064B2002C02D064B2012C07D1DFF8F40041
:1025A00000684FF47A714843814606E0DFF8E8009E
:1025B00000684FF47A71484381462801B9FBF0F076
:1025C0000600B6B2B6F5005F02DB41F6FF7006000A
:1025D000B9FBF5F0B6B2B0EB06100700BFB2202F82
:1025E00003DBDC212D48FFF75AFE294864B250F87E
:1025F0002400007810F0E0008046C6F3042050EA82
:102600000800234964B251F824100870204864B2CD
:1026100050F8240046701E4864B250F82400807AB6
:1026200010F0E000804617F01F0050EA080018493B
:1026300064B251F824108872154864B250F824002E
:10264000007C50F08800124964B251F824100874DC
:102650000F4864B250F82400C07850F00C000C49C8
:1026600064B251F82410C870BDE8F183084A40B242
:1026700052F8202012791206F8D5054A40B252F8D5
:102680002020D1717047000034800440288004402D
:10269000640EFF1FE811FF1FF011FF1FB07F000045
:1026A00010B5040064B2082C0DDA00220021224883
:1026B00064B2205CFFF7BCFC03211F4864B2205CBD
:1026C000FFF770FD14E0082004002000441E40B213
:1026D00000280DD000220021174864B2205CFFF7CB
:1026E000A7FC0321144864B2205CFFF75BFDECE714
:1026F00010BD10B50400104864B2205CFFF70CFD5B
:10270000002801D1002000E0012010BD10B5040018
:10271000200040B2FFF7EDFF00280AD10A20FFF7A2
:1027200092FD200040B2FFF7E4FF002801D1002015
:1027300000E0012010BD00007C0EFF1F2DE9F04FCE
:10274000A1B08246002017461D4602910B900DF164
:10275000440B6FF000490AE017F8011B0298D047BC
:102760000290002800F0A2820B98401C0B90387851
:1027700008B90B989CE22528EED100200590069020
:102780000790089009900A9001E040F0010017F8C6
:10279000011F2029F9D023290DD02B2904D02D2960
:1027A00006D030290AD00CE040F0020080B2EEE7FB
:1027B00040F00400FAE740F00800F7E740F01000AE
:1027C000F4E72A290ED12968296051F8042B2960E1
:1027D000002A0D9204D5514240F004000D9180B2C0
:1027E0007F1C11E000210D9109E00D99494505D0AC
:1027F00001EB810302EB430130390D917F1C3A78E4
:10280000A2F130010A29F0D339782E2903D04FF0F4
:10281000FF310C911DE017F8011F2A2907D1296803
:1028200029607F1C51F8042B29600C9211E00021D3
:102830000C9109E00C99494505D001EB810302EBAD
:10284000430130390C917F1C3A78A2F130010A29FA
:10285000F0D3ADF838000FF6B820397800F076FDE7
:1028600008B117F8010B8DF83A009DF83A00682876
:1028700002BF39786829622005D06C2804BF3878F7
:102880006C2803D171208DF83A007F1C11A80490A8
:1028900017F8014BB4F1250024D02038022840F26B
:1028A000C580133800F0EB800B3800F04F81401EDC
:1028B00000F02481401E022840F2B880001F00F082
:1028C0001D81401F00F08380401E00F0D880401E14
:1028D00029D0C01E0CD0801E00F0D180C01E00F098
:1028E000CE803DE10120059025208DF8440043E194
:1028F0002868286050F8044B28600394DDF8308085
:10290000B8F1000F04D5204600F02CFD804607E00A
:1029100042460021204600F041FD08B1A0EB04082A
:10292000CDF8188028E1296829604FF03C0851F85B
:10293000040B29600021CDE9000111A80390DDE915
:102940000001049C11B908B90C9AC2B10206120F19
:10295000A0EB02123032D2B23A2AA8BF27320009C5
:10296000A8F1010340EA017009091A5508BF0028BF
:10297000984604D0039A08EB04039A42E6D308EB86
:1029800004000390C8F13C010C980691814209DAD9
:10299000401A08904FF6EF71BDF838000840ADF8C6
:1029A0003800E9E0002840F1E7809DF8380000F0A9
:1029B0001400102840F0E0800D98059A801A089ABB
:1029C000801A401A0128C0F2D7800890D4E09DF800
:1029D0003A0062281AD0682806D06A280CD06C28E1
:1029E0001CD0712808D019E02868286050F8041B12
:1029F00028600B980880BFE02868286050F8042BF6
:102A000028600B98C117C2E90001B5E0286828606A
:102A100050F8041B28600B980870ADE02868286007
:102A200050F8041B28600B980860A5E02868C01DBA
:102A300020F007022A60D2E9000108322A60CDE9BD
:102A40000001002903D5012005902D200CE0BDF8E0
:102A50003800810703D5012005902B2004E0C00732
:102A600004D50120059020208DF84400059911A877
:102A700008180390214600A800F0D8F97CE09DF8E2
:102A80003A206C2A0DD0712A18BF6A2A09D1286809
:102A9000C01D20F007032B60D3E9000108332B6031
:102AA00005E02968296051F8040B29600021CDE96F
:102AB0000001682A08BF80B207D0622A08BFC0B2EE
:102AC00003D0742A18BF7A2A02D10021CDE900016F
:102AD0009DF83800000730D5DDE90001002908BF66
:102AE00000282AD044F02000782826D130208DF804
:102AF00044008BF80140022005901EE09DF83A004A
:102B0000294600F0D8F8CDE90001002904DA05983B
:102B1000411C05912D210EE0BDF83800810704D538
:102B20000598411C05912B2105E0C00705D50598A6
:102B3000411C0591202100F80B10059911A80818D7
:102B40000390214600A800F0EDF815E00120059063
:102B50002868286050F8041B28608DF844100BE0AA
:102B6000012005902520002C8DF8440004D0059804
:102B7000411C059100F80B400D980599401A0899E1
:102B8000401A0699401A0999401A0799401A0A9959
:102B9000A0EB01089DF8380040070FD420208DF8E5
:102BA0004000002408E0012310AA00A9504600F0CC
:102BB00098FB00287AD1641C4445F4DB059C11AED7
:102BC0000AE016F8011B0298D047029000286DD049
:102BD0000B98401C0B90641E002CF2D130208DF815
:102BE00040000026089C08E0012310AA00A95046D6
:102BF00000F077FB002859D1761CA642F4DB069C36
:102C0000039E0AE016F8011B0298D04702900028A4
:102C10004CD00B98401C0B90641E002CF2D130203D
:102C20008DF840000026099C07E0012310AA00A9A6
:102C3000504600F056FBC8BB761CA642F5DB039855
:102C40000699079C0E1809E016F8011B0298D04758
:102C5000029058B30B98401C0B90641E002CF3D1CB
:102C600030208DF8400000260A9C07E0012310AABE
:102C700000A9504600F035FBC0B9761CA642F5DB32
:102C80009DF8380040077FF572AD20208DF8400098
:102C9000002400E0641C4445BFF669AD012310AA7E
:102CA00000A9504600F01DFB0028F3D04FF0FF3084
:102CB00021B0BDE8F08F622826D068281DD06A2890
:102CC00008D06C2827D0712804D0742823D07A2803
:102CD0000CD020E00868C01D20F007000860D0E993
:102CE0000023083008601946104670470A680A60D9
:102CF00052F8040B0A60002170470A680A6052F813
:102D0000040B0A6000B20BE00A680A6052F8040B78
:102D10000A6040B204E00A680A6052F8040B0A60D4
:102D2000C11770472DE9FA4E05460A462F696F2AEA
:102D300008BF082405D041F02000782814BF0A24D9
:102D400010243C26D5E90001642A18BF692A81466F
:102D50008A4605D1002903DAD9F100096AEB4A0A4B
:102D6000BAF1000F08BFB9F1000F0CD1286B50B9B0
:102D7000082C36D195F83800000732D530203B2694
:102D800087F83B002DE0E31748465146224600F005
:102D900031FBA4FB0023A9EB02023032D2B2A6F130
:102DA000010B3A2A5E4603DB9DF80030513B9A182E
:102DB00081465FEA010A0BF8072008BFB9F1000F4E
:102DC00003D0E868F1198842DDD3082C09D195F8C1
:102DD0003800000705D5F05D302802D0761E30207F
:102DE000F055C6F13C00A861F119E960296B8842F1
:102DF00008DA081A28624FF6EF71288F08402887F2
:102E0000BDE8F38E00290ED595F8381001F01401B5
:102E1000102908D1696B6A69891A2A6A891A081AFD
:102E20000128A8BF2862BDE8F38E00002DE9F34F0A
:102E30008BB0D0E90089006B002801AF48BF0620A5
:102E400005D404BF41F02000672802D101200B996E
:102E5000086340F2FF720B984168C1F30A50904238
:102E600020D1080302BF0B98006800280AD10B99F3
:102E7000032088619DF8300061381A2858D30FF27A
:102E8000A44109E00B99032088619DF83000613866
:102E90001A284AD30FF284410B98C068032200F02D
:102EA00021FB00E1012807DA0B9800F056FB01280E
:102EB00002DB00230026EDE00B9ADFF854B15268E4
:102EC00040F2FE3161F31E520B994A6040F2FE312E
:102ED000461A404649460022002300F05FFB38BFF7
:102EE00089F0004936B247F297507043494990FB48
:102EF000F1F636B2C6F10707012F92461BDBF80741
:102F000007D552465B464046494600F05FFB804687
:102F100089467F105046594652465B4600F056FBA4
:102F2000002F82468B46EAD126E00FF2EC31B3E760
:102F30000FF2EC31B0E77F420024374D12E0F80782
:102F400007D552465B462046294600F03FFB044623
:102F50000D467F105046594652465B4600F036FB00
:102F600082468B46002FEAD14046494622462B46F0
:102F700000F0FEFB804689469DF830000B99DFF893
:102F80009CB0096B40F02005662D0CBF06F10A00CD
:102F900006204718142FA8BF132730208DF80400EF
:102FA0000DF10504012F3BDB4046494600F01AFDB8
:102FB000014604F1080204234FF00A0CB1FBFCFCAB
:102FC0000CEB8C04A1EB4401303102F8011D0A2105
:102FD000BCFBF1FE0EEB8E04ACEB440430345B1E04
:102FE000714602F8014DE7D1083F012F02F10804B4
:102FF000D8DB00F017FD02460B464046494600F07C
:103000001FFD00225B4600F0E1FA80468946CBE7CF
:1030100000002440A08601000000F03F84D79741C3
:103020000DF10500201A0DF1050702E0401E761E85
:103030007F1C39783029F9D0662D02D136B2711C47
:1030400003E0652D0CBF012100210B9A126B8B1838
:103050001BB29842B8BF03461BB219001AD4814272
:1030600004DAC85D3528A8BF392000DA3020CA1933
:10307000521E00E05B1E12F80159491E8542F9D02C
:10308000392802D1C85D401CC855002902D57F1ED1
:103090005B1C761C36B29DF830100B9800961BB264
:1030A0003A4600F003F80DB0BDE8F08F2DE9F04787
:1030B00086B006468A4690461D4600F09EFD406A50
:1030C000376B90F80090012D02DA01250FF2582895
:1030D0004AF02000BDF93840662808BF641C13D0B0
:1030E000672840F0888014F1040F73DBBC4271DA6A
:1030F00096F83800641C000702D4BD42B8BF2F46C2
:1031000024B23F1B48BF002724B2F068B169012CEC
:1031100021DA4A1C30230B54012F03DA96F83810B9
:10312000090702D502F80090521CE742B8BF7C4262
:1031300024B26142E719AF42B261B8BF3D46716245
:103140002DB2F5612A46B3694146181800F0CAF954
:10315000781BB062AEE00818A54216DA2A4641464E
:1031600000F0C0F9B1696918601BB161012F70628C
:1031700003DA96F83800000705D5F06801F80090EA
:10318000F069401CF061B76294E02246414600F0CD
:10319000A9F9B06920182D1B012F03DA96F8381011
:1031A000090703D5F16800F80190401CB0612DB209
:1031B000AF42B8BF3D46F068B3692DB22A4604EB72
:1031C0000801181800F08EF9B0692818B061781B52
:1031D00070626FE0BD4204DA96F83810090758BFF4
:1031E0002F467F1E48BF0027BAF1670F0CBF4FF074
:1031F000650A4FF0450AB169F06818F8013B0B54B5
:103200004A1C012F05DA96F83810090758BFB26139
:1032100015D502F80090531C012FB3610FDB6D1E12
:103220002DB2AF42B8BF3D462DB22A4641461818CE
:1032300000F058F9B0692818B061781B7062F06826
:10324000B16901EB0008200008F801AB03D42B2082
:1032500008F8010B03E02D2108F8011B644200254A
:1032600002AF08E00A2200A800F0E0FC019807F88D
:10327000010B6D1C009C21B20129F3DA022D06DA44
:103280004AF02000652804BF302008F8010B4DB932
:10329000302008F8010B07E06D1E02A8285C3030D2
:1032A00008F8010B012DF7DAF068B1690818A8EBEE
:1032B0000000F06196F8380000F0140010280DD1DD
:1032C0007069B1690818716A0818F1690818B16A5B
:1032D0000818716B8842BCBF081A306206B0BDE89E
:1032E000F087F8B504460D4616461F46002004E058
:1032F000E86A401CE8627F1E002047B116F8011BF7
:10330000A868A047A8600028F2D14FF0FF30F2BDB6
:10331000686A6C747A4C00006E616E004E414E001B
:10332000696E6600494E4600300050F8041B61B1DA
:1033300050F8042BD30744BFA9F101039A180023C6
:10334000091F42F8043BFAD1EFE770470278C9B28F
:103350008A421AB11CBF10F8012FF9E718BF0020EC
:103360007047000000F10103810704D010F8011B31
:1033700089B18107FAD10268B2F10131914311F0AC
:10338000803F04BF50F8042FF6E710F8011B11B17D
:1033900010F8011BFBE7C01A70470000C9B2830791
:1033A00006D0521E22D310F8013B9942F7D11FE0FC
:1033B000083A13D302F1040241EA012141EA014132
:1033C00050F8043B121F21BF4B40A3F1013C2CEAF3
:1033D000030C1CF0803FF3D0C9B2001F083210F874
:1033E000013B521E28BF91EA030FF8D818BF0120F5
:1033F000401E70471B4213D1094236D12AB1844680
:10340000B0FBF2F002FB10C2704700F017BCFCD317
:103410000022002370470B000200002100207047AB
:10342000904271EB030CF6D370B5B1FA81F4B3FAA4
:1034300083F52C1BA340C4F1200532FA05F6334373
:10344000A2405FF00046E64002E05B085FEA32021D
:10345000841A71EB030524BF204629467641F4D334
:1034600002000B003000002170BD012ACFD970B5D9
:10347000140C20D0B1FA81F4B2FA82F5C4F1200420
:103480006419B4F12006D6D3B2405FF00044F44092
:10349000002502E052085FEA3303C61A71EB020E00
:1034A00024BF3046714664416D41F3D302000B00E6
:1034B0002000290070BD0C46B1FBF2F102FB114562
:1034C0002D0445EA1045B5FBF2F402FB145580B219
:1034D00040EA0545B5FBF2F002FB105240EA044019
:1034E00070BD000062B38B0708D0521E11F8013B7B
:1034F00000F8013B00F024808B07F6D1830740F0F1
:10350000208000BF103A07D330B4B1E83810103A29
:10351000A0E83810F9D230BC530724BFB1E8081036
:10352000A0E8081044BF51F8043B40F8043BD20720
:1035300024BF31F8022B20F8022B44BF0B78037014
:103540007047083A07D3B1E80810083A40F8043B3E
:1035500040F804CBF7D25307E4E730B4436803F0F4
:10356000004201211B031B0B436004BF0368002BB7
:1035700008D10DE00368DD0F45EA440444605B00B8
:103580000360491E4468E302F4D523031B0B436028
:1035900043681A434260084630BC70474FF4001C31
:1035A0001CEB410F94BF1CEB430F09E041EA030CF5
:1035B00050EA4C0C52EA0C0C03D2994208BF9042DC
:1035C000704714BF8B42824270470000B0B581EA59
:1035D000030C0CF0004C40F2FF7515EA11541DBFAE
:1035E00015EA1357AC42AF4239E0E41923EA4553D8
:1035F00043F48013C90241F0004141EA505EC70222
:103600001100A7FB020200284FF00000EEFB012092
:103610004FF00001E3FB072118BF42F00102401800
:1036200000214941E3FB0E01A4F580640F0302D29F
:1036300052004041494154F101046CDD470872F1E8
:10364000004250F1000051EB0451A1F580115CBF24
:1036500041EA0C01B0BD4CEA05510020B0BD05EABD
:103660001357AC4214BFAF4241E050EA410E1CBFB9
:1036700052EA430E02E061460020B0BD24423C44C1
:103680001BD15FEA070EF6D0090302BF01460020F6
:10369000AEF1140EB1FA81F7AEEB070401FA07FEA2
:1036A0000C37C7F1200100FA07F7C8404EEA000EB8
:1036B00023EA455343F48013A2E733F00043B3FAFF
:1036C00083F704BFB2FA82FE77440B3FE41BB7F1E5
:1036D000200E2FBF02FA0EF3BB40C7F1200E22FAD4
:1036E0000EFE38BF43EA0E03BA40641C82E750EA7C
:1036F000410E14BF52EA430E6FF000014FF4001761
:1037000017EB430F8ABF194617EB410FB5E74CEA99
:1037100005510020B0BDD4F10104B4F120070FDA47
:10372000C4F12007520828BF42F0010210FA07F541
:1037300001FA07F7E1BF2A43E0403843E1400FE0D8
:10374000352C98DCC7F1200452EA400220FA07F237
:1037500018BF42F0010231FA07F0A1400A430021EC
:1037600072F1004250F1000051EB0C01B0BD0000BD
:10377000F0B540F2FF7581EA030C0CF0004C15EA3D
:1037800011541DBF15EA1357AC42AF42E5E0BC41EE
:10379000C1F31301C3F31303801A994143F4801357
:1037A00004D2641E4000494180185941C90241EACF
:1037B0005051B1FBF3F603FB1611A2FB0675D7EBD4
:1037C000C020A94102D2761E80185941C90241EA9F
:1037D0005051B1FBF3FE03FB1E11A2FB0E75D7EB9C
:1037E000C020A94103D2AEF1010E801859418902CF
:1037F00041EA9051760546EA8E2EB1FBF3F603FBC3
:103800001611A2FB0675D7EB8020A94102D2761EC5
:1038100080185941C90241EA50514EEA060EB1FBE7
:10382000F3F603FB1611A2FB0675D7EBC020A941E6
:1038300002D2761E80185941C90241EA5051B1FBAB
:10384000F3F703FB1711A2FB0735D3EBC020A94107
:1038500067F100070CBF004247F0010766F3D52768
:103860004FEA1E31B80814F5806412DDBD0775F10A
:10387000004250EB0E5051EB045111F5801F5CBF1C
:1038800041EA0C01F0BD4CF07F6141F0E0410020C5
:10389000F0BDBD076D0840EA0E5041F48011D4F12F
:1038A0000104B4F120060ADAC4F120060200E04067
:1038B00001FA06F3E1401843B24015430EE0342C00
:1038C00013DCC6F1200445EA40056D0820FA06F233
:1038D000154321FA06F0A1400D43002175F1004285
:1038E00050F1000051EB0C01F0BD00205FEA0C012B
:1038F000F0BDCFB992185B41B3FA83F704BFB2FAB7
:1039000082F6BF190B3FB7F120062FBF02FA06F36C
:10391000BB40C7F1200622FA06F638BF3343BA404F
:103920001CB1E419641E33E77F4231F00041B1FA63
:1039300081F404BFB0FA80F6A4190B3CB4F1200660
:103940002FBF00FA06F1A140C4F1200620FA06F6C6
:1039500038BF3143A0403C1B1AE7AC421ABF05EA0E
:103960001357AF4212E050EA41061CBF52EA430629
:10397000BFE750EA4107304661461CBF41EA0551A6
:10398000F0BD52EA430C08BFC143F0BD00204FF424
:10399000001616EB410F98BF16EB430F08BF16EB4E
:1039A000410F24BFC14305E016EB430F0CBF614636
:1039B0004CEA0551F0BD0000F446400D40EAC1203C
:1039C000490006D200F014F8004248BF6FF00040F2
:1039D000604700F00DF84FF0004188428CBF084668
:1039E00040426047400D40EAC120490080F00D8010
:1039F00040F00040490DA1F58061491C05D4D1F18A
:103A00001F0154BFC840C01770474FF000007047F7
:103A1000010040F10980F446404200F005F851F001
:103A200000416047010000BF09D0B0FA80F1884032
:103A3000C91CC1F58461090501EBD021400570471F
:103A400070B44FF0004591EA030F44BF6B4000F0A3
:103A500001B900BF841A71EB030604D26E40001B4B
:103A6000B141121973414FF4001C1CEB410F34BFDC
:103A70007CEB430684E00C0DA4EB1356362E7DDC64
:103A8000012E43DC45EAC32343EA525312BFD2025C
:103A900092025B08240545EAC12141EA5051D2EB6C
:103AA000C020994125D407D1B0FA80F610FA06F16A
:103AB00064D00020203608E0B1FA81F6B140C6F1AA
:103AC000200220FA02F21143B0404FEAF474B4EB42
:103AD000465434F001064FEA74040AD8D6F50016AD
:103AE000760D04F00044F04061FA06F25040F140D7
:103AF0004840C00A40EA415021F0004128BF5FEA37
:103B0000500550F1000044EBD12137E045EAC323D2
:103B1000DB0A45EAC121C90AB6F120050EDD42EAF9
:103B20000242120CC5F1200603FA06F6EB4042EA07
:103B300006056D42984161F100010DE062FA06F55B
:103B4000F240554063FA06FC82EA0C02F3405A4008
:103B50006D42904161EB030111F4801F05D1641E99
:103B6000620502D06D004041494121F480114308B3
:103B700075F1004350F1000041EB045170BC7047F7
:103B80001CEB410F15D223F0004352EA43060BD041
:103B90004FEA4C0CBCEB410F04D80C0D661E342EC2
:103BA000B7DDEBE7801A994150EA410608BF0021D2
:103BB000E4E708BF1CEB430F28BF6FF00001DDE70F
:103BC00080B5134800F0B0F80FF248010160416081
:103BD0008160C1600161416181610FF23C0242621A
:103BE0008162C162016341630FF2300282630FF2AE
:103BF0003402C2630164416401BD10B5044800F0A1
:103C000093F80446206808B9FFF7DAFF204610BD94
:103C10005412FF1F000000002E00000066616C734C
:103C200065000000747275650000000091FBF2F3FE
:103C300003FB1211C0E9003170470000704700001B
:103C400070B44FF0004591EA030C44BF6B40FFF79E
:103C500001BF00BF841A71EB030603D2001BB14100
:103C6000121973414FF4001C1CEB410F34BF7CEB65
:103C7000430443E00C0DA4EB1356352E50DC45EA0B
:103C8000C323DB0A45EAC121C912B6F120050DDDC7
:103C900063FA05F6EB4086EA0305124218BF45F0C9
:103CA0000105C01851F100010CD213E062FA06F5CB
:103CB000F2405540F3415A40B340F3405A40801817
:103CC000594107D349085FEA30005FEA350528BF4C
:103CD00045F0010501F58011420875F1004250F1EF
:103CE000000041EB045170BC4FF4001C1CEB410F71
:103CF00038BF70470020090D090570471CEB410FC4
:103D000010D252EA43060BD0BCEB410F05D80C0D84
:103D1000AB43661E342EB5DD02E0AB43801859413B
:103D200070BC704770BC704770470000012110F0F4
:103D30001F029140DFF8902B40B2430942F8231054
:103D4000704770B582B0DFF8840B0468DFF8800B31
:103D50000568DFF8800B06683C20ADF802005020B3
:103D6000ADF8000000F004FE00F0CAFE00F0F4FF21
:103D7000DFF8640B01F0E0F9DFF8600B01789C20BC
:103D800001F000FC012001F0C4FE022001F0C1FEA0
:103D900001F07AFF5FF4E1310420FEF75DFB0FF2E2
:103DA0001D21672001F0F1FF0FF24121102001F0E9
:103DB000ECFF0FF22D01542001F0E7FF4420FFF744
:103DC000B5FFDFF81C0B0168002001F0F5FF62B6BB
:103DD0000A20FEF738FA01F015FA00F00BF9F7E7C0
:103DE00080B5DFF8000B00F0A8FEDFF8F80A808845
:103DF000DFF8F41ADFF8F42A126821F81200DFF86D
:103E0000E40A4089DFF8E81ADFF8E02A126821F8AE
:103E10001200DFF8D80A0068042812D100F0D3FDA0
:103E2000DFF8D00A8069DFF8CC1A896A0918DFF850
:103E3000C40A8069DFF8BC2A926A101801F042FFB8
:103E4000A2E0DFF8A80A0068032824D100F096FE5B
:103E5000DFF8A40A90ED000ADFF8A00AD0ED000A0E
:103E600070EE600ADFF8980A90ED000ADFF8940A15
:103E700090ED001A30EE410A00F0F8FEDFF8740A07
:103E8000DFF8841A09680160DFF8680ADFF87C1A35
:103E90000968416078E0DFF8540A0068022865D1BB
:103EA000012001F0B9FE4042DFF8641A08600120E9
:103EB00001F0C8FE022001F0AFFEDFF8581A0860DA
:103EC000022001F0BFFEDFF8500A0088DFF8441A34
:103ED00009680818DFF8401A0880DFF8400A0088EF
:103EE000DFF82C1A09680818DFF8301A0880DFF8A4
:103EF000300A0078401CDFF8281A0870DFF8200A22
:103F00000078142818DB00F090FDDFF8E809006B5A
:103F1000DFF8E019C96A401AFFF77AFD0022DFF8DE
:103F2000043AFFF725FC01F085FFDFF8FC19086073
:103F30000020DFF8EC190870DFF8B80990ED0B0AE3
:103F4000B8EEC00ADFF8D809007800EE900AF8EE63
:103F5000600ADFF8D40990ED001A00EE810ABDEE88
:103F6000C00ADFF8900980ED0A0A0DE0DFF87C094D
:103F70000068012808D0DFF874090068002803D021
:103F80000020DFF868190860DFF860090068401C4D
:103F9000DFF858190860DFF854090068052803D1D4
:103FA0000020DFF848190860DFF88009006850F049
:103FB0000100DFF87819086001BD000038B5DFF8AE
:103FC000700900680028FAD0DFF86409006805006D
:103FD0005FF0FF30DFF8581908601D20040028004A
:103FE000E040C00701D501F0DDF831BD80B501F03A
:103FF000FFF801BD80B5DFF83C090078012840F0EA
:1040000046840320FEF782FB002807D1DFF8280949
:104010000078401CDFF8201908700BE00220FEF742
:1040200075FB002806D1DFF810090078401EDFF884
:1040300008190870DFF800090078062190FBF1F2FA
:1040400001FB1200DFF8F0180870DFF8EC080078C8
:1040500000280ED0022800F09081C0F0CC80042807
:1040600000F0E282C0F03382052800F0798300F08E
:104070000EBC0020FEF74AFB002818D1DFF8BC0870
:10408000DFF8BC18097850F8210001F01BFFDFF8B9
:10409000B428DFF8B438FFF7D3FD01F0CBFEDFF82A
:1040A0009C18DFF89C28127841F822001CE00120BF
:1040B000FEF72CFB002817D1DFF88008DFF8801806
:1040C000097850F8210001F0FDFEDFF87828DFF8CC
:1040D0007C38FFF7B5FD01F0ADFEDFF86018DFF8C2
:1040E0006028127841F822004FF4FC6000901F23F2
:1040F0000522DFF84808DFF84818097810EB81003E
:1041000090ED000AF2EE040A20EE200ABDEEC00A8D
:1041100010EE101ADFF83808006800F06AFF4FF45C
:10412000784000901F230522DFF82808DFF81018D8
:10413000097810EB810090ED000AF2EE040A20EEFF
:10414000200ABDEEC00A10EE101ADFF80C08006855
:1041500000F04FFF4FF4784000901F230522DFF856
:10416000A00790ED000ABDEEC00A10EE101ADFF8AD
:10417000EC07006800F03DFF4FF4784000901F23EB
:104180000522DFF8DC0790ED020AF2EE040A20EEC9
:10419000200ABDEEC00A10EE101ADFF8C80700684A
:1041A00000F027FF4FF4784000901F230522DFF82E
:1041B000B00790ED030AF2EE040A20EE200ABDEEED
:1041C000C00A10EE101ADFF8A007006800F011FF17
:1041D0004FF4784000901F230522DFF8840790ED0C
:1041E000000ABDEEC00A10EE101ADFF88007006862
:1041F00000F0FFFE4BE30020FEF788FA002818D1FC
:10420000DFF85007DFF83817097850F8210001F07F
:1042100059FEDFF83027DFF83037FFF711FD01F0E6
:1042200009FEDFF83017DFF81827127841F822006E
:104230001CE00120FEF76AFA002817D1DFF8140706
:10424000DFF8FC16097850F8210001F03BFEDFF89A
:10425000F426DFF8F836FFF7F3FC01F0EBFDDFF8AA
:10426000F416DFF8DC26127841F822004FF478408B
:1042700000901F230522DFF8C406DFF8C416097872
:1042800010EB810090ED000AF2EE040A20EE200A05
:10429000BDEEC00A10EE101ADFF8B406006800F098
:1042A000A8FE4FF4FC6000901F230522DFF8A4064F
:1042B000DFF88C16097810EB810090ED000AF2EE21
:1042C000040A20EE200ABDEEC00A10EE101ADFF834
:1042D0008806006800F08DFE4FF4784000901F23A0
:1042E0000522DFF81C0690ED000ABDEEC00A10EEB4
:1042F000101ADFF86806006800F07BFE4FF4784083
:1043000000901F230522DFF8580690ED020AF2EE16
:10431000040A20EE200ABDEEC00A10EE101ADFF8E3
:104320004406006800F065FE4FF4784000901F23BB
:104330000522DFF82C0690ED030AF2EE040A20EEC7
:10434000200ABDEEC00A10EE101ADFF81C06006845
:1043500000F04FFE4FF4784000901F230522DFF855
:10436000000690ED000ABDEEC00A10EE101ADFF84C
:10437000FC05006800F03DFE89E20020FEF7C6F96A
:1043800000280CD1DFF8780590ED000AF7EE000A5E
:1043900030EE200ADFF8680580ED000A10E0012009
:1043A000FEF7B4F900280BD1DFF8540590ED000AB0
:1043B000FFEE000A30EE200ADFF8440580ED000A27
:1043C0004FF4784000901F230522DFF87005DFF8D6
:1043D0007015097810EB810090ED000AF2EE040AE6
:1043E00020EE200ABDEEC00A10EE101ADFF86005BC
:1043F000006800F0FEFD4FF4784000901F23052276
:10440000DFF85005DFF83815097810EB810090EDE2
:10441000000AF2EE040A20EE200ABDEEC00A10EEF9
:10442000101ADFF83405006800F0E3FD4FF4FC607B
:1044300000901F230522DFF8C80490ED000ABDEEAE
:10444000C00A10EE101ADFF81405006800F0D1FD64
:104450004FF4784000901F230522DFF8040590ED0B
:10446000020AF2EE040A20EE200ABDEEC00A10EEA7
:10447000101ADFF8F004006800F0BBFD4FF478403C
:1044800000901F230522DFF8D80490ED030AF2EE16
:10449000040A20EE200ABDEEC00A10EE101ADFF862
:1044A000C804006800F0A5FD4FF4784000901F2379
:1044B0000522DFF8AC0490ED000ABDEEC00A10EE54
:1044C000101ADFF8A804006800F093FDDFE1002077
:1044D000FEF71CF9002810D1DFF88404806801F091
:1044E000F1FCDFF86024DFF86034FFF7A9FB01F08E
:1044F000A1FCDFF86C14886014E00120FEF706F9D7
:1045000000280FD1DFF85804806801F0DBFCDFF8E9
:104510003424DFF83834FFF793FB01F08BFCDFF82D
:10452000401488604FF4784000901F230522DFF884
:104530000C04DFF80C14097810EB810090ED000AF0
:10454000F2EE040A20EE200ABDEEC00A10EE101AA8
:10455000DFF8FC03006800F04CFD4FF47840009059
:104560001F230522DFF8EC03DFF8D413097810EBE2
:10457000810090ED000AF2EE040A20EE200ABDEE62
:10458000C00A10EE101ADFF8D003006800F031FD09
:104590004FF4784000901F230522D94890ED000A7F
:1045A000BDEEC00A10EE101ADFF8B003006800F08C
:1045B00020FD4FF4FC6000901F230522DFF8A003CC
:1045C00090ED020AF2EE040A20EE200ABDEEC00AC7
:1045D00010EE101ADFF88C03006800F00AFD4FF4AB
:1045E000784000901F230522DD4890ED030AF2EE8B
:1045F000040A20EE200ABDEEC00A10EE101ADA48B6
:10460000006800F0F6FC4FF4784000901F2305226C
:10461000D34890ED000ABDEEC00A10EE101AD34840
:10462000006800F0E6FC32E10020FEF76FF8002899
:104630000CD1CB48C06801F045FCC24AC24BFFF721
:10464000FFFA01F0F7FBC649C86010E00120FEF751
:104650005DF800280BD1C248C06801F033FCB94AAC
:10466000BA4BFFF7EDFA01F0E5FBBD49C8604FF426
:10467000784000901F230522B048B149097810EB1B
:10468000810090ED000AF2EE040A20EE200ABDEE51
:10469000C00A10EE101AAE48006800F0AAFC4FF4F1
:1046A000784000901F230522AA48A549097810EBFD
:1046B000810090ED000AF2EE040A20EE200ABDEE21
:1046C000C00A10EE101AA448006800F092FC4FF4E3
:1046D000784000901F230522894890ED000ABDEE26
:1046E000C00A10EE101A9D48006800F082FC4FF4DA
:1046F000784000901F230522994890ED020AF2EEBF
:10470000040A20EE200ABDEEC00A10EE101A9548E9
:10471000006800F06EFC4FF4FC6000901F2305223F
:104720008F4890ED030AF2EE040A20EE200ABDEE57
:10473000C00A10EE101A8C48006800F05AFC4FF4C2
:10474000784000901F230522854890ED000ABDEEB9
:10475000C00A10EE101A8548006800F04AFC96E086
:104760000020FDF7D3FF00280AD17D4890ED000A14
:10477000F1EE040A30EE200A794880ED000A0EE0DE
:104780000120FDF7C3FF002809D1754890ED000A0C
:10479000F9EE040A30EE200A714880ED000A4FF469
:1047A000784000901F23052264486549097810EB82
:1047B000810090ED000AF2EE040A20EE200ABDEE20
:1047C000C00A10EE101A6248006800F012FC4FF4A4
:1047D000784000901F2305225E485949097810EB64
:1047E000810090ED000AF2EE040A20EE200ABDEEF0
:1047F000C00A10EE101A5848006800F0FAFB4FF497
:10480000784000901F2305223D4890ED000ABDEE40
:10481000C00A10EE101A5148006800F0EAFB4FF48D
:10482000784000901F2305224D4890ED020AF2EED9
:10483000040A20EE200ABDEEC00A10EE101A494804
:10484000006800F0D6FB4FF4784000901F2305224B
:10485000434890ED030AF2EE040A20EE200ABDEE72
:10486000C00A10EE101A4048006800F0C2FB4FF476
:10487000FC6000901F230522394890ED000ABDEE30
:10488000C00A10EE101A3948006800F0B2FB002090
:10489000FDF73CFF012812D10120FDF737FF012869
:1048A0000DD10320FDF732FF012808D10220FDF7CA
:1048B0002DFF012803D101201E49087002E00020CD
:1048C0001C49087001BD000000E100E044820000C6
:1048D000488200004C8200002004FF1F1C04FF1FC0
:1048E000F011FF1FBC11FF1FA411FF1FD011FF1FEC
:1048F000B011FF1F2811FF1F8811FF1F9811FF1F04
:104900009411FF1F8411FF1F8C11FF1F9011FF1FB7
:10491000C811FF1FCC11FF1F4812FF1F4A12FF1FB3
:104920004F12FF1F00003440D411FF1F0C710340D1
:10493000A09004404D12FF1F4E12FF1F7806FF1F6C
:104940004C12FF1F9A9999999999B93F9999B9BFB2
:10495000A806FF1F8C06FF1FAC06FF1FB006FF1F37
:104960005C11FF1FB406FF1FB806FF1FBC06FF1F28
:1049700080B50020FDF794FE0120FDF791FE022096
:10498000FDF78EFE0320FDF78BFE0520FDF788FE68
:1049900000F0A2F800204149886140484049096878
:1049A00081603E483F490968C160DFED3B1A9FEDD9
:1049B0003A1A3D48D0ED000A3C4890ED000A3C48C8
:1049C00001F0A8FA01BD80B53448006801F07AFA18
:1049D00031F00041FEF7F0FF512803DB0421354A96
:1049E000117004E0102190FBF1F1324A117032494C
:1049F000304A127811EB820191ED000A2749D1ED7E
:104A0000000A20EE200A2D492A4A127811EB820171
:104A1000D1ED000A214991ED011A00EEC10ABDEE67
:104A2000C00A1E4981ED060A01BD80B52448B0F9CF
:104A300000002449B1F900100818FEF7E9FF002230
:104A4000214BFEF7C3FDFEF7B7FF204908600020A9
:104A50001B49088000201B4908801C480068FEF79D
:104A6000D7FF1B4A1B4BFEF7B1FDFEF7A5FF174909
:104A700008600A48006B0949C8620D48134991ED66
:104A8000000AB8EEC00A01F054FABDEEC00A0348AD
:104A900080ED0C0A01BD0000000000002811FF1F7E
:104AA0009411FF1F9811FF1FA406FF1FA006FF1FF0
:104AB0005C11FF1F4C12FF1F7806FF1F8C06FF1FA3
:104AC0004812FF1F4A12FF1F0000E03F7811FF1F2E
:104AD0009A9999999999B93F80B5332001F068FA6C
:104AE000102001F065FA112001F062FA302001F087
:104AF0005FFA202001F05CFA122001F059FA01BDA2
:104B00007C487D4901607D487D4901607D48794947
:104B1000096801607C487949096801607B487549EA
:104B2000096801607A48754909680160794800217F
:104B30000160794800210160704710B5040001212F
:104B4000302001F03CFB20800121122001F037FBD6
:104B500060800121112001F032FBA0800121102092
:104B600001F02DFBE0800121332001F028FB2081A2
:104B70000121202001F023FB608110BDF8B5002643
:104B800000270020052825DAB6B200EE106AB8EE3C
:104B9000400A624931F8101000EE901AF8EE600AEF
:104BA00030EE200ABDEEC00A10EE106ABFB200EE71
:104BB000107AB8EE400A5A4931F8101000EE901AF7
:104BC000F8EE600A30EE200ABDEEC00A10EE107A50
:104BD000401CD7E7B6B2052096FBF0F000EE100AB5
:104BE000B8EEC00A474880ED000ABFB2052097FB27
:104BF000F0F000EE100AB8EEC00A434880ED000A5B
:104C00004248006801F05EF95FF06632454BFEF7FE
:104C1000DDFC04000D003B48006801F053F9424AF6
:104C2000424BFEF7D3FC22002B00FFF709F801F0FE
:104C300001F9364908603648006801F043F93C4AFA
:104C40003C4BFEF7C3FC04000D002F48006801F048
:104C500039F9394A394BFEF7B9FC22002B00FEF72F
:104C6000EFFF01F0E7F82A490860F1BD38B52DEDF6
:104C7000028BB0EE408AF0EE608A314890ED000A77
:104C800028EE008A2F4890ED000A68EE808A2148BD
:104C90002D49096801602048C0ED008A2A4890ED3E
:104CA000000A38EE400A2948D0ED000A80EE200ABA
:104CB000274880ED000A2448006801F003F9040049
:104CC0000D00234890ED000A30EE680A10EE100A3D
:104CD00001F0F8F8164A1F4BFEF778FC22002B0073
:104CE000FEF7AEFF01F0A6F817490860BDEC028B95
:104CF00031BD00009411FF1F00A087449811FF1FD1
:104D000000C0D5447C11FF1F8011FF1F8411FF1FBD
:104D10008811FF1F8C11FF1F9011FF1FA411FF1F8F
:104D2000B011FF1F6666E63F343333333333D33F6E
:104D30009A9999999999B93FCDCCCCCCCCCCEC3FF0
:104D40001404FF1F1804FF1F9C11FF1F1004FF1FF6
:104D5000A011FF1F9999A93F10B582B0DFF8900309
:104D60000468FBF759FBFDF74EF9ADF80000FDF7BD
:104D700047F9ADF802004FF478420099200000F0A6
:104D800001F813BDF2B50400150000992000FDF7ED
:104D900033F8BDF80000BDF80210484307000120B9
:104DA000DFF8501308600020DFF84C130860002083
:104DB000DFF8481308602C20DFF844130870002047
:104DC000DFF8401308600120DFF838130860012085
:104DD000DFF82813086000200600BE4239D2012007
:104DE000DFF8101308600120DFF80C1308600020C2
:104DF000DFF808130860ADB2280ADFF80413087062
:104E00000020DFF8001308600120DFF8F8120860C6
:104E10000120DFF8E81208600120DFF8D8120860EE
:104E20000120DFF8D41208600020DFF8D0120860FB
:104E3000DFF8CC0205700020DFF8C81208600120FE
:104E4000DFF8C01208600120DFF8B0120860761C9D
:104E5000C3E7F1BD2DE9F14781B00C0015001E003C
:104E6000DFF8A402D0F800A0FDF7CDF80838BDF8AF
:104E70000410884206DBFDF7C3F81038BDF80610B1
:104E8000884200DAB3E051460198FCF7B5FF0120F3
:104E9000DFF8601208600020DFF85C120860002074
:104EA000DFF8581208602C20DFF854120870002038
:104EB000DFF8501208600120DFF848120860012076
:104EC000DFF838120860002081465FFA89F9B9F1ED
:104ED000100F80F28C80DFF83402E4B2210151FA25
:104EE00089F10818B0F500700078070000208046AE
:104EF0005FFA88F8B8F1080F76DA380638D501205D
:104F0000DFF8F01108600120DFF8EC1108600020E4
:104F1000DFF8E8110860ADB2280ADFF8E411087084
:104F20000020DFF8E01108600120DFF8D8110860E8
:104F30000120DFF8C81108600120DFF8B81108600F
:104F40000120DFF8B41108600020DFF8B01108601C
:104F5000DFF8AC0105700020DFF8A811086001201F
:104F6000DFF8A01108600120DFF89011086037E039
:104F70000120DFF8801108600120DFF87C11086053
:104F80000020DFF878110860B6B2300ADFF870113F
:104F900008700020DFF86C1108600120DFF8641150
:104FA00008600120DFF8541108600120DFF8441187
:104FB00008600120DFF8401108600020DFF83C1194
:104FC0000860DFF83C0106700020DFF83811086047
:104FD0000120DFF8301108600120DFF8201108609F
:104FE0007F0018F1010883E719F101096DE7BDE8B9
:104FF000F3872DE9F14382B0894615001E000A9C13
:105000004F465FF00008BDF80A00ADF80600B9F1A0
:10501000000F1CD123009BB2320092B230210298C3
:10502000FFF718FFBDF808000830ADF808001020A1
:10503000ADF80200EDB2681E80B2C000ADF800000D
:10504000220092B200990298FFF79CFE4EE0002FDA
:1050500005D00A20B7FBF0F718F10108F7E75FFA6F
:1050600088F8EDB2A84500D3A8465FFA88F847460D
:105070005FFA88F8B8F1000F1FD0BDF808005FFA9A
:1050800088F81FFA88F810EBC8000838ADF804005B
:10509000B8F101080A2023009BB2320092B2B9FB9A
:1050A000F0F100FB119010F13001C9B20198FFF747
:1050B000D1FE0A20B9FBF0F9DAE7EDB2AF4215D024
:1050C000EDB2E81B80B2C000ADF80000BDF80800EA
:1050D000F90011FA80F0ADF808001020ADF80200D8
:1050E000220092B200990298FFF74CFEBDE8F783C8
:1050F000508200002810FE433010FE432C10FE4367
:1051000080F00F402410FE43548200001470000011
:10511000012110F01F029140774A40B2430942F842
:1051200023107047012110F01F029140734A40B2D2
:10513000430942F82310704710B50400704804601A
:1051400000F081F80028FBD000F002F8002010BD2C
:10515000E0B5012002904FF41670019000200090FD
:105160001B23674802686749002001F0ABF86648D6
:10517000006840084000644908605720FFF7D2FFEC
:105180006248006850F00100604908600020FFF7A5
:10519000BFFF5F491B20FCF7E3FF5E491D20FCF7C2
:1051A000DFFF07BD80B55C4890F90000042818D1E6
:1051B0000320594908705720FFF7B4FF5FF00060E3
:1051C000564908605048006850F001004E49086098
:1051D0005FF0006051490860494800685049086024
:1051E00005E05720FFF79EFF02204B49087001BDE4
:1051F0000120494908704548006850F001004349C2
:105200000860704780B50420434908705FF0FF30A4
:10521000424908605720FFF77BFF3F4890F90000A4
:1052200001280FD03C4890F900000228F5D1042055
:10523000394908705FF0FF30384908605720FFF7A0
:1052400067FFEAE701BD10B582B0002400208DF8A9
:10525000000000F084F88021122000F093F900286B
:1052600004D13048FDF7E6F8002043E03220FCF797
:10527000EAFF0B22012100A800F0BCF9002804D1AC
:105280002948FDF7D7F8002034E09DF800102748A2
:10529000FDF7D0F8264801782648FDF7CBF89DF8B1
:1052A0000000212825D10020040021480078A4B264
:1052B00080B2844218D22048A4B210EB4400417856
:1052C0001D48A4B210F8140080B200F05BF9002869
:1052D00008D11948A4B210F814101848FDF7AAF81C
:1052E000002007E0641CE0E71548FDF7A3F8012063
:1052F00000E0002016BD000000E100E080E100E0D9
:10530000F411FF1F50F00F400C800040248000403B
:1053100002010200120109008C0EFF1FA090044040
:1053200010900040BC81000024820000C480000076
:10533000F40EFF1F60810000900EFF1FD48100005B
:10534000E880000001B4BDF80000002805D0BDF8D9
:105350000000401EADF80000F5E701B0704780B5D1
:10536000012201211A20FCF763FE012201211920EC
:10537000FCF75EFE23211A20FCF714FF23211920DD
:10538000FCF710FF01BD80B501207A4908600120BB
:10539000794908604FF4C870FFF7D4FF00207749BF
:1053A000086077480068002804D10120734908602C
:1053B000002016E001207149086000206D49086056
:1053C0004FF4C870FFF7BEFF00206B4908606C48BF
:1053D0000068002804D0012068490860002000E02F
:1053E000012002BD80B500206349086000206149AA
:1053F00008604FF4C870FFF7A5FF01205E49086000
:105400004FF4C870FFF79EFF01205A4908604FF41F
:10541000C870FFF797FF01BD80B5002056490860AE
:105420004FF4C870FFF78EFF0020524908604FF418
:10543000C870FFF787FF01204F4908604FF4C8701C
:10544000FFF780FF00204C4908604FF4C870FFF759
:1054500079FF01BD80B50020474908604FF4C8704E
:10546000FFF770FF0120434908604FF4C870FFF751
:1054700069FF0120404908604FF4C870FFF762FFE0
:1054800000203D4908604FF4C870FFF75BFF01BD85
:1054900080B50020384908600020384908604FF482
:1054A000C870FFF74FFF0120334908604FF4C87000
:1054B000FFF748FF32480068002807D001202F4935
:1054C000086000202C490860002006E001202B49DC
:1054D0000860002028490860012002BD38B5050099
:1054E00008242000441EC0B2002818D0280603D586
:1054F00001202049086002E000201E4908606D007C
:105500004FF4C870FFF71EFF01201B4908604FF4DD
:10551000C870FFF717FF002017490860E1E731BDA9
:1055200038B5082400250020144908602000441ED6
:10553000C0B2002815D06D0000200F4908604FF45C
:10554000C870FFF7FFFE01200B4908604FF4C870D8
:10555000FFF7F8FE0A4800680028E7D055F001057B
:10556000E4E7012005490860002003490860EDB226
:10557000280032BD6400FE436800FE43E402FE439F
:105580006402FE4370B504000D0000262900C9B274
:10559000200080B200F00AF8002805D1761CF6B28F
:1055A000142EF3D1002000E0012070BD38B50400B6
:1055B0000D00FFF7E8FE002801D1002019E042208D
:1055C000FFF78CFFFFF764FF002803D1FFF70AFF06
:1055D00000200EE02000C0B2FFF780FFFFF758FF69
:1055E0002800C0B2FFF77AFFFFF752FFFFF7FAFE7D
:1055F000012032BDF8B504000D001600002732006E
:10560000D2B2290089B2200000F00AF8002805D1A2
:105610007F1CFFB21E2FF2D1002000E00120F2BD5E
:1056200070B504000D001600FFF7ADFE002801D193
:10563000002037E04220FFF751FFFFF729FF002845
:1056400003D1FFF7CFFE00202CE03000C0B2FFF7FF
:1056500045FFFFF71DFFFFF7C5FEFFF794FE00288B
:1056600001D100201EE04320FFF738FFFFF710FFB5
:10567000002803D1FFF7B6FE002013E0ADB2002DE5
:105680000DD0FFF74DFF2070ADB2012D02D1FFF715
:10569000E1FE01E0FFF7C0FE641C6D1EEEE7FFF7C0
:1056A000A1FE012070BD000038B504000D0064B2F9
:1056B000002C06D0022C69D04CD3032C00F0828041
:1056C000C7E0DFF8AC05006850F08070DFF8A01587
:1056D00008606DB2002D0BD0022D15D00ED3042D15
:1056E0001ED017D3062D27D020D3072D2AD02FE088
:1056F0004FF480614120FCF733FD2AE04FF4407104
:105700000420FCF72DFD24E04FF440710520FCF748
:1057100027FD1EE04FF440710620FCF721FD18E044
:105720004FF440710720FCF71BFD12E04FF480613D
:105730006520FCF715FD0CE04FF480616620FCF756
:105740000FFD06E04FF480616720FCF709FD00E0E3
:105750007FE07EE0DFF81805006850F00070DFF8A9
:10576000101508606DB2002D02D0012D06D00BE09F
:105770004FF440710C20FCF7F3FC06E04FF440714D
:105780000D20FCF7EDFC00E063E062E0DFF8E404EC
:10579000006850F08070DFF8DC1408606DB2002DF6
:1057A00002D0012D06D00BE04FF440710A20FCF727
:1057B000D7FC06E04FF440710B20FCF7D1FC00E071
:1057C00047E046E0DFF8AC04006850F00070DFF816
:1057D000A41408606DB2002D0BD0022D15D00ED38D
:1057E000042D1ED017D3062D27D020D3072D2AD065
:1057F0002EE04FF4C0618520FCF7B2FC28E04FF4A6
:10580000C0618620FCF7ACFC22E04FF4C061872029
:10581000FCF7A6FC1CE04FF4C0618820FCF7A0FC5C
:1058200016E04FF4C0618920FCF79AFC10E04FF4B9
:10583000C0618A20FCF794FC0AE04FF4C0618B2021
:10584000FCF78EFC04E04FF4C0618C20FCF788FC70
:10585000FFE731BD2DE9F84F04000D0016001F00D1
:1058600064B2002C11D064B2012C02D064B2022CBC
:1058700002D16DB2022D08DB64B2032C05D040F2D8
:105880008511DFF8F403FCF70AFD290049B2200076
:1058900040B2FFF709FFDFF8E40300684FF47A71C4
:1058A000484380465FEA1840B0FBF6F0814600208E
:1058B00082461FFA89F9484650FA0AF0012802DBAD
:1058C0001AF1010AF5E75FFA8AFABAF1080F05DB67
:1058D0004FF4D071DFF8A003FCF7E1FC404630FA4A
:1058E0000AF0B0FBF6F081461FFA89F9DFF8900361
:1058F00064B240F8249064B2002C05D0022C19D078
:105900000DD3032C21D02CE01FFA89F919F10100E5
:1059100000FB07F06421B0FBF1F0834621E01FFAA1
:1059200089F919F1010000FB07F06421B0FBF1F0E7
:10593000834616E01FFA89F919F1010000FB07F010
:105940006421B0FBF1F083460BE01FFA89F919F1ED
:10595000010000FB07F04FF47A71B0FBF1F08346D1
:10596000FFE7DFF8200364B250F824006DB210EBBB
:10597000C500DFF8101364B251F824106DB211EBBA
:10598000C501C96831F00401C160DFF8F80264B2F2
:1059900050F824006DB210EBC5002821C1605FFAF9
:1059A0008AFA1AF0070050F00800DFF8D81264B243
:1059B00051F8241008601FFA89F9DFF8C80264B2B0
:1059C00050F82400C0F808900020DFF8B81264B244
:1059D00051F82410C864DFF8AC0264B250F8240017
:1059E0006DB210EBC5001FFA8BFBC0F810B00020A1
:1059F000DFF8901264B251F824104860BDE8F18FCE
:105A00002DE9F04104000D0016005FF0000864B2BB
:105A1000002C11D064B2012C02D064B2022C02D14D
:105A20006DB2022D08DB64B2032C05D04FF4F37184
:105A3000DFF84402FCF733FC64B2002C05D0022CE2
:105A400015D00BD3032C1BD024E0652E05D34FF4C7
:105A5000F671DFF82402FCF722FC1BE0652E05D36B
:105A60004FF4F871DFF81002FCF719FC12E0652E14
:105A700005D34FF4FA71DFF80002FCF710FC09E0DF
:105A8000B6F57A7F05D940F2F911DFF8EC01FCF7A1
:105A900006FCFFE7DFF8E80164B250F82400804616
:105AA00064B2002C05D0022C15D00BD3032C1BD0D4
:105AB00024E018F1010000FB06F06421B0FBF1F0D6
:105AC00007001BE018F1010000FB06F06421B0FBA9
:105AD000F1F0070012E018F1010000FB06F064216C
:105AE000B0FBF1F0070009E018F1010000FB06F03F
:105AF0004FF47A71B0FBF1F00700FFE7DFF88401A3
:105B000064B250F824006DB210EBC5000761BDE827
:105B1000F08110B5040064B2012C07D064B2022CED
:105B200004D040F2DB215448FCF7B9FB64B22000FA
:105B3000012802D0022811D021E04D48006850F021
:105B400000704B4908604FF4E0610C20FCF708FB43
:105B50004FF4E0610D20FCF703FB15E045480068B9
:105B600050F08070434908604FF4C0610A20FCF790
:105B7000F7FA4FF4C0610B20FCF7F2FA04E040F2B0
:105B800013313D48FCF78BFB3E4864B250F82400CB
:105B9000406D50F004003B4964B251F82410486550
:105BA000384864B250F82400D0F8800050F0080063
:105BB000344964B251F82410C1F880000020314902
:105BC00064B251F82410C8644FF6FF702D4964B2D6
:105BD00051F8241088602B4864B250F82400D0F8A3
:105BE000800050F00100274964B251F82410C1F838
:105BF0008000244864B250F82400406D50F0010049
:105C0000204964B251F82410486500201D4964B24F
:105C100051F82410486010BD38B5040064B2012C5E
:105C200007D064B2022C04D04FF44C711248FCF738
:105C300036FB144864B250F8240040680500280080
:105C400000B232BD10B5040064B2012C07D064B2BA
:105C5000022C04D040F23E310748FCF720FB002024
:105C6000084964B251F82410486010BD00000000DB
:105C70003C80044030800440D87E0000F011FF1FBB
:105C8000D811FF1FD00DFF1F80B5002344F62062FE
:105C900000210320FFF7DEFD002344F620620321EC
:105CA0000320FFF7D7FD002344F6206204210320E0
:105CB000FFF7D0FD002344F6206205210320FFF703
:105CC000C9FD01BD38B504000D0040F253308442D7
:105CD00003DB40F25230040004E02248844201DA3F
:105CE0002048040040F25330854203DB40F252303A
:105CF000050004E01B48854201DA1A480500002D22
:105D00000BD415F1500204210320FFF779FE002285
:105D100005210320FFF774FE0AE0D5F150020521AA
:105D20000320FFF76DFE002204210320FFF768FE29
:105D3000002C0BD4002200210320FFF761FE14F198
:105D4000550203210320FFF75BFE0AE00022032136
:105D50000320FFF755FED4F1550200210320FFF781
:105D60004FFE31BDAEFCFFFF10B504004FF40070D4
:105D700094FBF0F101FB1041002903D01E210B48D8
:105D8000FCF78DFA0A48046010BD38B504000D0018
:105D9000074800680749884203D030210348FCF7D0
:105DA0007EFA044864B240F8245031BDF87F000008
:105DB00008ED00E00000FF1F38B504000D00002DC5
:105DC00003D122211748FCF76AFA1748006850F4FB
:105DD000000015490860002014490860681E144935
:105DE00064B222015050124864B210EB0410C06833
:105DF00050F001000E4964B211EB0411C8600C4868
:105E000064B210EB0410806840084000084964B296
:105E100011EB041188600320054964B211EB0411F1
:105E2000886031BD687F00003C8004400070034002
:105E3000007103404FEAF17CBCF1E04C2CBFBCF593
:105E4000001F11E05FEA4C0C34BFBCF17F5F2EE015
:105E50005FEA9C0C4FEA0C1C4FEA3C0CC10071F14C
:105E600000414CEB50707047C90241EA5051C002EA
:105E700018BF41F0010141F000414FEA6C50C0F100
:105E80000900212810D240EACC7CCCF1200C11FA78
