:10000000F8FF002011040000E7230000E7230000B0
:10001000E7230000E7230000E7230000E7230000B8
:10002000E7230000E7230000E7230000E7230000A8
:10003000E7230000E7230000E7230000E723000098
:10004000E7230000E7230000E7230000E723000088
:10040000FFFFFFFFFFFFFFFFFFFFFFFFFEFFFFFFFD
:1004100062B608F03BFBFEE710B500200400E4B232
:10042000082C08DA0022012114F14000C0B201F0CA
:10043000FFFD641CF3E700220121492001F0F8FDD3
:10044000012201214A2001F0F3FD012201214B206C
:1004500001F0EEFD002201214C2001F0E9FD002217
:1004600001214D2001F0E4FD4FF4A071492001F07D
:10047000B1FE4FF4A0714A2001F0ACFE4FF4A07120
:100480004B2001F0A7FE4FF4A0714C2001F0A2FE1A
:100490000020DFF8241D08600120DFF81C1D086023
:1004A0004FF4FA7001F009FF0120DFF8101D086019
:1004B0000020DFF80C1D08600020DFF8081D086030
:1004C0001120DFF8041D08700020DFF8001D08600F
:1004D0000120DFF8F81C08600120DFF8E81C086044
:1004E000782001F0EAFE0120DFF8D01C086000202F
:1004F000DFF8CC1C08600020DFF8C81C0860B120C1
:10050000DFF8C41C08700020DFF8C01C0860012060
:10051000DFF8B81C08600120DFF8A81C0860012083
:10052000DFF8981C08600120DFF8941C08600020A8
:10053000DFF8901C08600520DFF88C1C0870002094
:10054000DFF8881C08600120DFF8801C08600120AB
:10055000DFF8701C08600120DFF8601C08600120D3
:10056000DFF85C1C08600020DFF8581C08603A20A7
:10057000DFF8541C08700020DFF8501C08600120D0
:10058000DFF8481C08600120DFF8381C08600120F3
:10059000DFF8281C08600120DFF8241C0860002018
:1005A000DFF8201C08603A20DFF81C1C08700020CF
:1005B000DFF8181C08600120DFF8101C086001201B
:1005C000DFF8001C08600120DFF8F01B0860002045
:1005D000DFF8EC1B08600020DFF8E81B0860B220A1
:1005E000DFF8E41B08700020DFF8E01B0860012042
:1005F000DFF8D81B08600120DFF8C81B0860012065
:10060000DFF8B81B08600120DFF8B41B0860002089
:10061000DFF8B01B08600520DFF8AC1B0870002075
:10062000DFF8A81B08600120DFF8A01B086001208C
:10063000DFF8901B08600120DFF8801B08600120B4
:10064000DFF87C1B08600020DFF8781B08603A2088
:10065000DFF8741B08700020DFF8701B08600120B1
:10066000DFF8681B08600120DFF8581B08600120D4
:10067000DFF8481B08600120DFF8441B08600020F9
:10068000DFF8401B08603A20DFF83C1B08700020B0
:10069000DFF8381B08600120DFF8301B08600120FC
:1006A000DFF8201B08600120DFF8101B0860002025
:1006B000DFF80C1B08600020DFF8081B0860B3207F
:1006C000DFF8041B08700020DFF8001B0860012021
:1006D000DFF8F81A08600120DFF8E81A0860012046
:1006E000DFF8D81A08600120DFF8D41A086000206B
:1006F000DFF8D01A08600520DFF8CC1A0870002057
:10070000DFF8C81A08600120DFF8C01A086001206D
:10071000DFF8B01A08600120DFF8A01A0860012095
:10072000DFF89C1A08600020DFF8981A08603A2069
:10073000DFF8941A08700020DFF8901A0860012092
:10074000DFF8881A08600120DFF8781A08600120B5
:10075000DFF8681A08600120DFF8641A08600020DA
:10076000DFF8601A08603A20DFF85C1A0870002091
:10077000DFF8581A08600120DFF8501A08600120DD
:10078000DFF8401A08600120DFF8301A0860012005
:10079000DFF82C1A08600020DFF8281A086005200E
:1007A000DFF8241A08700020DFF8201A0860012002
:1007B000DFF8181A08600120DFF8081A0860012025
:1007C000DFF8F81908600120DFF8F419086000204C
:1007D000DFF8F01908603A20DFF8EC190870002003
:1007E000DFF8E81908600120DFF8E019086001204F
:1007F000DFF8D01908600120DFF8C0190860012077
:10080000DFF8BC1908600020DFF8B81908603A204A
:10081000DFF8B41908700020DFF8B0190860012073
:10082000DFF8A81908600120DFF898190860012096
:10083000DFF8881908600020DFF8841908600020BC
:10084000DFF880190860B420DFF87C1908700020F8
:10085000DFF8781908600120DFF8701908600120BE
:10086000DFF8601908600120DFF8501908600120E6
:10087000DFF84C1908600020DFF8481908600720ED
:10088000DFF8441908700020DFF8401908600120E3
:10089000DFF8381908600120DFF828190860012006
:1008A000DFF8181908600020DFF81419086000202C
:1008B000DFF810190860C020DFF80C19087000205C
:1008C000DFF8081908600120DFF80019086001202E
:1008D000DFF8F01808600120DFF8E0180860012058
:1008E000DFF8DC1808600020DFF8D818086028203E
:1008F000DFF8D41808700020DFF8D0180860012055
:10090000DFF8C81808600120DFF8B8180860012077
:10091000DFF8A81808600120DFF8A418086000209C
:10092000DFF8A01808600820DFF89C180870002085
:10093000DFF8981808600120DFF89018086001209F
:10094000DFF8801808600120DFF8701808600120C7
:10095000DFF86C1808600020DFF868180860842051
:10096000DFF8641808700020DFF8601808600120C4
:10097000DFF8581808600120DFF8481808600120E7
:10098000DFF8381808600020DFF83418086000200D
:10099000DFF830180860C120DFF82C18087000203C
:1009A000DFF8281808600120DFF82018086001200F
:1009B000DFF8101808600120DFF800180860012037
:1009C000DFF8FC1708600020DFF8F8170860C02087
:1009D000DFF8F41708700020DFF8F0170860012036
:1009E000DFF8E81708600120DFF8D8170860012059
:1009F000DFF8C81708600020DFF8C417086000207F
:100A0000DFF8C0170860C220DFF8BC1708700020AC
:100A1000DFF8B81708600120DFF8B0170860012080
:100A2000DFF8A01708600120DFF8901708600120A8
:100A3000DFF88C1708600020DFF8881708600C20AA
:100A4000DFF8841708700020DFF8801708600120A5
:100A5000DFF8781708600120DFF8681708600120C8
:100A6000DFF8581708600120DFF8541708600020ED
:100A7000DFF8501708600020DFF84C1708700020DE
:100A8000DFF8481708600120DFF8401708600120F0
:100A9000DFF8301708600120DFF820170860002019
:100AA000DFF81C1708600020DFF818170860C32063
:100AB000DFF8141708700020DFF810170860012015
:100AC000DFF8081708600120DFF8F8160860012039
:100AD000DFF8E81608600120DFF8E416086000205F
:100AE000DFF8E01608608C20DFF8DC1608700020C4
:100AF000DFF8D81608600120DFF8D0160860012062
:100B0000DFF8C01608600120DFF8B0160860012089
:100B1000DFF8AC1608600020DFF8A81608602A206D
:100B2000DFF8A41608700020DFF8A0160860012086
:100B3000DFF8981608600120DFF8881608600120A9
:100B4000DFF8781608600020DFF8741608600020CF
:100B5000DFF870160860C420DFF86C1608700020FB
:100B6000DFF8681608600120DFF8601608600120D1
:100B7000DFF8501608600120DFF8401608600120F9
:100B8000DFF83C1608600020DFF8381608608A207D
:100B9000DFF8341608700020DFF8301608600120F6
:100BA000DFF8281608600120DFF818160860012019
:100BB000DFF8081608600120DFF80416086000203E
:100BC000DFF800160860EE20DFF8FC150870002042
:100BD000DFF8F81508600120DFF8F0150860012043
:100BE000DFF8E01508600120DFF8D015086000206C
:100BF000DFF8CC1508600020DFF8C8150860C520B4
:100C0000DFF8C41508700020DFF8C0150860012067
:100C1000DFF8B81508600120DFF8A815086001208A
:100C2000DFF8981508600120DFF8941508600020AF
:100C3000DFF8901508600C20DFF88C150870002094
:100C4000DFF8881508600120DFF8801508600120B2
:100C5000DFF8701508600120DFF8601508600020DB
:100C6000DFF85C1508600020DFF858150860E02008
:100C7000DFF8541508700020DFF8501508600120D7
:100C8000DFF8481508600120DFF8381508600120FA
:100C9000DFF8281508600120DFF82415086000201F
:100CA000DFF8201508600520DFF81C15087000200B
:100CB000DFF8181508600120DFF810150860012022
:100CC000DFF8001508600120DFF8F014086001204B
:100CD000DFF8EC1408600020DFF8E81408601A2040
:100CE000DFF8E41408700020DFF8E0140860012049
:100CF000DFF8D81408600120DFF8C814086001206C
:100D0000DFF8B81408600120DFF8B4140860002090
:100D1000DFF8B01408600C20DFF8AC140870002075
:100D2000DFF8A81408600120DFF8A0140860012093
:100D3000DFF8901408600120DFF8801408600120BB
:100D4000DFF87C1408600020DFF8781408600E20BB
:100D5000DFF8741408700020DFF8701408600120B8
:100D6000DFF8681408600120DFF8581408600120DB
:100D7000DFF8481408600120DFF844140860002000
:100D8000DFF8401408603A20DFF83C1408700020B7
:100D9000DFF8381408600120DFF830140860012003
:100DA000DFF8201408600120DFF81014086001202B
:100DB000DFF80C1408600020DFF808140860342005
:100DC000DFF8041408700020DFF800140860012028
:100DD000DFF8F81308600120DFF8E813086001204D
:100DE000DFF8D81308600120DFF8D4130860002072
:100DF000DFF8D01308602D20DFF8CC130870002036
:100E0000DFF8C81308600120DFF8C0130860012074
:100E1000DFF8B01308600120DFF8A013086001209C
:100E2000DFF89C1308600020DFF8981308602F207B
:100E3000DFF8941308700020DFF890130860012099
:100E4000DFF8881308600120DFF8781308600120BC
:100E5000DFF8681308600120DFF8641308600020E1
:100E6000DFF8601308602D20DFF85C1308700020A5
:100E7000DFF8581308600120DFF8501308600120E4
:100E8000DFF8401308600120DFF83013086001200C
:100E9000DFF82C1308600020DFF8281308602A20F0
:100EA000DFF8241308700020DFF820130860012009
:100EB000DFF8181308600120DFF80813086001202C
:100EC000DFF8F81208600120DFF8F4120860002053
:100ED000DFF8F01208602F20BB4908700020BB49E2
:100EE00008600120B94908600120B6490860012066
:100EF000B24908600120B24908600020B149086089
:100F00003C20B14908700020B04908600120AF4979
:100F100008600120AB4908600120A8490860012051
:100F2000A74908600020A74908600020A64908706A
:100F30000020A64908600120A44908600120A149B9
:100F4000086001209D49086001209D49086000203B
:100F50009C49086001209C49087000209B4908605A
:100F600001209A49086001209649086001209349B0
:100F70000860012092490860002092490860022020
:100F80009149087000209149086001208F4908604C
:100F900001208C49086001208849086001208849A7
:100FA00008600020874908601020874908700020E9
:100FB0008649086001208549086001208149086050
:100FC00001207E49086000207D49086000207D499D
:100FD0000860E1207C49087000207C4908600120FD
:100FE0007A49086001207749086001207349086048
:100FF000012073490860002072490860042072498A
:1010000008700020714908600120704908600120C3
:101010006C4908600120694908600120684908603E
:101020000020684908601B20674908700020674954
:1010300008600120654908600120624908600120BC
:101040005E49086001205E49086000205D49086033
:101050000D205D49087000205C49086001205B4953
:1010600008600120574908600120544908600120A8
:10107000534908600020534908600E205249087007
:1010800000205249086001205049086001204D4964
:101090000860012049490860012049490860002092
:1010A000484908602D2048490870002047490860D9
:1010B00001204649086001204249086001203F495B
:1010C000086001203E49086000203E490860292050
:1010D0003D49087000203D49086001203B490860F7
:1010E0000120384908600120344908600120344952
:1010F000086000203349086024203349087000202C
:101100003249086001203149086001202D490860FA
:1011100001202A4908600120294908600020294946
:10112000086029202849087000202849086001200B
:101130002649086001202349086001201F490860F2
:1011400001201F49086000201E49086028201E4910
:10115000087000201D49086001201C49086001201A
:1011600018490860012015490860012014490860E9
:1011700000201449086026201349087000201349F4
:10118000086001201149086001200E490860012013
:101190000A49086001200A490860002009490860DE
:1011A00031200949087000200849086001200749DA
:1011B0000860012003490BE03410FE432810FE4371
:1011C0003010FE432C10FE4380F00F402410FE43ED
:1011D00008600120DFF80C1C08600120DFF8081C03
:1011E00008600020DFF8041C08603B20DFF8001CCA
:1011F00008700020DFF8FC1B08600120DFF8F41BFA
:1012000008600120DFF8E41B08600120DFF8D41B30
:1012100008600120DFF8D01B08600020DFF8CC1B3D
:1012200008600020DFF8C81B08700020DFF8C41B2E
:1012300008600120DFF8BC1B08600120DFF8AC1B50
:1012400008600120DFF89C1B08600120DFF8981B74
:1012500008600020DFF8941B08600020DFF8901B76
:1012600008700020DFF88C1B08600120DFF8841B69
:1012700008600120DFF8741B08600120DFF8641BA0
:1012800008600120DFF8601B08600020DFF85C1BAD
:1012900008600320DFF8581B08700020DFF8541B9B
:1012A00008600120DFF84C1B08600120DFF83C1BC0
:1012B00008600120DFF82C1B08600120DFF8281BE4
:1012C00008600020DFF8241B08601220DFF8201BD4
:1012D00008700020DFF81C1B08600120DFF8141BD9
:1012E00008600120DFF8041B08600120DFF8F41A11
:1012F00008600020DFF8F01A08600020DFF8EC1A20
:1013000008603A20DFF8E81A08700020DFF8E41AD5
:1013100008600120DFF8DC1A08600120DFF8CC1A31
:1013200008600120DFF8BC1A08600120DFF8B81A55
:1013300008600020DFF8B41A08600520DFF8B01A52
:1013400008700020DFF8AC1A08600120DFF8A41A4A
:1013500008600120DFF8941A08600120DFF8841A81
:1013600008600020DFF8801A08600020DFF87C1A8F
:1013700008602920DFF8781A08700020DFF8741A56
:1013800008600120DFF86C1A08600120DFF85C1AA1
:1013900008600120DFF84C1A08600020DFF8481AC6
:1013A00008600020DFF8441A08602C20DFF8401A9B
:1013B00008700020DFF83C1A08600120DFF8341ABA
:1013C00008600120DFF8241A0860DFF8400C00787C
:1013D00000F001F810BD10B50400E4B2042C04DBE9
:1013E000C821DFF82C0C00F094FFDFF8200C04700B
:1013F000E4B2002C09D0022C00F0B982C0F05E816A
:10140000032C00F0EA8300F0EBBC0120DFF8D419D4
:1014100008600020DFF8D01908600020DFF8CC1940
:1014200008603620DFF8C81908700020DFF8C419FA
:1014300008600120DFF8BC1908600120DFF8AC1952
:1014400008600120DFF89C1908600120DFF8981976
:1014500008600020DFF894190860C820DFF89019B0
:1014600008700020DFF88C1908600120DFF884196B
:1014700008600120DFF8741908600120DFF86419A2
:1014800008600020DFF8601908600020DFF85C19B0
:1014900008602A20DFF8581908700020DFF8541976
:1014A00008600120DFF84C1908600120DFF83C19C2
:1014B00008600120DFF82C1908600120DFF82819E6
:1014C00008600020DFF8241908600020DFF82019E8
:1014D00008700020DFF81C1908600120DFF81419DB
:1014E00008600120DFF8041908600120DFF8F41813
:1014F00008600120DFF8F01808600020DFF8EC1821
:1015000008600020DFF8E81808700020DFF8E41811
:1015100008600120DFF8DC1808600120DFF8CC1833
:1015200008600120DFF8BC1808600120DFF8B81857
:1015300008600020DFF8B41808600020DFF8B01859
:1015400008700020DFF8AC1808600120DFF8A4184C
:1015500008600120DFF8941808600120DFF8841883
:1015600008600120DFF8801808600020DFF87C1890
:1015700008608020DFF8781808700020DFF8741801
:1015800008600120DFF86C1808600120DFF85C18A3
:1015900008600120DFF84C1808600020DFF84818C8
:1015A00008600020DFF8441808602B20DFF840189E
:1015B00008700020DFF83C1808600120DFF83418BC
:1015C00008600120DFF8241808600120DFF81418F3
:1015D00008600120DFF8101808600020DFF80C1800
:1015E00008600020DFF8081808700020DFF80418F1
:1015F00008600120DFF8FC1708600120DFF8EC1715
:1016000008600120DFF8DC1708600120DFF8D81738
:1016100008600020DFF8D41708603220DFF8D01708
:1016200008700020DFF8CC1708600120DFF8C4172D
:1016300008600120DFF8B41708600120DFF8A41764
:1016400008600120DFF8A01708600020DFF89C1771
:1016500008600020DFF8981708700020DFF8941762
:1016600008600120DFF88C1708600120DFF87C1784
:1016700008600120DFF86C1708600120DFF86817A8
:1016800008600020DFF864170860B220DFF86017F8
:1016900008700020DFF85C1708600120DFF854179D
:1016A00008600120DFF8441708608020DFF8641923
:1016B00008808020DFF86019088091E30120DFF8BE
:1016C000241708600020DFF8201708600020DFF8EA
:1016D0001C1708603620DFF8181708700020DFF8A4
:1016E000141708600120DFF80C1708600120DFF8EC
:1016F000FC1608600120DFF8EC1608600120DFF816
:10170000E81608600020DFF8E4160860A820DFF87B
:10171000E01608700020DFF8DC1608600120DFF812
:10172000D41608600120DFF8C41608600120DFF835
:10173000B41608600020DFF8B01608600020DFF85B
:10174000AC1608602A20DFF8A81608700020DFF821
:10175000A41608600120DFF89C1608600120DFF85D
:101760008C1608600120DFF87C1608600120DFF885
:10177000781608600020DFF8741608600020DFF893
:10178000701608700020DFF86C1608600120DFF882
:10179000641608600120DFF8541608600120DFF8A5
:1017A000441608600120DFF8401608600020DFF8CA
:1017B0003C1608600320DFF8381608700020DFF8B8
:1017C000341608600120DFF82C1608600120DFF8CD
:1017D0001C1608600120DFF80C1608600120DFF8F5
:1017E000081608600020DFF8041608600020DFF803
:1017F000001608700020DFF8FC1508600120DFF8F3
:10180000F41508600120DFF8E41508600120DFF816
:10181000D41508600120DFF8D01508600020DFF83B
:10182000CC1508608220DFF8C81508700020DFF8AA
:10183000C41508600120DFF8BC1508600120DFF83E
:10184000AC1508600120DFF89C1508600020DFF867
:10185000981508600020DFF8941508602B20DFF849
:10186000901508700020DFF88C1508600120DFF863
:10187000841508600120DFF8741508600120DFF886
:10188000641508600120DFF8601508600020DFF8AB
:101890005C1508600020DFF8581508700020DFF89C
:1018A000541508600120DFF84C1508600120DFF8AE
:1018B0003C1508600120DFF82C1508600120DFF8D6
:1018C000281508600020DFF8241508600220DFF8E2
:1018D000201508700020DFF81C1508600120DFF8D3
:1018E000141508600120DFF8041508600120DFF8F6
:1018F000F41408600120DFF8F01408600020DFF81D
:10190000EC1408600020DFF8E81408700020DFF80D
:10191000E41408600120DFF8DC1408600120DFF81F
:10192000CC1408600120DFF8BC1408600120DFF847
:10193000B81408600020DFF8B41408608120DFF8D4
:10194000B01408700020DFF8AC1408600120DFF844
:10195000A41408600120DFF8941408608020DFF8E8
:10196000B41608808020DFF8B016088038E2012025
:10197000DFF8701408600020DFF86C1408600020A5
:10198000DFF8681408603620DFF86414087000205F
:10199000DFF8601408600120DFF8581408600120A7
:1019A000DFF8481408600120DFF8381408600120CF
:1019B000DFF8341408600020DFF8301408600820D5
:1019C000DFF82C1408700020DFF8281408600120CC
:1019D000DFF8201408600120DFF8101408600120EF
:1019E000DFF8001408600020DFF8FC130860002016
:1019F000DFF8F81308602A20DFF8F41308700020DD
:101A0000DFF8F01308600120DFF8E8130860012018
:101A1000DFF8D81308600120DFF8C8130860012040
:101A2000DFF8C41308600020DFF8C013086000204E
:101A3000DFF8BC1308700020DFF8B813086001203D
:101A4000DFF8B01308600120DFF8A0130860012060
:101A5000DFF8901308600120DFF88C130860002085
:101A6000DFF8881308600220DFF884130870002074
:101A7000DFF8801308600120DFF878130860012088
:101A8000DFF8681308600120DFF8581308600120B0
:101A9000DFF8541308600020DFF8501308600020BE
:101AA000DFF84C1308700020DFF8481308600120AD
:101AB000DFF8401308600120DFF8301308600120D0
:101AC000DFF8201308600120DFF81C1308600020F5
:101AD000DFF8181308608120DFF814130870002065
:101AE000DFF8101308600120DFF8081308600120F8
:101AF000DFF8F81208600120BA4908600020BA49EE
:101B000008600020B94908602B20B94908700020FE
:101B1000B84908600120B74908600120B34908604E
:101B20000120B04908600120AF4908600020AF499A
:101B300008600020AE4908700020AE49086001200E
:101B4000AC4908600120A94908600120A549086046
:101B50000120A54908600020A44908600320A44989
:101B600008700020A34908600120A24908600120F4
:101B70009E49086001209B49086001209A4908603D
:101B800000209A490860002099490870002099496E
:101B900008600120974908600120944908600120ED
:101BA0009049086001209049086000208F49086032
:101BB00082208F49087000208E49086001208D49DD
:101BC00008600120894908608020DFF848140880F7
:101BD0008020DFF84414088002E101208149086078
:101BE0000020814908600020804908603620804933
:101BF000087000207F49086001207E4908600120AC
:101C00007A49086001207749086001207649086018
:101C100000207649086068207549087000207549E1
:101C200008600120734908600120704908600120A4
:101C30006C49086000206C49086000206B4908600E
:101C40002A206B49087000206A4908600120694910
:101C50000860012065490860012062490860012090
:101C600061490860002061490860002060490870EF
:101C700000206049086001205E49086001205B493E
:101C8000086001205749086001205749086000207A
:101C900056490860032056490870002055490860DD
:101CA00001205449086001205049086001204D4935
:101CB000086001204C49086000204C490860002061
:101CC0004B49087000204B490860012049490860D1
:101CD000012046490860012042490860012042492C
:101CE00008600020414908608220414908700020B6
:101CF0004049086001203F49086001203B490860D5
:101D00000120384908600020374908600020374921
:101D100008602B20364908700020364908600120F1
:101D20003449086001203149086001202D490860CC
:101D300001202D49086000202C49086000202C4912
:101D4000087000202B49086001202A490860012002
:101D500026490860012023490860012022490860C3
:101D600000202249086000202149087000202149F4
:101D7000086001201F49086001201C4908600120FB
:101D800018490860012018490860002017490860B8
:101D900000201749087000201649086001201549E5
:101DA000086001201149086001200E4908600120E7
:101DB0000D49086000200D49086080200C4908701A
:101DC00000200C49086001200A49086001200749E9
:101DD000086080208F49088080208F490880FFE7B5
:101DE00010BD00002810FE433010FE432C10FE43AF
:101DF00080F00F402410FE4303B484480078C007ED
:101E000005D5BDF800002030ADF8000004E0BDF8B5
:101E100002002030ADF80200012080490860002057
:101E20007F49086000207F4908602A207E490870A9
:101E300000207E49086001207C4908600120794922
:101E4000086001207549086001207549086000207C
:101E500074490860BDF8000080B2000A7249087039
:101E600000207249086001207049086001206D4916
:101E70000860012069490860012069490860002064
:101E800068490860BDF8000067490870002067498C
:101E9000086001206549086001206249086001204E
:101EA0005E49086001205E49086000205D490860C5
:101EB000BDF80000BDF8041011FA80F0401E0012B9
:101EC00059490870002059490860012057490860A5
:101ED0000120544908600120504908600120504900
:101EE000086000204F490860BDF80000BDF80410EC
:101EF0000818401E4C49087000204C490860012019
:101F00004A490860012047490860012043490860A8
:101F10000020434908600020424908602B204249C4
:101F200008700020414908600120404908600120F4
:101F30003C4908600120394908600120384908609F
:101F4000002038490860BDF8020080B2000A364916
:101F500008700020354908600120344908600120DC
:101F60003049086001202D49086001202C49086093
:101F700000202C490860BDF802002B4908700020A1
:101F80002A49086001202949086001202549086084
:101F900001202249086001202149086000202149D0
:101FA0000860BDF80200BDF8061011FA80F0401E6E
:101FB00000121D49087000201C49086001201B49BF
:101FC00008600120174908600120144908600120B9
:101FD00013490860002013490860BDF80200BDF8ED
:101FE00006100818401E1049087000200F490860AC
:101FF00001200E49086001200A49086002B07047BC
:10200000044800887047044800887047A519FF1FDE
:102010000C8C0000A40EFF1FA60EFF1F2810FE430D
:102020003010FE432C10FE4380F00F402410FE437E
:1020300070B504000D0016004FF480712000C0B28E
:1020400000F0C8F86DB2002D11D16048E4B2611102
:1020500050F821005D49E4B2621151F8221049693B
:10206000012214F01F039A409143416136E0574822
:10207000E4B2611150F821005449E4B2621151F800
:1020800022104969012214F01F039A401143416153
:10209000F6B2002E11D14D48E4B2611150F8210082
:1020A0000068012114F01F02914088434749E4B2BF
:1020B000621151F82210086010E04448E4B2611146
:1020C00050F821000068012114F01F0291400843DC
:1020D0003E49E4B2621151F82210086070BD38B573
:1020E00004000D003948E4B2611150F82100406944
:1020F00014F01F010200CA40D00703D46321344802
:1021000000F007F9EDB2002D11D13048E4B26111B1
:1021100050F821000068012114F01F02914088430B
:102120002A49E4B2621151F82210086010E02748F1
:10213000E4B2611150F821000068012114F01F027F
:10214000914008432149E4B2621151F8221008601D
:1021500031BD10B504001D48E4B2611150F82100F2
:10216000406914F01F010200CA40D00703D47B214C
:10217000174800F0CEF81548E4B2611150F821007C
:10218000012114F01F029140C16010BD10B5040080
:102190000E48E4B2611150F82100406914F01F01AB
:1021A0000200CA40D00703D58C21094800F0B1F8DD
:1021B0000648E4B2611150F82100006914F01F01D3
:1021C0000200CA4012F0010010BD0000000EFF1F07
:1021D000A48D000010B4294A12684FF40073C0B2F5
:1021E0004409A3401A43254B1A60254AC0B2431143
:1021F00052F82320012310F01F04A340C2F8A0309E
:102200001F4AC0B2431152F82320C0B210F01F037E
:1022100042F8231010BC704710B4184A12684FF4EB
:102220000073C0B24409A3401A43144B1A60144A05
:10223000C0B2431152F82320012310F01F04A34021
:10224000C2F8A03031F4E0610D4AC0B2431152F837
:102250002320C0B210F01F0352F8232012F4E062D2
:102260001143074AC0B2431152F82320C0B210F004
:102270001F0342F8231010BC704700003880044050
:10228000700EFF1F10B50400002C15D0B4F1807F34
:1022900003D329210F4800F03CF800200E490860C4
:1022A0000E48046000200E49086005200A490860B5
:1022B00009480068C003FBD510BD10B5040020001C
:1022C000441E002804D007480068FFF7DBFFF6E74C
:1022D00010BD0000888C000010E000E014E000E079
:1022E00018E000E03C19FF1FDFF800F0890FFF1F26
:1022F000DFF800F0AD0FFF1FBFF34F8F46480068B7
:1023000010F4E0604549084343490860BFF34F8F2C
:10231000FEE738B504000D00002000F08DF82A001B
:1023200021003F4800F0C0F8002000F0A2F84FF470
:102330007A70FFF7C2FFF2E738B504000D00210004
:1023400049B2042000F0CCF9200032BD10B50024C1
:10235000042000F0F1F9042000F024FA002841D113
:10236000002000F069F8042000F01CFA012801D1D7
:1023700001200400002000F07CF82A4800F094F8C6
:102380004FF4FA70FFF799FFE4B2012CEBD104206F
:1023900000F008FA0028E6D1042000F003FA002833
:1023A00006D1002000F065F86420FFF786FFF3E710
:1023B000042000F0F7F9012806D1002000F059F8B8
:1023C0003220FFF77AFFF3E7174800F06DF8FFF7C8
:1023D0008BFF6420FFF771FF0020FFF789FFFFF7F5
:1023E0008BFFC0E710BD10B510480468012000F055
:1023F00023F8012000F03DF80D48E4B20F2101FB65
:102400000402E4B221000B4800F04EF84FF47A7059
:10241000FFF753FFEDE700000CED00E00400FA05C4
:10242000A88E000018900000488F000004ED00E026
:10243000E806FF1F4C8C000010B5040064B2042CA9
:1024400007DA01220121174864B2205CFFF7F0FD92
:102450000EE0042004002000441E40B2002807D0F3
:10246000012201210F4864B2205CFFF7E1FDF2E791
:1024700010BD10B5040064B2042C05DA094864B23A
:10248000205CFFF766FE0CE0042004002000441EE0
:1024900040B2002805D0034864B2205CFFF759FE23
:1024A000F4E710BDA80EFF1F0EB400B582B003A95B
:1024B0000091024600AB0121034878440A3000F045
:1024C00089F906BC5DF810FB2D6B00002DE9F8437F
:1024D00004000D0064B2002C08D0022C2CD018D3BC
:1024E000042C4FD03BD3052C5FD071E0DFF83002D5
:1024F000006850F48060DFF8281208604FF44071E3
:102500006620FFF767FE4FF440716720FFF762FE19
:102510005EE0DFF80C02006850F40060DFF80012A3
:1025200008604FF440714320FFF754FE4FF44071B0
:102530004420FFF74FFE4BE0DFF8E401006850F461
:102540008050DFF8DC1108604FF440716320FFF722
:1025500041FE4FF440716220FFF73CFE38E0DFF8A7
:10256000C001006850F40050DFF8B41108604FF467
:1025700040715020FFF72EFE4FF440715120FFF7BD
:1025800029FE25E0DFF89C01006850F48060DFF848
:10259000941108604FF440714E20FFF71BFE4FF47A
:1025A00040714F20FFF716FE12E0DFF87801006857
:1025B00050F40060DFF86C1108604FF4407189201E
:1025C000FFF708FE4FF440718820FFF703FEFFE796
:1025D000DFF8540164B250F82400C07810F0F30022
:1025E000DFF8441164B251F82410C870DFF83801E4
:1025F00064B250F824008078DFF82C1164B251F8EE
:102600002410887064B2002C02D064B2012C07D16F
:10261000DFF8180100684FF47A714843814606E0FC
:10262000DFF80C0100684FF47A71484381462801B5
:10263000B9FBF0F00600B6B2B6F5005F02DB41F67A
:10264000FF700600B9FBF5F0B6B2B0EB061007005C
:10265000BFB2202F03DBDC213648FFF75AFE324899
:1026600064B250F82400007810F0E0008046C6F311
:10267000042050EA08002C4964B251F82410087074
:10268000294864B250F824004670274864B250F8D4
:102690002400807A10F0E000804617F01F0050EA16
:1026A0000800214964B251F8241088721E4864B2AF
:1026B00050F82400007C50F088001B4964B251F8A7
:1026C00024100874184864B250F82400C07850F000
:1026D0000C00154964B251F82410C870BDE8F183AC
:1026E000114A40B252F8202012791206F8D50E4A4B
:1026F00040B252F82020D171704770B504000D002F
:1027000016003000461E002808D095F9001049B286
:10271000200040B2FFF7E4FF6D1CF2E770BD00003F
:102720003480044028800440840EFF1F3C19FF1FA2
:102730004419FF1F148E000010B5040064B2082C69
:102740000DDA00220021224864B2205CFFF770FC01
:1027500003211F4864B2205CFFF75EFD14E00820EF
:1027600004002000441E40B200280DD000220021A9
:10277000174864B2205CFFF75BFC0321144864B285
:10278000205CFFF749FDECE710BD10B504001048D0
:1027900064B2205CFFF7FAFC002801D1002000E0C1
:1027A000012010BD10B50400200040B2FFF7EDFF7E
:1027B00000280AD10A20FFF780FD200040B2FFF771
:1027C000E4FF002801D1002000E0012010BD00003E
:1027D0009C0EFF1F2DE9F04FA1B082460020174646
:1027E0001D4602910B900DF1440B6FF000490AE079
:1027F00017F8011B0298D0470290002800F0A2822F
:102800000B98401C0B90387808B90B989CE225284F
:10281000EED10020059006900790089009900A904C
:1028200001E040F0010017F8011F2029F9D0232909
:102830000DD02B2904D02D2906D030290AD00CE048
:1028400040F0020080B2EEE740F00400FAE740F00A
:102850000800F7E740F01000F4E72A290ED12968B4
:10286000296051F8042B2960002A0D9204D55142A9
:1028700040F004000D9180B27F1C11E000210D9109
:1028800009E00D99494505D001EB810302EB4301B5
:1028900030390D917F1C3A78A2F130010A29F0D32A
:1028A00039782E2903D04FF0FF310C911DE017F835
:1028B000011F2A2907D1296829607F1C51F8042BA0
:1028C00029600C9211E000210C9109E00C99494516
:1028D00005D001EB810302EB430130390C917F1CE1
:1028E0003A78A2F130010A29F0D3ADF838000FF69A
:1028F000B820397800F076FD08B117F8010B8DF893
:102900003A009DF83A00682802BF397868296220A9
:1029100005D06C2804BF38786C2803D171208DF85D
:102920003A007F1C11A8049017F8014BB4F1250060
:1029300024D02038022840F2C580133800F0EB8004
:102940000B3800F04F81401E00F02481401E022809
:1029500040F2B880001F00F01D81401F00F083800E
:10296000401E00F0D880401E29D0C01E0CD0801E12
:1029700000F0D180C01E00F0CE803DE10120059026
:1029800025208DF8440043E12868286050F8044B66
:1029900028600394DDF83080B8F1000F04D520469C
:1029A00000F02CFD804607E042460021204600F062
:1029B00041FD08B1A0EB0408CDF8188028E1296892
:1029C00029604FF03C0851F8040B29600021CDE943
:1029D000000111A80390DDE90001049C11B908B9B8
:1029E0000C9AC2B10206120FA0EB02123032D2B220
:1029F0003A2AA8BF27320009A8F1010340EA017072
:102A000009091A5508BF0028984604D0039A08EB14
:102A100004039A42E6D308EB04000390C8F13C019A
:102A20000C980691814209DA401A08904FF6EF712E
:102A3000BDF838000840ADF83800E9E0002840F162
:102A4000E7809DF8380000F01400102840F0E08086
:102A50000D98059A801A089A801A401A0128C0F227
:102A6000D7800890D4E09DF83A0062281AD06828F0
:102A700006D06A280CD06C281CD0712808D019E028
:102A80002868286050F8041B28600B980880BFE075
:102A90002868286050F8042B28600B98C117C2E9F9
:102AA0000001B5E02868286050F8041B28600B98E6
:102AB0000870ADE02868286050F8041B28600B9867
:102AC0000860A5E02868C01D20F007022A60D2E94E
:102AD000000108322A60CDE90001002903D5012058
:102AE00005902D200CE0BDF83800810703D50120AA
:102AF00005902B2004E0C00704D50120059020207C
:102B00008DF84400059911A808180390214600A8E3
:102B100000F0D8F97CE09DF83A206C2A0DD0712A9B
:102B200018BF6A2A09D12868C01D20F007032B604E
:102B3000D3E9000108332B6005E02968296051F8CA
:102B4000040B29600021CDE90001682A08BF80B28A
:102B500007D0622A08BFC0B203D0742A18BF7A2AED
:102B600002D10021CDE900019DF83800000730D5E1
:102B7000DDE90001002908BF00282AD044F0200028
:102B8000782826D130208DF844008BF801400220AF
:102B900005901EE09DF83A00294600F0D8F8CDE9EE
:102BA0000001002904DA0598411C05912D210EE051
:102BB000BDF83800810704D50598411C05912B21EB
:102BC00005E0C00705D50598411C0591202100F8B6
:102BD0000B10059911A808180390214600A800F0D1
:102BE000EDF815E0012005902868286050F8041BD6
:102BF00028608DF844100BE0012005902520002C62
:102C00008DF8440004D00598411C059100F80B4054
:102C10000D980599401A0899401A0699401A099981
:102C2000401A0799401A0A99A0EB01089DF838004C
:102C300040070FD420208DF84000002408E0012335
:102C400010AA00A9504600F098FB00287AD1641C15
:102C50004445F4DB059C11AE0AE016F8011B02980E
:102C6000D047029000286DD00B98401C0B90641E3A
:102C7000002CF2D130208DF840000026089C08E09E
:102C8000012310AA00A9504600F077FB002859D173
:102C9000761CA642F4DB069C039E0AE016F8011B94
:102CA0000298D047029000284CD00B98401C0B9003
:102CB000641E002CF2D130208DF840000026099CC3
:102CC00007E0012310AA00A9504600F056FBC8BB3C
:102CD000761CA642F5DB03980699079C0E1809E0BE
:102CE00016F8011B0298D047029058B30B98401C6D
:102CF0000B90641E002CF3D130208DF8400000268C
:102D00000A9C07E0012310AA00A9504600F035FBF9
:102D1000C0B9761CA642F5DB9DF8380040077FF568
:102D200072AD20208DF84000002400E0641C444572
:102D3000BFF669AD012310AA00A9504600F01DFBA3
:102D40000028F3D04FF0FF3021B0BDE8F08F6228AB
:102D500026D068281DD06A2808D06C2827D0712872
:102D600004D0742823D07A280CD020E00868C01D35
:102D700020F007000860D0E90023083008601946F9
:102D8000104670470A680A6052F8040B0A60002176
:102D900070470A680A6052F8040B0A6000B20BE040
:102DA0000A680A6052F8040B0A6040B204E00A683C
:102DB0000A6052F8040B0A60C11770472DE9FA4EF9
:102DC00005460A462F696F2A08BF082405D041F03E
:102DD0002000782814BF0A2410243C26D5E90001DD
:102DE000642A18BF692A81468A4605D1002903DA78
:102DF000D9F100096AEB4A0ABAF1000F08BFB9F12C
:102E0000000F0CD1286B50B9082C36D195F838003A
:102E1000000732D530203B2687F83B002DE0E31732
:102E200048465146224600F031FBA4FB0023A9EBA3
:102E300002023032D2B2A6F1010B3A2A5E4603DB1F
:102E40009DF80030513B9A1881465FEA010A0BF861
:102E5000072008BFB9F1000F03D0E868F1198842D4
:102E6000DDD3082C09D195F83800000705D5F05DB1
:102E7000302802D0761E3020F055C6F13C00A86103
:102E8000F119E960296B884208DA081A28624FF6BE
:102E9000EF71288F08402887BDE8F38E00290ED5F2
:102EA00095F8381001F01401102908D1696B6A698E
:102EB000891A2A6A891A081A0128A8BF2862BDE857
:102EC000F38E00002DE9F34F8BB0D0E90089006B41
:102ED000002801AF48BF062005D404BF41F0200000
:102EE000672802D101200B99086340F2FF720B980A
:102EF0004168C1F30A50904220D1080302BF0B98E9
:102F0000006800280AD10B99032088619DF83000E1
:102F100061381A2858D30FF2A44109E00B99032015
:102F200088619DF8300061381A284AD30FF2844135
:102F30000B98C068032200F021FB00E1012807DAAA
:102F40000B9800F056FB012802DB00230026EDE081
:102F50000B9ADFF854B1526840F2FE3161F31E5211
:102F60000B994A6040F2FE31461A4046494600221B
:102F7000002300F05FFB38BF89F0004936B247F20A
:102F800097507043494990FBF1F636B2C6F10707F6
:102F9000012F92461BDBF80707D552465B46404699
:102FA000494600F05FFB804689467F1050465946EF
:102FB00052465B4600F056FB002F82468B46EAD114
:102FC00026E00FF2EC31B3E70FF2EC31B0E77F42CD
:102FD0000024374D12E0F80707D552465B462046DD
:102FE000294600F03FFB04460D467F1050465946E7
:102FF00052465B4600F036FB82468B46002FEAD1F4
:103000004046494622462B4600F0FEFB8046894654
:103010009DF830000B99DFF89CB0096B40F020055B
:10302000662D0CBF06F10A0006204718142FA8BF12
:10303000132730208DF804000DF10504012F3BDB30
:103040004046494600F01AFD014604F108020423F7
:103050004FF00A0CB1FBFCFC0CEB8C04A1EB44011F
:10306000303102F8011D0A21BCFBF1FE0EEB8E048B
:10307000ACEB440430345B1E714602F8014DE7D1DD
:10308000083F012F02F10804D8DB00F017FD0246CB
:103090000B464046494600F01FFD00225B4600F00B
:1030A000E1FA80468946CBE700002440A086010073
:1030B0000000F03F84D797410DF10500201A0DF173
:1030C000050702E0401E761E7F1C39783029F9D0B2
:1030D000662D02D136B2711C03E0652D0CBF0121B3
:1030E00000210B9A126B8B181BB29842B8BF034693
:1030F0001BB219001AD4814204DAC85D3528A8BF72
:10310000392000DA3020CA19521E00E05B1E12F886
:103110000159491E8542F9D0392802D1C85D401CA9
:10312000C855002902D57F1E5B1C761C36B29DF85F
:1031300030100B9800961BB23A4600F003F80DB021
:10314000BDE8F08F2DE9F04786B006468A469046E6
:103150001D4600F09EFD406A376B90F80090012DEF
:1031600002DA01250FF258284AF02000BDF9384054
:10317000662808BF641C13D0672840F0888014F1CB
:10318000040F73DBBC4271DA96F83800641C000748
:1031900002D4BD42B8BF2F4624B23F1B48BF002710
:1031A00024B2F068B169012C21DA4A1C30230B5497
:1031B000012F03DA96F83810090702D502F80090BB
:1031C000521CE742B8BF7C4224B26142E719AF42C9
:1031D000B261B8BF3D4671622DB2F5612A46B3694E
:1031E0004146181800F0CAF9781BB062AEE0081822
:1031F000A54216DA2A46414600F0C0F9B1696918BD
:10320000601BB161012F706203DA96F83800000785
:1032100005D5F06801F80090F069401CF061B762D4
:1032200094E02246414600F0A9F9B06920182D1B10
:10323000012F03DA96F83810090703D5F16800F872
:103240000190401CB0612DB2AF42B8BF3D46F0685E
:10325000B3692DB22A4604EB0801181800F08EF964
:10326000B0692818B061781B70626FE0BD4204DA63
:1032700096F83810090758BF2F467F1E48BF002711
:10328000BAF1670F0CBF4FF0650A4FF0450AB169FC
:10329000F06818F8013B0B544A1C012F05DA96F828
:1032A0003810090758BFB26115D502F80090531CB9
:1032B000012FB3610FDB6D1E2DB2AF42B8BF3D468B
:1032C0002DB22A464146181800F058F9B06928185E
:1032D000B061781B7062F068B16901EB00082000F2
:1032E00008F801AB03D42B2008F8010B03E02D21D3
:1032F00008F8011B6442002502AF08E00A2200A87A
:1033000000F0E0FC019807F8010B6D1C009C21B255
:103310000129F3DA022D06DA4AF02000652804BFFD
:10332000302008F8010B4DB9302008F8010B07E0F8
:103330006D1E02A8285C303008F8010B012DF7DA69
:10334000F068B1690818A8EB0000F06196F8380041
:1033500000F0140010280DD17069B1690818716A65
:103360000818F1690818B16A0818716B8842BCBF67
:10337000081A306206B0BDE8F087F8B504460D467D
:1033800016461F46002004E0E86A401CE8627F1EE3
:10339000002047B116F8011BA868A047A8600028C4
:1033A000F2D14FF0FF30F2BD686A6C747A4C0000C5
:1033B0006E616E004E414E00696E6600494E4600D9
:1033C000300050F8041B61B150F8042BD30744BF00
:1033D000A9F101039A180023091F42F8043BFAD10E
:1033E000EFE770470278C9B28A421AB11CBF10F8E1
:1033F000012FF9E718BF0020704701FE00F101031B
:10340000810704D010F8011B89B18107FAD1026845
:10341000B2F10131914311F0803F04BF50F8042F05
:10342000F6E710F8011B11B110F8011BFBE7C01AF9
:103430007047FE01C9B2830706D0521E22D310F88E
:10344000013B9942F7D11FE0083A13D302F104027D
:1034500041EA012141EA014150F8043B121F21BF1A
:103460004B40A3F1013C2CEA030C1CF0803FF3D04D
:10347000C9B2001F083210F8013B521E28BF91EA62
:10348000030FF8D818BF0120401E70471B4213D10C
:10349000094236D12AB18446B0FBF2F002FB10C2D9
:1034A000704700F017BCFCD30022002370470B00CC
:1034B0000200002100207047904271EB030CF6D30C
:1034C00070B5B1FA81F4B3FA83F52C1BA340C4F1B3
:1034D000200532FA05F63343A2405FF00046E6408D
:1034E00002E05B085FEA3202841A71EB030524BF35
:1034F000204629467641F4D302000B00300000211B
:1035000070BD012ACFD970B5140C20D0B1FA81F466
:10351000B2FA82F5C4F120046419B4F12006D6D3BE
:10352000B2405FF00044F440002502E052085FEA38
:103530003303C61A71EB020E24BF30467146644154
:103540006D41F3D302000B002000290070BD0C4632
:10355000B1FBF2F102FB11452D0445EA1045B5FB24
:10356000F2F402FB145580B240EA0545B5FBF2F0D7
:1035700002FB105240EA044070BD000062B38B07AA
:1035800008D0521E11F8013B00F8013B00F02480E6
:103590008B07F6D1830740F0208000BF103A07D395
:1035A00030B4B1E83810103AA0E83810F9D230BC85
:1035B000530724BFB1E80810A0E8081044BF51F831
:1035C000043B40F8043BD20724BF31F8022B20F81B
:1035D000022B44BF0B7803707047083A07D3B1E859
:1035E0000810083A40F8043B40F804CBF7D25307E0
:1035F000E4E730B4436803F0004201211B031B0BD6
:10360000436004BF0368002B08D10DE00368DD0FA1
:1036100045EA440444605B000360491E4468E302D9
:10362000F4D523031B0B436043681A4342600846EA
:1036300030BC70474FF4001C1CEB410F94BF1CEBD7
:10364000430F09E041EA030C50EA4C0C52EA0C0C1F
:1036500003D2994208BF9042704714BF8B42824206
:1036600070470000B0B581EA030C0CF0004C40F24A
:10367000FF7515EA11541DBF15EA1357AC42AF424E
:1036800039E0E41923EA455343F48013C90241F0B9
:10369000004141EA505EC7021100A7FB0202002868
:1036A0004FF00000EEFB01204FF00001E3FB07218B
:1036B00018BF42F00102401800214941E3FB0E010E
:1036C000A4F580640F0302D252004041494154F1F5
:1036D00001046CDD470872F1004250F1000051EB2B
:1036E0000451A1F580115CBF41EA0C01B0BD4CEA68
:1036F00005510020B0BD05EA1357AC4214BFAF42DC
:1037000041E050EA410E1CBF52EA430E02E061461E
:103710000020B0BD24423C441BD15FEA070EF6D026
:10372000090302BF01460020AEF1140EB1FA81F781
:10373000AEEB070401FA07FE0C37C7F1200100FACF
:1037400007F7C8404EEA000E23EA455343F48013BE
:10375000A2E733F00043B3FA83F704BFB2FA82FE64
:1037600077440B3FE41BB7F1200E2FBF02FA0EF394
:10377000BB40C7F1200E22FA0EFE38BF43EA0E030B
:10378000BA40641C82E750EA410E14BF52EA430E6D
:103790006FF000014FF4001717EB430F8ABF194673
:1037A00017EB410FB5E74CEA05510020B0BDD4F14D
:1037B0000104B4F120070FDAC4F12007520828BF32
:1037C00042F0010210FA07F501FA07F7E1BF2A43B8
:1037D000E0403843E1400FE0352C98DCC7F120048D
:1037E00052EA400220FA07F218BF42F0010231FA11
:1037F00007F0A1400A43002172F1004250F100009D
:1038000051EB0C01B0BD0000F0B540F2FF7581EA4C
:10381000030C0CF0004C15EA11541DBF15EA1357A8
:10382000AC42AF42E5E0BC41C1F31301C3F3130363
:10383000801A994143F4801304D2641E4000494128
:1038400080185941C90241EA5051B1FBF3F603FB1C
:103850001611A2FB0675D7EBC020A94102D2761E35
:1038600080185941C90241EA5051B1FBF3FE03FBF4
:103870001E11A2FB0E75D7EBC020A94103D2AEF1F9
:10388000010E80185941890241EA9051760546EAB5
:103890008E2EB1FBF3F603FB1611A2FB0675D7EBD8
:1038A0008020A94102D2761E80185941C90241EAFE
:1038B00050514EEA060EB1FBF3F603FB1611A2FBC4
:1038C0000675D7EBC020A94102D2761E8018594157
:1038D000C90241EA5051B1FBF3F703FB1711A2FBF8
:1038E0000735D3EBC020A94167F100070CBF0042A8
:1038F00047F0010766F3D5274FEA1E31B80814F5E3
:10390000806412DDBD0775F1004250EB0E5051EBA3
:10391000045111F5801F5CBF41EA0C01F0BD4CF071
:103920007F6141F0E0410020F0BDBD076D0840EA35
:103930000E5041F48011D4F10104B4F120060ADAEA
:10394000C4F120060200E04001FA06F3E14018430A
:10395000B24015430EE0342C13DCC6F1200445EAD6
:1039600040056D0820FA06F2154321FA06F0A14041
:103970000D43002175F1004250F1000051EB0C01A4
:10398000F0BD00205FEA0C01F0BDCFB992185B4199
:10399000B3FA83F704BFB2FA82F6BF190B3FB7F14F
:1039A00020062FBF02FA06F3BB40C7F1200622FA19
:1039B00006F638BF3343BA401CB1E419641E33E73E
:1039C0007F4231F00041B1FA81F404BFB0FA80F6D1
:1039D000A4190B3CB4F120062FBF00FA06F1A14058
:1039E000C4F1200620FA06F638BF3143A0403C1B44
:1039F0001AE7AC421ABF05EA1357AF4212E050EA89
:103A000041061CBF52EA4306BFE750EA4107304671
:103A100061461CBF41EA0551F0BD52EA430C08BFA4
:103A2000C143F0BD00204FF4001616EB410F98BFC4
:103A300016EB430F08BF16EB410F24BFC14305E04F
:103A400016EB430F0CBF61464CEA0551F0BD000078
:103A5000F446400D40EAC120490006D200F014F8B7
:103A6000004248BF6FF00040604700F00DF84FF093
:103A7000004188428CBF084640426047400D40EA02
:103A8000C120490080F00D8040F00040490DA1F5B3
:103A90008061491C05D4D1F11F0154BFC840C01733
:103AA00070474FF000007047010040F10980F44674
:103AB000404200F005F851F000416047010000BFAE
:103AC00009D0B0FA80F18840C91CC1F584610905AC
:103AD00001EBD0214005704770B44FF0004591EAEA
:103AE000030F44BF6B4000F001B900BF841A71EBB3
:103AF000030604D26E40001BB141121973414FF40A
:103B0000001C1CEB410F34BF7CEB430684E00C0D22
:103B1000A4EB1356362E7DDC012E43DC45EAC3238D
:103B200043EA525312BFD20292025B08240545EACF
:103B3000C12141EA5051D2EBC020994125D407D18F
:103B4000B0FA80F610FA06F164D00020203608E0C2
:103B5000B1FA81F6B140C6F1200220FA02F2114317
:103B6000B0404FEAF474B4EB465434F001064FEA27
:103B700074040AD8D6F50016760D04F00044F0401F
:103B800061FA06F25040F1404840C00A40EA415014
:103B900021F0004128BF5FEA500550F1000044EBDE
:103BA000D12137E045EAC323DB0A45EAC121C90A2E
:103BB000B6F120050EDD42EA0242120CC5F12006E4
:103BC00003FA06F6EB4042EA06056D42984161F1C0
:103BD00000010DE062FA06F5F240554063FA06FC7A
:103BE00082EA0C02F3405A406D42904161EB0301BE
:103BF00011F4801F05D1641E620502D06D004041A2
:103C0000494121F48011430875F1004350F100004F
:103C100041EB045170BC70471CEB410F15D223F0EF
:103C2000004352EA43060BD04FEA4C0CBCEB410F69
:103C300004D80C0D661E342EB7DDEBE7801A9941CF
:103C400050EA410608BF0021E4E708BF1CEB430F20
:103C500028BF6FF00001DDE780B5134800F0B0F831
:103C60000FF24801016041608160C1600161416102
:103C700081610FF23C0242628162C1620163416371
:103C80000FF2300282630FF23402C26301644164B6
:103C900001BD10B5044800F093F80446206808B947
:103CA000FFF7DAFF204610BDA819FF1F0000000033
:103CB0002E00000066616C7365000000747275650B
:103CC0000000000091FBF2F303FB1211C0E9003188
:103CD000704700007047000070B44FF0004591EA53
:103CE000030C44BF6B40FFF701BF00BF841A71EBA8
:103CF000030603D2001BB141121973414FF4001C9B
:103D00001CEB410F34BF7CEB430443E00C0DA4EBF0
:103D10001356352E50DC45EAC323DB0A45EAC121A0
:103D2000C912B6F120050DDD63FA05F6EB4086EA0F
:103D30000305124218BF45F00105C01851F10001FA
:103D40000CD213E062FA06F5F2405540F3415A40B6
:103D5000B340F3405A408018594107D349085FEAFD
:103D600030005FEA350528BF45F0010501F58011F7
:103D7000420875F1004250F1000041EB045170BC63
:103D80004FF4001C1CEB410F38BF70470020090D99
:103D9000090570471CEB410F10D252EA43060BD0C5
:103DA000BCEB410F05D80C0DAB43661E342EB5DDC0
:103DB00002E0AB438018594170BC704770BC70473B
:103DC00070470000012110F01F029140DFF810251C
:103DD00040B2430942F82310704780B500F052FF0B
:103DE00001F02CF801F056F9DFF8F80401F06CFC52
:103DF000DFF8F40401789C2001F08CFE012002F031
:103E000050F9022002F04DF902F006FA5FF4E131B8
:103E10000420FEF75BFB002201214F20FEF708F98A
:103E20000FF28D41672002F078FA0FF2E141102085
:103E300002F073FA0FF22D21542002F06EFA4420A2
:103E4000FFF7C0FFDFF8880D0168002002F07CFA60
:103E500062B601BD2DE9F041BEB0DFF89004D0F8A4
:103E60000080DFF88C0407683C20ADF80600502085
:103E7000ADF80400FFF7B1FF01214F20FEF72FF945
:103E800001F088FC02F036FEDFF8681408600021BB
:103E90004F20FEF724F90020DFF85C1408600020B2
:103EA000DFF85414486001200600DFF84804006879
:103EB000864231DADFF84404DFF838140968891BD8
:103EC00050F8310002A921F82600DFF82804006824
:103ED000D0F13C00301802A911EB8601488019206E
:103EE00096FBF0F0DFF81014192296FBF2F2DFF8DF
:103EF000083453F82220DFF80434DFF8F84324684C
:103F0000A41B53F834309A18DFF8F4331B68D21A24
:103F100041F82020761CC8E7DFF8DC030068FFF7D3
:103F2000C3FD5FF03332DFF8DC33FFF79BFB0400A7
:103F30000D00DFF8C4034068FFF7B6FDDFF8942CEE
:103F4000DFF8C433FFF78EFB22002B00FFF7C4FE1F
:103F50000022DFF8843CFFF757FC02F059FEDFF83F
:103F60007C1C0860E34800680A2808DADFF86C0C5B
:103F7000002101600020DFF8681C086005E0DFF820
:103F8000640C0068DFF8581C0860DA4800681928DB
:103F900006DADFF8540CDFF8541C0968816005E08C
:103FA000DFF8440CDFF8481C096881600520FEF743
:103FB000F9FB002803D10120DFF8381C0870DFF876
:103FC000340C0078002844D00020FEF7EBFB0028DA
:103FD0000AD1C5480078401CC3490870C24801781E
:103FE0009C2001F097FD0EE00120FEF7DBFB00288E
:103FF00009D1BD480078401EBB490870BA48017815
:104000009C2001F087FD3B00B64A0199404601F033
:104010007FFA4FF47842B748016802A801F017F917
:104020004FF4784000901F230522B2480168DFF862
:10403000C80B006801F0EDF94FF4784000901F23A1
:104040000522A9480178DFF8B40B006801F0E1F916
:1040500012E700F05FF94FF41671A24802F020FE5B
:104060000AE7000070B5DFF8980B00F004FFDFF8F6
:10407000900B8088DFF88C1BDFF88C2B126821F8FE
:104080001200DFF87C0B4089DFF8801BDFF8782B0B
:10409000126821F81200DFF8700B006804282ED196
:1040A00000F028FEDFF8680B0069DFF8641B096A7E
:1040B000401ADFF85C1BC96A09180E00DFF8500BC4
:1040C0000069DFF84C1B096A401AFFF7EDFC040099
:1040D0000D00DFF83C0BC06AFFF7E6FC5FF03332FF
:1040E000884BFFF7BFFA02000B0020002900FFF702
:1040F000F3FCFFF7ADFC310002F0ACF8BEE0DFF8F6
:10410000080B0068032824D100F0D6FEDFF8040B6A
:1041100090ED000ADFF8000BD0ED000A70EE600AA7
:10412000DFF8F80A90ED000ADFF8F40A90ED001AC3
:1041300030EE410A00F038FFDFF8D40ADFF8E41A65
:1041400009680160DFF8C80ADFF8DC1A0968416015
:1041500094E0DFF8B40A0068022872D1012002F06E
:1041600023F84042DFF8C41A0860012002F032F858
:10417000022002F019F8DFF8B81A0860022002F0F5
:1041800029F8DFF8B00A0088DFF8A41A09680818CF
:10419000DFF8A01A0880DFF8A00A0088DFF88C1A80
:1041A00009680818DFF8901A0880DFF8900A00788C
:1041B000401CDFF8881A0870DFF8800A007814289D
:1041C0001EDBDFF81C0A90ED000AB8EEC00ADFF82B
:1041D000700A80ED000A00F0C1FDDFF8340A806A41
:1041E000DFF82C1A496A401A00EE100AB8EEC00A2D
:1041F000DFF8500A80ED000A0020DFF8401A08704E
:10420000DFF80C0A90ED090AB8EEC00ADFF82C0AB4
:104210000078401C00EE900AF8EEE00ADFF8240A6D
:1042200090ED001A60EE810AB3EE041AC0EE810A26
:1042300030EE200ABDEEC00ADFF8D40980ED080A8E
:104240001CE0DFF8C409006801280ED1DFF89809E6
:10425000DFF8881991ED000A02F051FDBDEEC00AA9
:10426000DFF8AC0980ED0B0A08E0DFF89C09006874
:10427000002803D00020DFF890190860DFF88809D3
:104280000068401CDFF880190860DFF87C090068CE
:10429000052803D10020DFF870190860DFF8A809AD
:1042A000006850F00100DFF8A019086070BD000040
:1042B00038B5DFF8980900680028FAD0DFF88C09D3
:1042C000006805005FF0FF30DFF8801908601D20EE
:1042D00004002800E040C00701D501F02BFA31BDF1
:1042E00000E100E02004FF1F1C04FF1F4C900000B1
:1042F000509000000819FF1F1819FF1FAC14FF1F72
:10430000BC06FF1F3333F33F9999E93F80B501F0B5
:1043100037FA01BD80B5DFF838090078012840F090
:104320003B840320FEF73EFA002807D1DFF824097A
:104330000078401CDFF81C1908700BE00220FEF723
:1043400031FA002806D1DFF80C090078401EDFF8AA
:1043500004190870DFF8FC080078062190FBF1F2E0
:1043600001FB1200DFF8EC180870DFF8E8080078AD
:1043700000280ED0022800F09081C0F0CC800428E4
:1043800000F0E182C0F03382052800F0788300F06D
:1043900003BC0020FEF706FA002818D1DFF8B808A1
:1043A000DFF8B818097850F8210002F0E7FCDFF8D0
:1043B0002428DFF8AC38FFF78FFC02F029FCDFF887
:1043C0009818DFF89828127841F822001CE00120A4
:1043D000FEF7E8F9002817D1DFF87C08DFF87C1831
:1043E000097850F8210002F0C9FCDFF8E827DFF86F
:1043F0007438FFF771FC02F00BFCDFF85C18DFF893
:104400005C28127841F822004FF4FC6000901F23D2
:104410000522DFF84408DFF84418097810EB810022
:1044200090ED000AF2EE040A20EE200ABDEEC00A6A
:1044300010EE101ADFF83008006800F0EAFF4FF4C1
:10444000784000901F230522DFF82008DFF80C18C1
:10445000097810EB810090ED000AF2EE040A20EEDC
:10446000200ABDEEC00A10EE101ADFF8040800683A
:1044700000F0CFFF4FF4784000901F230522DFF8B3
:104480009C0790ED000ABDEEC00A10EE101ADFF88E
:10449000E407006800F0BDFF4FF4784000901F2350
:1044A0000522DFF89C0790ED020AF2EE040A20EEE6
:1044B000200ABDEEC00A10EE101ADFF8BC07006833
:1044C00000F0A7FF4FF4784000901F230522DFF88B
:1044D000700790ED030AF2EE040A20EE200ABDEE0A
:1044E000C00A10EE101ADFF89407006800F091FF80
:1044F0004FF4784000901F230522DFF8440790ED29
:10450000000ABDEEC00A10EE101ADFF8740700684A
:1045100000F07FFF40E30020FEF744F9002818D1A7
:10452000DFF84807DFF83417097850F8210002F067
:1045300025FCDFF8A026DFF82837FFF7CDFB02F0D7
:1045400067FBDFF82817DFF81427127841F82200FC
:104550001CE00120FEF726F9002817D1DFF80C0730
:10456000DFF8F816097850F8210002F007FCDFF8B0
:104570006426DFF8F036FFF7AFFB02F049FBDFF807
:10458000EC16DFF8D826127841F822004FF4784074
:1045900000901F230522DFF8C006DFF8C016097857
:1045A00010EB810090ED000AF2EE040A20EE200AE2
:1045B000BDEEC00A10EE101ADFF8AC06006800F07D
:1045C00028FF4FF4FC6000901F230522DFF89C06B3
:1045D000DFF88816097810EB810090ED000AF2EE02
:1045E000040A20EE200ABDEEC00A10EE101ADFF811
:1045F0008006006800F00DFF4FF4784000901F2304
:104600000522DFF8180690ED000ABDEEC00A10EE94
:10461000101ADFF86006006800F0FBFE4FF47840E7
:1046200000901F230522DFF8180690ED020AF2EE33
:10463000040A20EE200ABDEEC00A10EE101ADFF8C0
:104640003806006800F0E5FE4FF4784000901F2324
:104650000522DFF8EC0590ED030AF2EE040A20EEE5
:10466000200ABDEEC00A10EE101ADFF8100600682E
:1046700000F0CFFE4FF4784000901F230522DFF8B2
:10468000C00590ED000ABDEEC00A10EE101ADFF86A
:10469000F005006800F0BDFE7EE20020FEF782F823
:1046A00000280CD1DFF8740590ED000AF7EE000A3F
:1046B00030EE200ADFF8640580ED000A10E00120EA
:1046C000FEF770F800280BD1DFF8500590ED000AD6
:1046D000FFEE000A30EE200ADFF8400580ED000A08
:1046E0004FF4784000901F230522DFF86C05DFF8B7
:1046F0006C15097810EB810090ED000AF2EE040AC7
:1047000020EE200ABDEEC00A10EE101ADFF85805A0
:10471000006800F07EFE4FF4784000901F230522D1
:10472000DFF84805DFF83415097810EB810090EDCB
:10473000000AF2EE040A20EE200ABDEEC00A10EED6
:10474000101ADFF82C05006800F063FE4FF4FC60DF
:1047500000901F230522DFF8C40490ED000ABDEE8F
:10476000C00A10EE101ADFF80C05006800F051FEC8
:104770004FF4784000901F230522DFF8C40490ED29
:10478000020AF2EE040A20EE200ABDEEC00A10EE84
:10479000101ADFF8E404006800F03BFE4FF47840A4
:1047A00000901F230522DFF8980490ED030AF2EE33
:1047B000040A20EE200ABDEEC00A10EE101ADFF83F
:1047C000BC04006800F025FE4FF4784000901F23E1
:1047D0000522DFF86C0490ED000ABDEEC00A10EE71
:1047E000101ADFF89C04006800F013FED4E10020EA
:1047F000FDF7D8FF002810D1DFF84404806802F0EC
:10480000BDFADFF8D023DFF85834FFF765FA02F07D
:10481000FFF9DFF82C14886014E00120FDF7C2FFD7
:1048200000280FD1DFF81804806802F0A7FADFF83B
:10483000A423DFF83034FFF74FFA02F0E9F9DFF88C
:10484000001488604FF4784000901F230522DFF8A1
:104850000804DFF80814097810EB810090ED000AD5
:10486000F2EE040A20EE200ABDEEC00A10EE101A85
:10487000DFF8F403006800F0CCFD4FF478400090BE
:104880001F230522DFF8E403DFF8D013097810EBCB
:10489000810090ED000AF2EE040A20EE200ABDEE3F
:1048A000C00A10EE101ADFF8C803006800F0B1FD6E
:1048B0004FF4784000901F230522D84890ED000A5D
:1048C000BDEEC00A10EE101ADFF8A803006800F071
:1048D000A0FD4FF4FC6000901F230522D84890ED06
:1048E000020AF2EE040A20EE200ABDEEC00A10EE23
:1048F000101ADFF88403006800F08BFD4FF4784055
:1049000000901F230522CE4890ED030AF2EE040A20
:1049100020EE200ABDEEC00A10EE101AD74800683B
:1049200000F077FD4FF4784000901F230522C44823
:1049300090ED000ABDEEC00A10EE101AD0480068D3
:1049400000F067FD28E10020FDF72CFF00280CD1C6
:10495000BB48C06802F012FA9E4AC14BFFF7BCF98F
:1049600002F056F9B649C86010E00120FDF71AFFC1
:1049700000280BD1B248C06802F000FA954AB94B42
:10498000FFF7AAF902F044F9AD49C8604FF4784046
:1049900000901F230522B048B049097810EB810030
:1049A00090ED000AF2EE040A20EE200ABDEEC00AE5
:1049B00010EE101AAC48006800F02BFD4FF4784060
:1049C00000901F230522A948A449097810EB810013
:1049D00090ED000AF2EE040A20EE200ABDEEC00AB5
:1049E00010EE101AA248006800F013FD4FF4784052
:1049F00000901F230522894890ED000ABDEEC00AF1
:104A000010EE101A9B48006800F003FD4FF4784048
:104A100000901F2305228A4890ED020AF2EE040A54
:104A200020EE200ABDEEC00A10EE101A924800686F
:104A300000F0EFFC4FF4FC6000901F23052280483B
:104A400090ED030AF2EE040A20EE200ABDEEC00A41
:104A500010EE101A8948006800F0DBFC4FF4784033
:104A600000901F230522764890ED000ABDEEC00A93
:104A700010EE101A8248006800F0CBFC8CE0002099
:104A8000FDF790FE002805D155480068401D5449A7
:104A9000086009E00120FDF785FE002804D1504898
:104AA0000068401F4E4908604FF4784000901F2373
:104AB000052269486949097810EB810090ED000AE8
:104AC000F2EE040A20EE200ABDEEC00A10EE101A23
:104AD0006548006800F09DFC4FF4784000901F236B
:104AE000052262485D49097810EB810090ED000ACB
:104AF000F2EE040A20EE200ABDEEC00A10EE101AF3
:104B00005B48006800F085FC4FF4784000901F235C
:104B10000522424890ED000ABDEEC00A10EE101AC0
:104B20005448006800F075FC4FF4784000901F2353
:104B30000522434890ED020AF2EE040A20EE200A14
:104B4000BDEEC00A10EE101A4B48006800F061FC80
:104B50004FF4784000901F230522394890ED030A56
:104B6000F2EE040A20EE200ABDEEC00A10EE101A82
:104B70004248006800F04DFC4FF4FC6000901F2399
:104B800005222F4890ED000ABDEEC00A10EE101A63
:104B90003B48006800F03DFC0020FDF703FE0128C3
:104BA00012D10120FDF7FEFD01280DD10320FDF7F4
:104BB000F9FD012808D10220FDF7F4FD012803D1F9
:104BC00001202349087002E000202149087001BD3E
:104BD0004419FF1F9A999999000034402419FF1F26
:104BE000B406FF1FB806FF1F9411FF1FB006FF1F7A
:104BF000A806FF1FA319FF1FD806FF1FDC06FF1F13
:104C0000A416FF1F8C16FF1F1419FF1F9816FF1FF5
:104C10004811FF1FC011FF1FD011FF1FCC11FF1F34
:104C2000BC11FF1FC411FF1FC811FF1F0C19FF1F6C
:104C30001019FF1F9C19FF1F9E19FF1FA419FF1FAA
:104C40007811FF1F2819FF1F0C710340A09004402A
:104C5000A119FF1FA219FF1F7806FF1FA019FF1F30
:104C60009999B93F9999B9BFC006FF1F8C06FF1FDC
:104C7000C406FF1FC806FF1FCC06FF1FD006FF1F7C
:104C8000D406FF1F80B50020FDF756FD0120FDF77B
:104C900053FD0220FDF750FD0320FDF74DFD0520DB
:104CA000FDF74AFD00F0B6F8002048490861474882
:104CB000474909688160454846490968C160DFED98
:104CC000421A9FED411A4448D0ED000A434890ED46
:104CD000000A434802F004F8DFED3B1A414890ED2A
:104CE000001ADFED390A404890ED000A3F4801F014
:104CF000F7FF01BD80B53548006802F03FF831F09C
:104D00000041FEF7A5FE512803DB0421384A11704B
:104D100004E0102190FBF1F1354A11703549344A15
:104D2000127811EB820191ED000A2849D1ED000AB9
:104D300020EE200A30492E4A127811EB8201D1ED83
:104D4000000A224991ED011A00EEC10ABDEEC00A27
:104D500010EE101A49421D4A116101BD80B5274865
:104D6000B0F900002649B1F900100818FEF79CFEC2
:104D70000022244BFEF776FCFEF76AFE224908600B
:104D800000201E49088000201D4908801E48006838
:104D9000FEF78AFE1D4A1E4BFEF764FCFEF758FE26
:104DA000194908600948806A084948620C48164950
:104DB00091ED000AB8EEC00A01F0A1FFBDEEC00AF5
:104DC000024880ED0A0A01BD000000004811FF1FE3
:104DD000CC11FF1FD011FF1FA406FF1FA006FF1F4D
:104DE0007811FF1FAC06FF1FA806FF1F9411FF1FBD
:104DF000A019FF1F7806FF1F8C06FF1F9C19FF1FBD
:104E00009E19FF1F0000E03FB011FF1F9A9999996A
:104E10009999B93F80B5332001F0D8FF102001F0F7
:104E2000D5FF112001F0D2FF302001F0CFFF20206C
:104E300001F0CCFF122001F0C9FF01BD7C487D4983
:104E400001607D487D4901607D48794909680160BC
:104E50007C487949096801607B48754909680160A7
:104E60007A487549096801607948002101607948EC
:104E700000210160704710B504000121302002F0CC
:104E8000ACF820800121122002F0A7F860800121F7
:104E9000112002F0A2F8A0800121102002F09DF85C
:104EA000E0800121332002F098F8208101212020A8
:104EB00002F093F8608110BDF8B5002600270020AD
:104EC000052825DAB6B200EE106AB8EE400A62494B
:104ED00031F8101000EE901AF8EE600A30EE200A59
:104EE000BDEEC00A10EE106ABFB200EE107AB8EE46
:104EF000400A5A4931F8101000EE901AF8EE600A94
:104F000030EE200ABDEEC00A10EE107A401CD7E742
:104F1000B6B2052096FBF0F000EE100AB8EEC00A1B
:104F2000474880ED000ABFB2052097FBF0F000EE85
:104F3000100AB8EEC00A434880ED000A42480068F3
:104F400001F01CFF5FF06632454BFEF78BFB04005F
:104F50000D003B48006801F011FF424A424BFEF74A
:104F600081FB22002B00FEF7B7FE01F051FE36490F
:104F700008603648006801F001FF3C4A3C4BFEF7F0
:104F800071FB04000D002F48006801F0F7FE394A5C
:104F9000394BFEF767FB22002B00FEF79DFE01F068
:104FA00037FE2A490860F1BD38B52DED028BB0EE11
:104FB000408AF0EE608A314890ED000A28EE008ABF
:104FC0002F4890ED000A68EE808A21482D49096833
:104FD00001602048C0ED008A2A4890ED000A38EEB2
:104FE000400A2948D0ED000A80EE200A274880EDCB
:104FF000000A2448006801F0C1FE04000D002348A7
:1050000090ED000A30EE680A10EE100A01F0B6FECC
:10501000164A1F4BFEF726FB22002B00FEF75CFE14
:1050200001F0F6FD17490860BDEC028B31BD0000B0
:10503000CC11FF1F00A08744D011FF1F00C0D54432
:10504000B411FF1FB811FF1FBC11FF1FC011FF1FBC
:10505000C411FF1FC811FF1F8C16FF1F9816FF1FDA
:105060006666E63F343333333333D33F9A999999A5
:105070009999B93FCDCCCCCCCCCCEC3F1404FF1FDC
:105080001804FF1FD411FF1F1004FF1FD811FF1FAA
:105090009999A93F10B582B0DFF8E0050468FBF7E5
:1050A000BBF9FCF7B0FFADF80000FCF7A9FFADF8C5
:1050B00002004FF478420099200000F001F813BD7F
:1050C000F2B50400150000992000FCF795FEBDF82C
:1050D0000000BDF80210484307000120DFF8A015CA
:1050E00008600020DFF89C1508600020DFF89815A4
:1050F00008602C20DFF8941508700020DFF8901568
:1051000008600120DFF8881508600120DFF87815B5
:10511000086000200600BE4239D20120DFF8601589
:1051200008600120DFF85C1508600020DFF85815E2
:105130000860ADB2280ADFF8541508700020DFF8C7
:10514000501508600120DFF8481508600120DFF8DD
:10515000381508600120DFF8281508600120DFF805
:10516000241508600020DFF820150860DFF81C0512
:1051700005700020DFF8181508600120DFF8101511
:1051800008600120DFF800150860761CC3E7F1BD58
:1051900070B504000D00DFF8FC0406683100200043
:1051A000FCF72AFE0120DFF8D81408600020DFF8A1
:1051B000D41408600020DFF8D01408602C20DFF839
:1051C000CC1408700020DFF8C81408600120DFF854
:1051D000C01408600120DFF8B01408600120DFF877
:1051E000A01408600120DFF89C1408600020DFF89C
:1051F00098140860ADB2280ADFF8901408700020F7
:10520000DFF88C1408600120DFF8841408600120A6
:10521000DFF8741408600120DFF8641408600120CE
:10522000DFF8601408600020DFF85C140860DFF825
:105230005C0405700020DFF8581408600120DFF8D6
:10524000501408600120DFF84014086070BD70B58C
:1052500082B004000D0016002800451E002808D06A
:1052600054F825000090310089B20098FFF790FFB4
:10527000F2E773BD2DE9F14781B00C0015001E0067
:10528000DFF81404D0F800A0FCF7BDFE0838BDF824
:105290000410884206DBFCF7B3FE1038BDF8061098
:1052A000884200DAB3E051460198FCF7A5FD0120E1
:1052B000DFF8CC1308600020DFF8C8130860002076
:1052C000DFF8C41308602C20DFF8C013087000203A
:1052D000DFF8BC1308600120DFF8B4130860012078
:1052E000DFF8A4130860002081465FFA89F9B9F15C
:1052F000100F80F28C80DFF8A403E4B2210151FA90
:1053000089F10818B0F50070007807000020804689
:105310005FFA88F8B8F1080F76DA380638D5012038
:10532000DFF85C1308600120DFF8581308600020E4
:10533000DFF854130860ADB2280ADFF85013087084
:105340000020DFF84C1308600120DFF844130860E8
:105350000120DFF8341308600120DFF8241308600F
:105360000120DFF8201308600020DFF81C1308601C
:10537000DFF8180305700020DFF81413086001201F
:10538000DFF80C1308600120DFF8FC12086037E03A
:105390000120DFF8EC1208600120DFF8E812086055
:1053A0000020DFF8E4120860B6B2300ADFF8DC1241
:1053B00008700020DFF8D81208600120DFF8D01252
:1053C00008600120DFF8C01208600120DFF8B01289
:1053D00008600120DFF8AC1208600020DFF8A81296
:1053E0000860DFF8A80206700020DFF8A412086049
:1053F0000120DFF89C1208600120DFF88C120860A1
:105400007F0018F1010883E719F101096DE7BDE894
:10541000F3872DE9F14382B0894615001E000A9CEE
:105420004F465FF00008BDF80A00ADF80600B9F17C
:10543000000F1CD123009BB2320092B2302102989F
:10544000FFF718FFBDF808000830ADF8080010207D
:10545000ADF80200EDB2681E80B2C000ADF80000E9
:10546000220092B200990298FFF72AFE4EE0002F28
:1054700005D00A20B7FBF0F718F10108F7E75FFA4B
:1054800088F8EDB2A84500D3A8465FFA88F84746E9
:105490005FFA88F8B8F1000F1FD0BDF808005FFA76
:1054A00088F81FFA88F810EBC8000838ADF8040037
:1054B000B8F101080A2023009BB2320092B2B9FB76
:1054C000F0F100FB119010F13001C9B20198FFF723
:1054D000D1FE0A20B9FBF0F9DAE7EDB2AF4215D000
:1054E000EDB2E81B80B2C000ADF80000BDF80800C6
:1054F000F90011FA80F0ADF808001020ADF80200B4
:10550000220092B200990298FFF7DAFDBDE8F78316
:105510002DE9FB4F04009246D34601992000FCF789
:105520006BFC0120564908600020564908600020A5
:10553000554908602C2055490870002054490860DE
:1055400001205349086001204F490860002080462F
:10555000BDF806001FFA88F8804580F08B801FFA9E
:1055600088F8BDF80A0000FB08F0BDF8061090FBB3
:10557000F1F0ADF80000BDF80000BDF80810484398
:10558000060000200700BDF80400BFB287426ED2BB
:10559000BFB2BDF8080000FB07F0BDF8041090FB97
:1055A000F1F0814616FA89F00500E80810F80B00C2
:1055B000012115F00702D2F10702914008422AD1D9
:1055C00001202F49086001202E49086000202E4943
:1055D0000860FF202D49087000202D490860012037
:1055E0002B490860012028490860012024490860EF
:1055F000012024490860002023490860FF20234936
:10560000087000202249086001202149086001201B
:105610001D49086029E00120194908600120194945
:105620000860002018490860002018490870002010
:1056300017490860012016490860012012490860D6
:1056400001200F49086001200E49086000200E4922
:10565000086000200D49087000200D4908600120F5
:105660000B4908600120084908607F1C8BE718F18E
:1056700001086DE7BDE8F78F0000000054900000BE
:105680002810FE433010FE432C10FE4380F00F40E4
:105690002410FE43589000005C900000C07E000083
:1056A000012110F01F029140774A40B2430942F8AD
:1056B00023107047012110F01F029140734A40B23D
:1056C000430942F82310704710B504007048046085
:1056D00000F081F80028FBD000F002F8002010BD97
:1056E000E0B5012002904FF4167001900020009068
:1056F0001B23674802686749002001F0F1FC6648F7
:10570000006840084000644908605720FFF7D2FF56
:105710006248006850F00100604908600020FFF70F
:10572000BFFF5F491B20FCF755FD5E491D20FCF7BC
:1057300051FD07BD80B55C4890F90000042818D1E0
:105740000320594908705720FFF7B4FF5FF000604D
:10575000564908605048006850F001004E49086002
:105760005FF000605149086049480068504908608E
:1057700005E05720FFF79EFF02204B49087001BD4E
:105780000120494908704548006850F0010043492C
:105790000860704780B50420434908705FF0FF300F
:1057A000424908605720FFF77BFF3F4890F900000F
:1057B00001280FD03C4890F900000228F5D10420C0
:1057C000394908705FF0FF30384908605720FFF70B
:1057D00067FFEAE701BD10B582B0002400208DF814
:1057E000000000F084F88021122000F093F90028D6
:1057F00004D13048FCF758FE002043E03220FCF78B
:105800005CFD0B22012100A800F0BCF9002804D1A6
:105810002948FCF749FE002034E09DF80010274895
:10582000FCF742FE264801782648FCF73DFE9DF82D
:105830000000212825D10020040021480078A4B2CE
:1058400080B2844218D22048A4B210EB44004178C0
:105850001D48A4B210F8140080B200F05BF90028D3
:1058600008D11948A4B210F814101848FCF71CFE0F
:10587000002007E0641CE0E71548FCF715FE012056
:1058800000E0002016BD000000E100E080E100E043
:105890004819FF1F50F00F400C800040248000404A
:1058A0000201020012010900AC0EFF1FA09004408B
:1058B00010900040C48F00002C900000CC8E00009F
:1058C000140FFF1F688F0000B00EFF1FDC8F000059
:1058D000F08E000001B4BDF80000002805D0BDF82E
:1058E0000000401EADF80000F5E701B0704780B53C
:1058F000012201211A20FCF79BFB01220121192022
:10590000FCF796FB23211A20FCF786FC23211920A3
:10591000FCF782FC01BD80B501207A4908600120B6
:10592000794908604FF4C870FFF7D4FF0020774929
:10593000086077480068002804D101207349086096
:10594000002016E001207149086000206D490860C0
:105950004FF4C870FFF7BEFF00206B4908606C4829
:105960000068002804D0012068490860002000E099
:10597000012002BD80B50020634908600020614914
:1059800008604FF4C870FFF7A5FF01205E4908606A
:105990004FF4C870FFF79EFF01205A4908604FF48A
:1059A000C870FFF797FF01BD80B500205649086019
:1059B0004FF4C870FFF78EFF0020524908604FF483
:1059C000C870FFF787FF01204F4908604FF4C87087
:1059D000FFF780FF00204C4908604FF4C870FFF7C4
:1059E00079FF01BD80B50020474908604FF4C870B9
:1059F000FFF770FF0120434908604FF4C870FFF7BC
:105A000069FF0120404908604FF4C870FFF762FF4A
:105A100000203D4908604FF4C870FFF75BFF01BDEF
:105A200080B50020384908600020384908604FF4EC
:105A3000C870FFF74FFF0120334908604FF4C8706A
:105A4000FFF748FF32480068002807D001202F499F
:105A5000086000202C490860002006E001202B4946
:105A60000860002028490860012002BD38B5050003
:105A700008242000441EC0B2002818D0280603D5F0
:105A800001202049086002E000201E4908606D00E6
:105A90004FF4C870FFF71EFF01201B4908604FF448
:105AA000C870FFF717FF002017490860E1E731BD14
:105AB00038B5082400250020144908602000441E41
:105AC000C0B2002815D06D0000200F4908604FF4C7
:105AD000C870FFF7FFFE01200B4908604FF4C87043
:105AE000FFF7F8FE0A4800680028E7D055F00105E6
:105AF000E4E7012005490860002003490860EDB291
:105B0000280032BD6400FE436800FE43E402FE4309
:105B10006402FE4370B504000D0000262900C9B2DE
:105B2000200080B200F00AF8002805D1761CF6B2F9
:105B3000142EF3D1002000E0012070BD38B5040020
:105B40000D00FFF7E8FE002801D1002019E04220F7
:105B5000FFF78CFFFFF764FF002803D1FFF70AFF70
:105B600000200EE02000C0B2FFF780FFFFF758FFD3
:105B70002800C0B2FFF77AFFFFF752FFFFF7FAFEE7
:105B8000012032BDF8B504000D00160000273200D8
:105B9000D2B2290089B2200000F00AF8002805D10D
:105BA0007F1CFFB21E2FF2D1002000E00120F2BDC9
:105BB00070B504000D001600FFF7ADFE002801D1FE
:105BC000002037E04220FFF751FFFFF729FF0028B0
:105BD00003D1FFF7CFFE00202CE03000C0B2FFF76A
:105BE00045FFFFF71DFFFFF7C5FEFFF794FE0028F6
:105BF00001D100201EE04320FFF738FFFFF710FF20
:105C0000002803D1FFF7B6FE002013E0ADB2002D4F
:105C10000DD0FFF74DFF2070ADB2012D02D1FFF77F
:105C2000E1FE01E0FFF7C0FE641C6D1EEEE7FFF72A
:105C3000A1FE012070BD000038B504000D0064B263
:105C4000002C06D0022C69D04CD3032C00F08280AB
:105C5000C7E0DFF8AC05006850F08070DFF8A015F1
:105C600008606DB2002D0BD0022D15D00ED3042D7F
:105C70001ED017D3062D27D020D3072D2AD02FE0F2
:105C80004FF480614120FCF7A5FA2AE04FF44071FF
:105C90000420FCF79FFA24E04FF440710520FCF744
:105CA00099FA1EE04FF440710620FCF793FA18E0D1
:105CB0004FF440710720FCF78DFA12E04FF4806139
:105CC0006520FCF787FA0CE04FF480616620FCF752
:105CD00081FA06E04FF480616720FCF77BFA00E070
:105CE0007FE07EE0DFF81805006850F00070DFF814
:105CF000101508606DB2002D02D0012D06D00BE00A
:105D00004FF440710C20FCF765FA06E04FF4407147
:105D10000D20FCF75FFA00E063E062E0DFF8E404E6
:105D2000006850F08070DFF8DC1408606DB2002D60
:105D300002D0012D06D00BE04FF440710A20FCF791
:105D400049FA06E04FF440710B20FCF743FA00E0FB
:105D500047E046E0DFF8AC04006850F00070DFF880
:105D6000A41408606DB2002D0BD0022D15D00ED3F7
:105D7000042D1ED017D3062D27D020D3072D2AD0CF
:105D80002EE04FF4C0618520FCF724FA28E04FF4A0
:105D9000C0618620FCF71EFA22E04FF4C061872024
:105DA000FCF718FA1CE04FF4C0618820FCF712FAE7
:105DB00016E04FF4C0618920FCF70CFA10E04FF4B4
:105DC000C0618A20FCF706FA0AE04FF4C0618B201C
:105DD000FCF700FA04E04FF4C0618C20FCF7FAF9FC
:105DE000FFE731BD2DE9F84F04000D0016001F003C
:105DF00064B2002C11D064B2012C02D064B2022C27
:105E000002D16DB2022D08DB64B2032C05D040F242
:105E10008511DFF8F403FCF77CFA290049B2200071
:105E200040B2FFF709FFDFF8E40300684FF47A712E
:105E3000484380465FEA1840B0FBF6F081460020F8
:105E400082461FFA89F9484650FA0AF0012802DB17
:105E50001AF1010AF5E75FFA8AFABAF1080F05DBD1
:105E60004FF4D071DFF8A003FCF753FA404630FA44
:105E70000AF0B0FBF6F081461FFA89F9DFF89003CB
:105E800064B240F8249064B2002C05D0022C19D0E2
