:10000000F8FF0020110400008F9D00008F9D00006C
:100010008F9D00008F9D00008F9D00008F9D000030
:100020008F9D00008F9D00008F9D00008F9D000020
:100030008F9D00008F9D00008F9D00008F9D000010
:100040008F9D00008F9D00008F9D00008F9D000000
:10040000FFFFFFFFFFFFFFFFFFFFFFFFFEFFFFFFFD
:1004100062B60EF0ADFEFEE7000000000000000036
:1004200000000000000000000000000000000000CC
:1004300000000000000000000000000000000000BC
:1004400000000000000000000000000000000000AC
:100450000000000000000000000101010101010195
:10046000010101010101010101010101010101017C
:100470000101010101010000000000000000000076
:10048000000000000000000000000000000000006C
:10049000000000000000000000000000000000005C
:1004A000000000000000000000000000000000004C
:1004B000000000000000000000000000000000003C
:1004C000000000000000000000000000000000002C
:1004D000000000000000000000000000000000001C
:1004E000000000000000000000000000000000000C
:1004F00000000000000000000404040404040404DC
:1005000004040404040404040404040404040404AB
:1005100004040404040404000000000000000000BF
:1005200000000000000000000000000000000000CB
:1005300000000000000000000000000000000000BB
:1005400000000000000000000000000000000000AB
:10055000000000000000000000000000000000009B
:10056000000000000000000000000000000000008B
:10057000000000000000000000000000000000007B
:10058000000000000000000000000000000000006B
:100590000000000000000000070707070707070723
:1005A00007070707070707070707070707070707DB
:1005B0000707070707070707000000000000000003
:1005C000000000000000000000000000000000002B
:1005D000000000000000000000000000000000001B
:1005E000000000000000000000000000000000000B
:1005F00000000000000000000000000000000000FB
:1006000000000000000000000000000000000000EA
:1006100000000000000000000000000000000000DA
:1006200000000000000000000000000000000000CA
:10063000000000000000000A0A0A0A0A0A0A0A0A60
:100640000A0A0A0A0A0A0A0A0A0A0A0A0A0A0A0A0A
:100650000A0A0A0A0A0A0A0A00000000000000004A
:10066000000000000000000000000000000000008A
:10067000000000000000000000000000000000007A
:10068000000000000000000000000000000000006A
:10069000000000000000000000000000000000005A
:1006A000000000000000000000000000000000004A
:1006B000000000000000000000000000000000003A
:1006C000000000000000000000000000000000002A
:1006D0000000000000000C0C0C0C0C0C0C0C0C0CA2
:1006E0000C0C0C0C0C0C0C0C0C0C0C0C0C0C0C0C4A
:1006F0000C0C0C0C0C0C0C0C0C000000000000008E
:1007000000000000000000000000000000000000E9
:1007100000000000000000000000000000000000D9
:1007200000000000000000000000000000000000C9
:1007300000000000000000000000000000000000B9
:1007400000000000000000000000000000000000A9
:100750000000000000000000000000000000000099
:100760000000000000000000000000000000000089
:1007700000000000000F0F0F0F0F0F0F0F0F0F0FD4
:100780000F0F0F0F0F0F0F0F0F0F0F0F0F0F0F0F79
:100790000F0F0F0F0F0F0F0F0F0F000000000000C3
:1007A0000000000000000000000000000000000049
:1007B0000000000000000000000000000000000039
:1007C0000000000000000000000000000000000029
:1007D0000000000000000000000000000000000019
:1007E0000000000000000000000000000000000009
:1007F00000000000000000000000000000000000F9
:1008000000000000000000000000000000000000E8
:10081000000000000011111111111111111111111D
:1008200011111111111111111111111111111111B8
:1008300011111111111111111111110000000000FD
:1008400000000000000000000000000000000000A8
:100850000000000000000000000000000000000098
:100860000000000000000000000000000000000088
:100870000000000000000000000000000000000078
:100880000000000000000000000000000000000068
:100890000000000000000000000000000000000058
:1008A0000000000000000000000000000000000048
:1008B0000000000013131313131313131313131354
:1008C00013131313131313131313131313131313F8
:1008D0001313131313131313131313000000000047
:1008E0000000000000000000000000000000000008
:1008F00000000000000000000000000000000000F8
:1009000000000000000000000000000000000000E7
:1009100000000000000000000000000000000000D7
:1009200000000000000000000000000000000000C7
:1009300000000000000000000000000000000000B7
:1009400000000000000000000000000000000000A7
:100950000000001414141414141414141414141493
:100960001414141414141414141414141414141447
:100970001414141414141414141414140000000087
:100980000000000000000000000000000000000067
:100990000000000000000000000000000000000057
:1009A0000000000000000000000000000000000047
:1009B0000000000000000000000000000000000037
:1009C0000000000000000000000000000000000027
:1009D0000000000000000000000000000000000017
:1009E0000000000000000000000000000000000007
:1009F00000000016161616161616161616161616D9
:100A00001616161616161616161616161616161686
:100A100016161616161616161616161616000000B8
:100A200000000000000000000000000000000000C6
:100A300000000000000000000000000000000000B6
:100A400000000000000000000000000000000000A6
:100A50000000000000000000000000000000000096
:100A60000000000000000000000000000000000086
:100A70000000000000000000000000000000000076
:100A80000000000000000000000000000000000066
:100A90000000181818181818181818181818181806
:100AA00018181818181818181818181818181818C6
:100AB00018181818181818181818181818000000FE
:100AC0000000000000000000000000000000000026
:100AD0000000000000000000000000000000000016
:100AE0000000000000000000000000000000000006
:100AF00000000000000000000000000000000000F6
:100B000000000000000000000000000000000000E5
:100B100000000000000000000000000000000000D5
:100B200000000000000000000000000000000000C5
:100B3000001919191919191919191919191919193E
:100B40001919191919191919191919191919191915
:100B50001919191919191919191919191919000037
:100B60000000000000000000000000000000000085
:100B70000000000000000000000000000000000075
:100B80000000000000000000000000000000000065
:100B90000000000000000000000000000000000055
:100BA0000000000000000000000000000000000045
:100BB0000000000000000000000000000000000035
:100BC0000000000000000000000000000000000025
:100BD0001B1B1B1B1B1B1B1B1B1B1B1B1B1B1B1B65
:100BE0001B1B1B1B1B1B1B1B1B1B1B1B1B1B1B1B55
:100BF0001B1B1B1B1B1B1B1B1B1B1B1B1B1B1B0060
:100C000000000000000000000000000000000000E4
:100C100000000000000000000000000000000000D4
:100C200000000000000000000000000000000000C4
:100C300000000000000000000000000000000000B4
:100C400000000000000000000000000000000000A4
:100C50000000000000000000000000000000000094
:100C60000000000000000000000000000000000084
:100C70001C1C1C1C1C1C1C1C1C1C1C1C1C1C1C1CB4
:100C80001C1C1C1C1C1C1C1C1C1C1C1C1C1C1C1CA4
:100C90001C1C1C1C1C1C1C1C1C1C1C1C1C1C1C1C94
:100CA0000000000000000000000000000000000044
:100CB0000000000000000000000000000000000034
:100CC0000000000000000000000000000000000024
:100CD0000000000000000000000000000000000014
:100CE0000000000000000000000000000000000004
:100CF00000000000000000000000000000000000F4
:100D00000000000000000000000000000000001DC6
:100D10001D1D1D1D1D1D1D1D1D1D1D1D1D1D1D1D03
:100D20001D1D1D1D1D1D1D1D1D1D1D1D1D1D1D1DF3
:100D30001D1D1D1D1D1D1D1D1D1D1D1D1D1D1D1DE3
:100D400000000000000000000000000000000000A3
:100D50000000000000000000000000000000000093
:100D60000000000000000000000000000000000083
:100D70000000000000000000000000000000000073
:100D80000000000000000000000000000000000063
:100D90000000000000000000000000000000000053
:100DA00000000000000000000000000000001E1E07
:100DB0001E1E1E1E1E1E1E1E1E1E1E1E1E1E1E1E53
:100DC0001E1E1E1E1E1E1E1E1E1E1E1E1E1E1E1E43
:100DD0001E1E1E1E1E1E1E1E1E1E1E1E1E1E1E1E33
:100DE0001E000000000000000000000000000000E5
:100DF00000000000000000000000000000000000F3
:100E000000000000000000000000000000000000E2
:100E100000000000000000000000000000000000D2
:100E200000000000000000000000000000000000C2
:100E300000000000000000000000000000000000B2
:100E400000000000000000000000000000001F1F64
:100E50001F1F1F1F1F1F1F1F1F1F1F1F1F1F1F1FA2
:100E60001F1F1F1F1F1F1F1F1F1F1F1F1F1F1F1F92
:100E70001F1F1F1F1F1F1F1F1F1F1F1F1F1F1F1F82
:100E80001F1F000000000000000000000000000024
:100E90000000000000000000000000000000000052
:100EA0000000000000000000000000000000000042
:100EB0000000000000000000000000000000000032
:100EC0000000000000000000000000000000000022
:100ED0000000000000000000000000000000000012
:100EE000000000000000000000000000002121219F
:100EF00021212121212121212121212121212121E2
:100F000021212121212121212121212121212121D1
:100F100021212121212121212121212121212121C1
:100F2000212121000000000000000000000000005E
:100F300000000000000000000000000000000000B1
:100F400000000000000000000000000000000000A1
:100F50000000000000000000000000000000000091
:100F60000000000000000000000000000000000081
:100F70000000000000000000000000000000000071
:100F800000000000000000000000000022222222D9
:100F90002222222222222222222222222222222231
:100FA0002222222222222222222222222222222221
:100FB0002222222222222222222222222222222211
:100FC00022222200000000000000000000000000BB
:100FD0000000000000000000000000000000000011
:100FE0000000000000000000000000000000000001
:100FF00000000000000000000000000000000000F1
:1010000000000000000000000000000000000000E0
:1010100000000000000000000000000000000000D0
:101020000000000000000000000000222222222216
:101030002222222222222222222222222222222290
:101040002222222222222222222222222222222280
:101050002222222222222222222222222222222270
:1010600022222222000000000000000000000000F8
:101070000000000000000000000000000000000070
:101080000000000000000000000000000000000060
:101090000000000000000000000000000000000050
:1010A0000000000000000000000000000000000040
:1010B0000000000000000000000000000000000030
:1010C0000000000000000000000000232323232371
:1010D00023232323232323232323232323232323E0
:1010E00023232323232323232323232323232323D0
:1010F00023232323232323232323232323232323C0
:101100002323232323000000000000000000000030
:1011100000000000000000000000000000000000CF
:1011200000000000000000000000000000000000BF
:1011300000000000000000000000000000000000AF
:10114000000000000000000000000000000000009F
:10115000000000000000000000000000000000008F
:1011600000000000000000000000242424242424A7
:10117000242424242424242424242424242424242F
:10118000242424242424242424242424242424241F
:10119000242424242424242424242424242424240F
:1011A000242424242400000000000000000000008B
:1011B000000000000000000000000000000000002F
:1011C000000000000000000000000000000000001F
:1011D000000000000000000000000000000000000F
:1011E00000000000000000000000000000000000FF
:1011F00000000000000000000000000000000000EF
:1012000000000000000000000025252525252525DB
:10121000252525252525252525252525252525257E
:10122000252525252525252525252525252525256E
:10123000252525252525252525252525252525255E
:1012400025252525252500000000000000000000C0
:10125000000000000000000000000000000000008E
:10126000000000000000000000000000000000007E
:10127000000000000000000000000000000000006E
:10128000000000000000000000000000000000005E
:10129000000000000000000000000000000000004E
:1012A0000000000000000000002626262626262634
:1012B00026262626262626262626262626262626CE
:1012C00026262626262626262626262626262626BE
:1012D00026262626262626262626262626262626AE
:1012E00026262626262626000000000000000000F4
:1012F00000000000000000000000000000000000EE
:1013000000000000000000000000000000000000DD
:1013100000000000000000000000000000000000CD
:1013200000000000000000000000000000000000BD
:1013300000000000000000000000000000000000AD
:101340000000000000000000272727272727272765
:10135000272727272727272727272727272727271D
:10136000272727272727272727272727272727270D
:1013700027272727272727272727272727272727FD
:101380002727272727272727000000000000000025
:10139000000000000000000000000000000000004D
:1013A000000000000000000000000000000000003D
:1013B000000000000000000000000000000000002D
:1013C000000000000000000000000000000000001D
:1013D000000000000000000000000000000000000D
:1013E000000000000000002727272727272727279E
:1013F000272727272727272727272727272727277D
:10140000272727272727272727272727272727276C
:10141000272727272727272727272727272727275C
:101420002727272727272727000000000000000084
:1014300000000000000000000000000000000000AC
:10144000000000000000000000000000000000009C
:10145000000000000000000000000000000000008C
:10146000000000000000000000000000000000007C
:10147000000000000000000000000000000000006C
:1014800000000000000028282828282828282828CC
:1014900028282828282828282828282828282828CC
:1014A00028282828282828282828282828282828BC
:1014B00028282828282828282828282828282828AC
:1014C00028282828282828282800000000000000B4
:1014D000000000000000000000000000000000000C
:1014E00000000000000000000000000000000000FC
:1014F00000000000000000000000000000000000EC
:1015000000000000000000000000000000000000DB
:1015100000000000000000000000000000000000CB
:101520000000000000002929292929292929292921
:10153000292929292929292929292929292929291B
:10154000292929292929292929292929292929290B
:1015500029292929292929292929292929292929FB
:1015600029292929292929292929000000000000E1
:10157000000000000000000000000000000000006B
:10158000000000000000000000000000000000005B
:10159000000000000000000000000000000000004B
:1015A000000000000000000000000000000000003B
:1015B000000000000000000000000000000000002B
:1015C0000000000000292929292929292929292958
:1015D000292929292929292929292929292929297B
:1015E000292929292929292929292929292929296B
:1015F000292929292929292929292929292929295B
:101600002929292929292929292929000000000017
:1016100000000000000000000000000000000000CA
:1016200000000000000000000000000000000000BA
:1016300000000000000000000000000000000000AA
:10164000000000000000000000000000000000009A
:10165000000000000000000000000000000000008A
:10166000000000002A2A2A2A2A2A2A2A2A2A2A2A82
:101670002A2A2A2A2A2A2A2A2A2A2A2A2A2A2A2ACA
:101680002A2A2A2A2A2A2A2A2A2A2A2A2A2A2A2ABA
:101690002A2A2A2A2A2A2A2A2A2A2A2A2A2A2A2AAA
:1016A0002A2A2A2A2A2A2A2A2A2A2A00000000006C
:1016B000000000000000000000000000000000002A
:1016C000000000000000000000000000000000001A
:1016D000000000000000000000000000000000000A
:1016E00000000000000000000000000000000000FA
:1016F00000000000000000000000000000000000EA
:101700000000002A2A2A2A2A2A2A2A2A2A2A2A2AB7
:101710002A2A2A2A2A2A2A2A2A2A2A2A2A2A2A2A29
:101720002A2A2A2A2A2A2A2A2A2A2A2A2A2A2A2A19
:101730002A2A2A2A2A2A2A2A2A2A2A2A2A2A2A2A09
:101740002A2A2A2A2A2A2A2A2A2A2A2A00000000A1
:101750000000000000000000000000000000000089
:101760000000000000000000000000000000000079
:101770000000000000000000000000000000000069
:101780000000000000000000000000000000000059
:101790000000000000000000000000000000000049
:1017A0000000002B2B2B2B2B2B2B2B2B2B2B2B2B0A
:1017B0002B2B2B2B2B2B2B2B2B2B2B2B2B2B2B2B79
:1017C0002B2B2B2B2B2B2B2B2B2B2B2B2B2B2B2B69
:1017D0002B2B2B2B2B2B2B2B2B2B2B2B2B2B2B2B59
:1017E0002B2B2B2B2B2B2B2B2B2B2B2B2B000000CA
:1017F00000000000000000000000000000000000E9
:1018000000000000000000000000000000000000D8
:1018100000000000000000000000000000000000C8
:1018200000000000000000000000000000000000B8
:1018300000000000000000000000000000000000A8
:1018400000002B2B2B2B2B2B2B2B2B2B2B2B2B2B3E
:101850002B2B2B2B2B2B2B2B2B2B2B2B2B2B2B2BD8
:101860002B2B2B2B2B2B2B2B2B2B2B2B2B2B2B2BC8
:101870002B2B2B2B2B2B2B2B2B2B2B2B2B2B2B2BB8
:101880002B2B2B2B2B2B2B2B2B2B2B2B2B00000029
:101890000000000000000000000000000000000048
:1018A0000000000000000000000000000000000038
:1018B0000000000000000000000000000000000028
:1018C0000000000000000000000000000000000018
:1018D0000000000000000000000000000000000008
:1018E000002C2C2C2C2C2C2C2C2C2C2C2C2C2C2C64
:1018F0002C2C2C2C2C2C2C2C2C2C2C2C2C2C2C2C28
:101900002C2C2C2C2C2C2C2C2C2C2C2C2C2C2C2C17
:101910002C2C2C2C2C2C2C2C2C2C2C2C2C2C2C2C07
:101920002C2C2C2C2C2C2C2C2C2C2C2C2C2C00004F
:1019300000000000000000000000000000000000A7
:101940000000000000000000000000000000000097
:101950000000000000000000000000000000000087
:101960000000000000000000000000000000000077
:101970000000000000000000000000000000000067
:10198000002C2C2C2C2C2C2C2C2C2C2C2C2C2C2CC3
:101990002C2C2C2C2C2C2C2C2C2C2C2C2C2C2C2C87
:1019A0002C2C2C2C2C2C2C2C2C2C2C2C2C2C2C2C77
:1019B0002C2C2C2C2C2C2C2C2C2C2C2C2C2C2C2C67
:1019C0002C2C2C2C2C2C2C2C2C2C2C2C2C2C2C0083
:1019D0000000000000000000000000000000000007
:1019E00000000000000000000000000000000000F7
:1019F00000000000000000000000000000000000E7
:101A000000000000000000000000000000000000D6
:101A100000000000000000000000000000000000C6
:101A20002D2D2D2D2D2D2D2D2D2D2D2D2D2D2D2DE6
:101A30002D2D2D2D2D2D2D2D2D2D2D2D2D2D2D2DD6
:101A40002D2D2D2D2D2D2D2D2D2D2D2D2D2D2D2DC6
:101A50002D2D2D2D2D2D2D2D2D2D2D2D2D2D2D2DB6
:101A60002D2D2D2D2D2D2D2D2D2D2D2D2D2D2D2DA6
:101A70000000000000000000000000000000000066
:101A80000000000000000000000000000000000056
:101A90000000000000000000000000000000000046
:101AA0000000000000000000000000000000000036
:101AB0000000000000000000000000000000002DF9
:101AC0002D2D2D2D2D2D2D2D2D2D2D2D2D2D2D2D46
:101AD0002D2D2D2D2D2D2D2D2D2D2D2D2D2D2D2D36
:101AE0002D2D2D2D2D2D2D2D2D2D2D2D2D2D2D2D26
:101AF0002D2D2D2D2D2D2D2D2D2D2D2D2D2D2D2D16
:101B00002D2D2D2D2D2D2D2D2D2D2D2D2D2D2D2D05
:101B100000000000000000000000000000000000C5
:101B200000000000000000000000000000000000B5
:101B300000000000000000000000000000000000A5
:101B40000000000000000000000000000000000095
:101B500000000000000000000000000000002E2E29
:101B60002E2E2E2E2E2E2E2E2E2E2E2E2E2E2E2E95
:101B70002E2E2E2E2E2E2E2E2E2E2E2E2E2E2E2E85
:101B80002E2E2E2E2E2E2E2E2E2E2E2E2E2E2E2E75
:101B90002E2E2E2E2E2E2E2E2E2E2E2E2E2E2E2E65
:101BA0002E2E2E2E2E2E2E2E2E2E2E2E2E2E2E2E55
:101BB0002E000000000000000000000000000000F7
:101BC0000000000000000000000000000000000015
:101BD0000000000000000000000000000000000005
:101BE00000000000000000000000000000000000F5
:101BF00000000000000000000000000000002E2E89
:101C00002E2E2E2E2E2E2E2E2E2E2E2E2E2E2E2EF4
:101C10002E2E2E2E2E2E2E2E2E2E2E2E2E2E2E2EE4
:101C20002E2E2E2E2E2E2E2E2E2E2E2E2E2E2E2ED4
:101C30002E2E2E2E2E2E2E2E2E2E2E2E2E2E2E2EC4
:101C40002E2E2E2E2E2E2E2E2E2E2E2E2E2E2E2EB4
:101C50002E2E000000000000000000000000000028
:101C60000000000000000000000000000000000074
:101C70000000000000000000000000000000000064
:101C80000000000000000000000000000000000054
:101C9000000000000000000000000000002F2F2FB7
:101CA0002F2F2F2F2F2F2F2F2F2F2F2F2F2F2F2F44
:101CB0002F2F2F2F2F2F2F2F2F2F2F2F2F2F2F2F34
:101CC0002F2F2F2F2F2F2F2F2F2F2F2F2F2F2F2F24
:101CD0002F2F2F2F2F2F2F2F2F2F2F2F2F2F2F2F14
:101CE0002F2F2F2F2F2F2F2F2F2F2F2F2F2F2F2F04
:101CF0002F2F000000000000000000000000000086
:101D000000000000000000000000000000000000D3
:101D100000000000000000000000000000000000C3
:101D200000000000000000000000000000000000B3
:101D30000000000000000000000000002F2F2F2FE7
:101D40002F2F2F2F2F2F2F2F2F2F2F2F2F2F2F2FA3
:101D50002F2F2F2F2F2F2F2F2F2F2F2F2F2F2F2F93
:101D60002F2F2F2F2F2F2F2F2F2F2F2F2F2F2F2F83
:101D70002F2F2F2F2F2F2F2F2F2F2F2F2F2F2F2F73
:101D80002F2F2F2F2F2F2F2F2F2F2F2F2F2F2F2F63
:101D90002F2F2F00000000000000000000000000B6
:101DA0000000000000000000000000000000000033
:101DB0000000000000000000000000000000000023
:101DC0000000000000000000000000000000000013
:101DD0000000000000000000000000002F2F2F2F47
:101DE0002F2F2F2F2F2F2F2F2F2F2F2F2F2F2F2F03
:101DF0002F2F2F2F2F2F2F2F2F2F2F2F2F2F2F2FF3
:101E00002F2F2F2F2F2F2F2F2F2F2F2F2F2F2F2FE2
:101E10002F2F2F2F2F2F2F2F2F2F2F2F2F2F2F2FD2
:101E20002F2F2F2F2F2F2F2F2F2F2F2F2F2F2F2FC2
:101E30002F2F2F2F000000000000000000000000E6
:101E40000000000000000000000000000000000092
:101E50000000000000000000000000000000000082
:101E60000000000000000000000000000000000072
:101E70000000000000000000000000303030303072
:101E80003030303030303030303030303030303052
:101E90003030303030303030303030303030303042
:101EA0003030303030303030303030303030303032
:101EB0003030303030303030303030303030303022
:101EC0003030303030303030303030303030303012
:101ED0003030303030000000000000000000000012
:101EE00000000000000000000000000000000000F2
:101EF00000000000000000000000000000000000E2
:101F000000000000000000000000000000000000D1
:101F100000000000000000000000303030303030A1
:101F200030303030303030303030303030303030B1
:101F300030303030303030303030303030303030A1
:101F40003030303030303030303030303030303091
:101F50003030303030303030303030303030303081
:101F60003030303030303030303030303030303071
:101F70003030303030000000000000000000000071
:101F80000000000000000000000000000000000051
:101F90000000000000000000000000000000000041
:101FA0000000000000000000000000000000000031
:101FB00000000000000000000030303030303030D1
:101FC0003030303030303030303030303030303011
:101FD0003030303030303030303030303030303001
:101FE00030303030303030303030303030303030F1
:101FF00030303030303030303030303030303030E1
:1020000030303030303030303030303030303030D0
:1020100030303030303000000000000000000000A0
:1020200000000000000000000000000000000000B0
:1020300000000000000000000000000000000000A0
:102040000000000000000000000000000000000090
:102050000000000000000000003131313131313129
:102060003131313131313131313131313131313160
:102070003131313131313131313131313131313150
:102080003131313131313131313131313131313140
:102090003131313131313131313131313131313130
:1020A0003131313131313131313131313131313120
:1020B00031313131313131000000000000000000C9
:1020C0000000000000000000000000000000000010
:1020D0000000000000000000000000000000000000
:1020E00000000000000000000000000000000000F0
:1020F0000000000000000000313131313131313158
:1021000031313131313131313131313131313131BF
:1021100031313131313131313131313131313131AF
:10212000313131313131313131313131313131319F
:10213000313131313131313131313131313131318F
:10214000313131313131313131313131313131317F
:1021500031313131313131310000000000000000F7
:10216000000000000000000000000000000000006F
:10217000000000000000000000000000000000005F
:10218000000000000000000000000000000000004F
:102190000000000000000031313131313131313186
:1021A000313131313131313131313131313131311F
:1021B000313131313131313131313131313131310F
:1021C00031313131313131313131313131313131FF
:1021D00031313131313131313131313131313131EF
:1021E00031313131313131313131313131313131DF
:1021F0003131313131313131000000000000000057
:1022000000000000000000000000000000000000CE
:1022100000000000000000000000000000000000BE
:1022200000000000000000000000000000000000AE
:1022300000000000000000323232323232323232DC
:10224000323232323232323232323232323232326E
:10225000323232323232323232323232323232325E
:10226000323232323232323232323232323232324E
:10227000323232323232323232323232323232323E
:10228000323232323232323232323232323232322E
:10229000323232323232323232000000000000007C
:1022A000000000000000000000000000000000002E
:1022B000000000000000000000000000000000001E
:1022C000000000000000000000000000000000000E
:1022D000000000000000323232323232323232320A
:1022E00032323232323232323232323232323232CE
:1022F00032323232323232323232323232323232BE
:1023000032323232323232323232323232323232AD
:10231000323232323232323232323232323232329D
:10232000323232323232323232323232323232328D
:1023300032323232323232323232000000000000A9
:10234000000000000000000000000000000000008D
:10235000000000000000000000000000000000007D
:10236000000000000000000000000000000000006D
:102370000000000000323232323232323232323237
:10238000323232323232323232323232323232322D
:10239000323232323232323232323232323232321D
:1023A000323232323232323232323232323232320D
:1023B00032323232323232323232323232323232FD
:1023C00032323232323232323232323232323232ED
:1023D0003232323232323232323200000000000009
:1023E00000000000000000000000000000000000ED
:1023F00000000000000000000000000000000000DD
:1024000000000000000000000000000000000000CC
:102410000000000033333333333333333333333358
:10242000333333333333333333333333333333337C
:10243000333333333333333333333333333333336C
:10244000333333333333333333333333333333335C
:10245000333333333333333333333333333333334C
:10246000333333333333333333333333333333333C
:10247000333333333333333333333300000000002B
:10248000000000000000000000000000000000004C
:10249000000000000000000000000000000000003C
:1024A000000000000000000000000000000000002C
:1024B00000000000333333333333333333333333B8
:1024C00033333333333333333333333333333333DC
:1024D00033333333333333333333333333333333CC
:1024E00033333333333333333333333333333333BC
:1024F00033333333333333333333333333333333AC
:10250000333333333333333333333333333333339B
:102510003333333333333333333333330000000057
:1025200000000000000000000000000000000000AB
:10253000000000000000000000000000000000009B
:10254000000000000000000000000000000000008B
:1025500000000033333333333333333333333333E4
:10256000333333333333333333333333333333333B
:10257000333333333333333333333333333333332B
:10258000333333333333333333333333333333331B
:10259000333333333333333333333333333333330B
:1025A00033333333333333333333333333333333FB
:1025B0003333333333333333333333333300000084
:1025C000000000000000000000000000000000000B
:1025D00000000000000000000000000000000000FB
:1025E00000000000000000000000000000000000EB
:1025F0000000333333333333333333333333333311
:10260000333333333333333333333333333333339A
:10261000333333333333333333333333333333338A
:10262000333333333333333333333333333333337A
:10263000333333333333333333333333333333336A
:10264000333333333333333333333333333333335A
:1026500033333333333333333333333333000000E3
:10266000000000000000000000000000000000006A
:10267000000000000000000000000000000000005A
:10268000000000000000000000000000000000004A
:102690000000343434343434343434343434343462
:1026A00034343434343434343434343434343434EA
:1026B00034343434343434343434343434343434DA
:1026C00034343434343434343434343434343434CA
:1026D00034343434343434343434343434343434BA
:1026E00034343434343434343434343434343434AA
:1026F0003434343434343434343434343434000002
:1027000000000000000000000000000000000000C9
:1027100000000000000000000000000000000000B9
:1027200000000000000000000000000000000000A9
:10273000003434343434343434343434343434348D
:102740003434343434343434343434343434343449
:102750003434343434343434343434343434343439
:102760003434343434343434343434343434343429
:102770003434343434343434343434343434343419
:102780003434343434343434343434343434343409
:10279000343434343434343434343434343434002D
:1027A0000000000000000000000000000000000029
:1027B0000000000000000000000000000000000019
:1027C0000000000000000000000000000000000009
:1027D00034343434343434343434343434343434B9
:1027E00034343434343434343434343434343434A9
:1027F0003434343434343434343434343434343499
:102800003434343434343434343434343434343488
:102810003434343434343434343434343434343478
:102820003434343434343434343434343434343468
:10283000343434343434343434343434343434008C
:102840000000000000000000000000000000000088
:102850000000000000000000000000000000000078
:102860000000000000000000000000000000003434
:102870003434343434343434343434343434343418
:102880003434343434343434343434343434343408
:1028900034343434343434343434343434343434F8
:1028A00034343434343434343434343434343434E8
:1028B00034343434343434343434343434343434D8
:1028C00034343434343434343434343434343434C8
:1028D00034343434343434343434343434343434B8
:1028E00000000000000000000000000000000000E8
:1028F00000000000000000000000000000000000D8
:102900000000000000000000000000000000003592
:102910003535353535353535353535353535353567
:102920003535353535353535353535353535353557
:102930003535353535353535353535353535353547
:102940003535353535353535353535353535353537
:102950003535353535353535353535353535353527
:102960003535353535353535353535353535353517
:102970003535353535353535353535353535353507
:102980003500000000000000000000000000000012
:102990000000000000000000000000000000000037
:1029A0000000000000000000000000000000000027
:1029B0000000000000000000000000000000000017
:1029C0000000000000000000000000000000000007
:1029D00000000000000000000003080D13181E2373
:1029E000292E34393F444A4F545A5F656A70757BCB
:1029F00080868B91969B0000000000000000000084
:102A000000000000000000000000000000000000C6
:102A100000000000000000000000000000000000B6
:102A200000000000000000000000000000000000A6
:102A30000000000000000000000000000000000096
:102A40000000000000000000000000000000000086
:102A50000000000000000000000000000000000076
:102A60000000000000000000000000000000000066
:102A7000000000000000000001060B11161B2025BD
:102A80002B30353A3F454A4F54595F64696E73792C
:102A90007E83888D93989D00000000000000000058
:102AA0000000000000000000000000000000000026
:102AB0000000000000000000000000000000000016
:102AC0000000000000000000000000000000000006
:102AD00000000000000000000000000000000000F6
:102AE00000000000000000000000000000000000E6
:102AF00000000000000000000000000000000000D6
:102B000000000000000000000000000000000000C5
:102B1000000000000000000004090E13181D222709
:102B20002C31363B40454A4F54595E63686D72778D
:102B30007C81868B90959A9F000000000000000029
:102B40000000000000000000000000000000000085
:102B50000000000000000000000000000000000075
:102B60000000000000000000000000000000000065
:102B70000000000000000000000000000000000055
:102B80000000000000000000000000000000000045
:102B90000000000000000000000000000000000035
:102BA0000000000000000000000000000000000025
:102BB0000000000000000003080C11161B1F242950
:102BC0002E32373C41454A4F54595D62676C7075EF
:102BD0007A7F83888D92969B0000000000000000A1
:102BE00000000000000000000000000000000000E5
:102BF00000000000000000000000000000000000D5
:102C000000000000000000000000000000000000C4
:102C100000000000000000000000000000000000B4
:102C200000000000000000000000000000000000A4
:102C30000000000000000000000000000000000094
:102C40000000000000000000000000000000000084
:102C500000000000000001060B0F14181D21262A99
:102C60002F34383D41464A4F54585D61666A6F744F
:102C7000787D81868A8F93989D0000000000000077
:102C80000000000000000000000000000000000044
:102C90000000000000000000000000000000000034
:102CA0000000000000000000000000000000000024
:102CB0000000000000000000000000000000000014
:102CC0000000000000000000000000000000000004
:102CD00000000000000000000000000000000000F4
:102CE00000000000000000000000000000000000E4
:102CF00000000000000004090D12161A1F23282CE2
:102D00003035393D42464B4F53585C6165696E72B0
:102D1000767B7F84888C91959A9E0000000000004D
:102D200000000000000000000000000000000000A3
:102D30000000000000000000000000000000000093
:102D40000000000000000000000000000000000083
:102D50000000000000000000000000000000000073
:102D60000000000000000000000000000000000063
:102D70000000000000000000000000000000000053
:102D80000000000000000000000000000000000043
:102D9000000000000003070C1014181C2125292D29
:102DA00031363A3E42474B4F53575C6064686D7111
:102DB00075797D82868A8E92979B9F000000000025
:102DC0000000000000000000000000000000000003
:102DD00000000000000000000000000000000000F3
:102DE00000000000000000000000000000000000E3
:102DF00000000000000000000000000000000000D3
:102E000000000000000000000000000000000000C2
:102E100000000000000000000000000000000000B2
:102E200000000000000000000000000000000000A2
:102E30000000000002060A0E12161A1E22262A2E72
:102E400033373B3F43474B4F53575B5F63676B7071
:102E500074787C8084888C9094989C00000000009A
:102E60000000000000000000000000000000000062
:102E70000000000000000000000000000000000052
:102E80000000000000000000000000000000000042
:102E90000000000000000000000000000000000032
:102EA0000000000000000000000000000000000022
:102EB0000000000000000000000000000000000012
:102EC0000000000000000000000000000000000002
:102ED0000000000104080C1014181C2024282C30B9
:102EE00034373B3F43474B4F53575B5F63676A6ED3
:102EF00072767A7E82868A8E92969A9D0000000073
:102F000000000000000000000000000000000000C1
:102F100000000000000000000000000000000000B1
:102F200000000000000000000000000000000000A1
:102F30000000000000000000000000000000000091
:102F40000000000000000000000000000000000081
:102F50000000000000000000000000000000000071
:102F60000000000000000000000000000000000061
:102F700000000003070B0F12161A1E2225292D31FF
:102F800034383C4044474B4F53575A5E62666A6D33
:102F90007175797C8084888C8F93979B9F0000004B
:102FA0000000000000000000000000000000000021
:102FB0000000000000000000000000000000000011
:102FC0000000000000000000000000000000000001
:102FD00000000000000000000000000000000000F1
:102FE00000000000000000000000000000000000E1
:102FF00000000000000000000000000000000000D1
:1030000000000000000000000000000000000000C0
:1030100000000206090D1114181C1F23272A2E3246
:1030200035393D4044484B4F53565A5E6165696C93
:103030007074777B7F82868A8D9195989C000000C2
:103040000000000000000000000000000000000080
:103050000000000000000000000000000000000070
:103060000000000000000000000000000000000060
:103070000000000000000000000000000000000050
:103080000000000000000000000000000000000040
:103090000000000000000000000000000000000030
:1030A0000000000000000000000000000000000020
:1030B000000105080C0F13161A1D2124282C2F338C
:1030C000363A3D4144484B4F53565A5D6164686BF4
:1030D0006F72767A7D8184888B8F9296999D00009D
:1030E00000000000000000000000000000000000E0
:1030F00000000000000000000000000000000000D0
:1031000000000000000000000000000000000000BF
:1031100000000000000000000000000000000000AF
:10312000000000000000000000000000000000009F
:10313000000000000000000000000000000000008F
:10314000000000000000000000000000000000007F
:103150000003070A0E1115181B1F2226292D3034D3
:10316000373A3E4145484C4F5256595D6064676A54
:103170006E7175787C7F8386898D9094979B9E0075
:10318000000000000000000000000000000000003F
:10319000000000000000000000000000000000002F
:1031A000000000000000000000000000000000001F
:1031B000000000000000000000000000000000000F
:1031C00000000000000000000000000000000000FF
:1031D00000000000000000000000000000000000EF
:1031E00000000000000000000000000000000000DF
:1031F0000206090C1013161A1D2024272A2E31341A
:10320000383B3E4245484C4F5256595C6063666AB3
:103210006D7074777A7E8184888B8E9295989C9F4E
:10322000000000000000000000000000000000009E
:10323000000000000000000000000000000000008E
:10324000000000000000000000000000000000007E
:10325000000000000000000000000000000000006E
:10326000000000000000000000000000000000005E
:10327000000000000000000000000000000000004E
:10328000000000000000000000000000000000013D
:1032900005080B0E1215181B1E2225282B2F323560
:1032A000383C3F4245494C4F5255595C5F62666914
:1032B0006C6F7376797C808386898C909396999DC8
:1032C00000000000000000000000000000000000FE
:1032D00000000000000000000000000000000000EE
:1032E00000000000000000000000000000000000DE
:1032F00000000000000000000000000000000000CE
:1033000000000000000000000000000000000000BD
:1033100000000000000000000000000000000000AD
:103320000000000000000000000000000000000499
:10333000070A0D1013161A1D202326292C303336A8
:10334000393C3F4246494C4F5255585C5F62656874
:103350006B6E7275787B7E8184888B8E9194979A40
:103360009E000000000000000000000000000000BF
:10337000000000000000000000000000000000004D
:10338000000000000000000000000000000000003D
:10339000000000000000000000000000000000002D
:1033A000000000000000000000000000000000001D
:1033B000000000000000000000000000000000000D
:1033C00000000000000000000000000000000306F4
:1033D000090C0F1215181B1E2124272A2D303337F4
:1033E0003A3D404346494C4F5255585B5E616467D5
:1033F0006B6E7174777A7D808386898C8F929598B5
:103400009B9F000000000000000000000000000082
:1034100000000000000000000000000000000000AC
:10342000000000000000000000000000000000009C
:10343000000000000000000000000000000000008C
:10344000000000000000000000000000000000007C
:10345000000000000000000000000000000000006C
:10346000000000000000000000000000000205084D
:103470000B0E101316191C1F2225282B2E31343742
:103480003A3D404346494C4F5255585B5E61646734
:103490006A6D707376797C7F8285888B8E90939627
:1034A000999C9F0000000000000000000000000048
:1034B000000000000000000000000000000000000C
:1034C00000000000000000000000000000000000FC
:1034D00000000000000000000000000000000000EC
:1034E00000000000000000000000000000000000DC
:1034F00000000000000000000000000000000000CC
:1035000000000000000000000000000001040709A6
:103510000C0F1215181B1E212426292C2F3235388A
:103520003B3E414346494C4F5255585B5D60636694
:10353000696C6F7275787A7D808386898C8F92959D
:10354000979A9D00000000000000000000000000AD
:10355000000000000000000000000000000000006B
:10356000000000000000000000000000000000005B
:10357000000000000000000000000000000000004B
:10358000000000000000000000000000000000003B
:10359000000000000000000000000000000000002B
:1035A0000000000000000000000000000306080BFF
:1035B0000E111416191C1F2225272A2D30333638D8
:1035C0003B3E414447494C4F5255575A5D606366F4
:1035D000686B6E717477797C7F8285888A8D909311
:1035E00096989B9E00000000000000000000000074
:1035F00000000000000000000000000000000000CB
:1036000000000000000000000000000000000000BA
:1036100000000000000000000000000000000000AA
:10362000000000000000000000000000000000009A
:10363000000000000000000000000000000000008A
:1036400000000000000000000000000205070A0D55
:10365000101215181B1D202326282B2E3133363926
:103660003C3E414447494C4F5255575A5D60626554
:10367000686B6D707376787B7E818386898C8E9182
:103680009497999C9F00000000000000000000003B
:10369000000000000000000000000000000000002A
:1036A000000000000000000000000000000000001A
:1036B000000000000000000000000000000000000A
:1036C00000000000000000000000000000000000FA
:1036D00000000000000000000000000000000000EA
:1036E00000000000000000000000010406090C0EAC
:1036F000111417191C1F212427292C2F3134373975
:103700003C3F4244474A4C4F5254575A5C5F6265B3
:10371000676A6D6F7275777A7D7F8285878A8D90F3
:103720009295989A9D0000000000000000000000A3
:103730000000000000000000000000000000000089
:103740000000000000000000000000000000000079
:103750000000000000000000000000000000000069
:103760000000000000000000000000000000000059
:103770000000000000000000000000000000000049
:10378000000000000000000000000305080B0D1001
:103790001315181A1D202225282A2D2F3235373AC5
:1037A0003D3F4244474A4C4F5254575A5C5F616414
:1037B00067696C6F717476797C7E818486898B8E63
:1037C000919396999B9E000000000000000000006D
:1037D00000000000000000000000000000000000E9
:1037E00000000000000000000000000000000000D9
:1037F00000000000000000000000000000000000C9
:1038000000000000000000000000000000000000B8
:1038100000000000000000000000000000000000A8
:103820000000000000000000000205070A0C0F1154
:103830001417191C1E212326292B2E303335383A14
:103840003D404245474A4C4F525457595C5E616473
:1038500066696B6E707375787B7D808285878A8DD3
:103860008F929497999C9F00000000000000000038
:103870000000000000000000000000000000000048
:103880000000000000000000000000000000000038
:103890000000000000000000000000000000000028
:1038A0000000000000000000000000000000000018
:1038B0000000000000000000000000000000000008
:1038C0000000000000000000010406090B0E1013A8
:1038D00015181A1D1F222427292C2E313336383B68
:1038E0003D404245474A4C4F525457595C5E6163D4
:1038F00066686B6D707275777A7C7F818486898B40
:103900008E909395989A9D9F000000000000000003
:1039100000000000000000000000000000000000A7
:103920000000000000000000000000000000000097
:103930000000000000000000000000000000000087
:103940000000000000000000000000000000000077
:103950000000000000000000000000000000000067
:1039600000000000000000010305080A0D0F1214FA
:1039700017191C1E202325282A2D2F323436393BB7
:103980003E404345484A4D4F515456595B5E606333
:1039900065686A6C6F717476797B7E808285878AB0
:1039A0008C8F919496999B9D000000000000000070
:1039B0000000000000000000000000000000000007
:1039C00000000000000000000000000000000000F7
:1039D00000000000000000000000000000000000E7
:1039E00000000000000000000000000000000000D7
:1039F00000000000000000000000000000000000C7
:103A000000000000000000020507090C0E1113154C
:103A1000181A1D1F212426292B2D30323537393C09
:103A20003E414345484A4D4F515456595B5D606293
:103A30006567696C6E717375787A7D7F818486891C
:103A40008B8D90929597999C9E000000000000003D
:103A50000000000000000000000000000000000066
:103A60000000000000000000000000000000000056
:103A70000000000000000000000000000000000046
:103A80000000000000000000000000000000000036
:103A90000000000000000000000000000000000026
:103AA000000000000000020406090B0D101214179C
:103AB000191B1E20222527292C2E303335383A3C5D
:103AC0003F414346484A4D4F515456585B5D5F62F3
:103AD0006466696B6E70727577797C7E808385878A
:103AE0008A8C8E919395989A9C9F0000000000000C
:103AF00000000000000000000000000000000000C6
:103B000000000000000000000000000000000000B5
:103B100000000000000000000000000000000000A5
:103B20000000000000000000000000000000000095
:103B30000000000000000000000000000000000085
:103B40000000000000010305080A0C0F11131618ED
:103B50001A1C1F212326282A2D2F313336383A3DAF
:103B60003F414446484A4D4F515456585A5D5F6153
:103B70006466686B6D6F717476787B7D7F828486F6
:103B8000888B8D8F929496999B9D9F0000000000DA
:103B90000000000000000000000000000000000025
:103BA0000000000000000000000000000000000015
:103BB0000000000000000000000000000000000005
:103BC00000000000000000000000000000000000F5
:103BD00000000000000000000000000000000000E5
:103BE0000000000000020507090B0E10121417193F
:103BF0001B1D20222426292B2D2F323436383B3D05
:103C00003F414446484A4D4F515456585A5D5F61B2
:103C10006366686A6C6F717375787A7C7E81838560
:103C2000878A8C8E90939597999C9E000000000047
:103C30000000000000000000000000000000000084
:103C40000000000000000000000000000000000074
:103C50000000000000000000000000000000000064
:103C60000000000000000000000000000000000054
:103C70000000000000000000000000000000000044
:103C800000000000020406080B0D0F111316181A8D
:103C90001C1E21232527292C2E30323537393B3D58
:103CA00040424446484B4D4F515356585A5C5E6112
:103CB000636567696C6E70727577797B7D808284CD
:103CC00086888B8D8F919396989A9C9E0000000019
:103CD00000000000000000000000000000000000E4
:103CE00000000000000000000000000000000000D4
:103CF00000000000000000000000000000000000C4
:103D000000000000000000000000000000000000B3
:103D100000000000000000000000000000000000A3
:103D2000000000010305080A0C0E10121517191BDC
:103D30001D1F222426282A2C2F31333537393C3EAB
:103D400040424446494B4D4F515355585A5C5E6072
:103D5000626567696B6D6F727476787A7C7F818338
:103D60008587898C8E90929496999B9D9F000000E8
:103D70000000000000000000000000000000000043
:103D80000000000000000000000000000000000033
:103D90000000000000000000000000000000000023
:103DA0000000000000000000000000000000000013
:103DB0000000000000000000000000000000000003
:103DC000000000030507090B0D0F111416181A1C2B
:103DD0001E20222527292B2D2F313336383A3C3E01
:103DE00040424447494B4D4F515355575A5C5E60D2
:103DF000626466686B6D6F71737577797C7E8082A3
:103E00008486888A8D8F91939597999B9E00000058
:103E100000000000000000000000000000000000A2
:103E20000000000000000000000000000000000092
:103E30000000000000000000000000000000000082
:103E40000000000000000000000000000000000072
:103E50000000000000000000000000000000000062
:103E60000000020406080A0C0E10131517191B1D7A
:103E70001F21232527292C2E30323436383A3C3E58
:103E800040424547494B4D4F51535557595C5E6031
:103E9000626466686A6C6E70727577797B7D7F810B
:103EA000838587898B8E90929496989A9C9E000029
:103EB0000000000000000000000000000000000002
:103EC00000000000000000000000000000000000F2
:103ED00000000000000000000000000000000000E2
:103EE00000000000000000000000000000000000D2
:103EF00000000000000000000000000000000000C2
:103F00000001030507090B0E10121416181A1C1EC7
:103F100020222426282A2C2E30323436383B3D3FAE
:103F200041434547494B4D4F51535557595B5D5F91
:103F3000616366686A6C6E70727476787A7C7E8073
:103F4000828486888A8C8E90939597999B9D9F00FA
:103F50000000000000000000000000000000000061
:103F60000000000000000000000000000000000051
:103F70000000000000000000000000000000000041
:103F80000000000000000000000000000000000031
:103F90000000000000000000000000000000000021
:103FA00001030507090B0D0F11131517191B1D1F11
:103FB00021232527292B2D2F31333537393B3D3F01
:103FC00041434547494B4D4F51535557595B5D5FF1
:103FD00061636567696B6D6F71737577797B7D7FE1
:103FE00081838587898B8D8F91939597999B9D9FD1
:103FF00000000000000000000000000000000000C1
:1040000000000000000000000000000000000000B0
:1040100000000000000000000000000000000000A0
:104020000000000000000000000000000000000090
:104030000000000000000000000000000000000080
:10404000020406080A0C0E10121416181A1C1E2060
:10405000222426282A2B2D2F31333537393B3D3F5B
:1040600041434547494B4D4F51535557595B5D5F50
:1040700061636567696B6D6F71737476787A7C7E46
:1040800080828486888A8C8E90929496989A9C9E40
:104090000000000000000000000000000000000020
:1040A0000000000000000000000000000000000010
:1040B0000000000000000000000000000000000000
:1040C00000000000000000000000000000000000F0
:1040D00000000000000000000000000000000001DF
:1040E000030507090B0D0F11131517191B1D1F20B1
:1040F000222426282A2C2E30323436383A3C3E3FB1
:1041000041434547494B4D4F51535557595B5D5FAF
:1041100060626466686A6C6E70727476787A7C7EAF
:104120007F81838587898B8D8F91939597999B9DAF
:104130009E000000000000000000000000000000E1
:10414000000000000000000000000000000000006F
:10415000000000000000000000000000000000005F
:10416000000000000000000000000000000000004F
:10417000000000000000000000000000000001033B
:104180000507080A0C0E10121416181A1C1D1F2100
:10419000232527292B2D2F31323436383A3C3E4007
:1041A00042444547494B4D4F51535557595A5C5E10
:1041B00060626466686A6C6D6F71737577797B7D18
:1041C0007F81828486888A8C8E9092949697999B20
:1041D0009D9F0000000000000000000000000000A3
:1041E00000000000000000000000000000000000CF
:1041F00000000000000000000000000000000000BF
:1042000000000000000000000000000000000000AE
:104210000000000000000000000000000000020498
:1042200006080A0C0D0F11131517191B1C1E20224E
:104230002426282A2B2D2F31333537393A3C3E405E
:1042400042444648494B4D4F51535556585A5C5E6F
:104250006062646567696B6D6F71737476787A7C80
:104260007E8082838587898B8D8F91929496989A90
:104270009C9E000000000000000000000000000004
:10428000000000000000000000000000000000002E
:10429000000000000000000000000000000000001E
:1042A000000000000000000000000000000000000E
:1042B00000000000000000000000000000020305F4
:1042C00007090B0D0F10121416181A1B1D1F21239E
:1042D0002526282A2C2E3032333537393B3D3E40B7
:1042E00042444648494B4D4F51535556585A5C5ECF
:1042F0006061636567696B6C6E7072747678797BE8
:104300007D7F81838486888A8C8E8F9193959799FF
:104310009B9C9E00000000000000000000000000C8
:10432000000000000000000000000000000000008D
:10433000000000000000000000000000000000007D
:10434000000000000000000000000000000000006D
:10435000000000000000000000000000010305074D
:10436000080A0C0E1011131517191A1C1E202224EE
:104370002527292B2D2E3032343637393B3D3F410E
:10438000424446484A4B4D4F51535456585A5C5D2F
:104390005F61636567686A6C6E7071737577797A4F
:1043A0007C7E8082848587898B8D8E90929496976F
:1043B000999B9D9F0000000000000000000000008D
:1043C00000000000000000000000000000000000ED
:1043D00000000000000000000000000000000000DD
:1043E00000000000000000000000000000000000CD
:1043F00000000000000000000000000102040608A8
:10440000090B0D0F1112141618191B1D1F21222440
:1044100026282A2B2D2F31323436383A3B3D3F4166
:10442000434446484A4B4D4F51535456585A5B5D8E
:104430005F61636466686A6C6D6F71737476787AB5
:104440007C7D7F81838586888A8C8D8F91939596DC
:10445000989A9C9D9F000000000000000000000052
:10446000000000000000000000000000000000004C
:10447000000000000000000000000000000000003C
:10448000000000000000000000000000000000002C
:104490000000000000000000000000020405070901
:1044A0000B0C0E1012131517191A1C1E2021232590
:1044B00027282A2C2E2F31333536383A3C3D3F41C0
:1044C000434446484A4B4D4F51535456585A5B5DEE
:1044D0005F6162646668696B6D6F7072747677791C
:1044E0007B7D7E8082848587898B8C8E909293954C
:1044F00097999A9C9E0000000000000000000000B8
:1045000000000000000000000000000000000000AB
:10451000000000000000000000000000000000009B
:10452000000000000000000000000000000000008B
:104530000000000000000000000001030506080A5A
:104540000C0D0F1113141618191B1D1F20222426E1
:1045500027292B2C2E3032333537393A3C3E3F4118
:10456000434546484A4C4D4F5152545658595B5D4D
:104570005F6062646567696B6C6E70727375777883
:104580007A7C7E7F81838586888A8B8D8F919294B9
:104590009698999B9D9E000000000000000000007E
:1045A000000000000000000000000000000000000B
:1045B00000000000000000000000000000000000FB
:1045C00000000000000000000000000000000000EB
:1045D0000000000000000000000102040608090BB2
:1045E0000D0E1012131517191A1C1E1F2123242635
:1045F000282A2B2D2F3032343537393B3C3E404171
:10460000434546484A4C4D4F5152545658595B5DAC
:104610005E6062636567696A6C6E6F7173747678E9
:104620007A7B7D7F8082848587898B8C8E90919325
:104630009596989A9C9D9F00000000000000000045
:10464000000000000000000000000000000000006A
:10465000000000000000000000000000000000005A
:10466000000000000000000000000000000000004A
:1046700000000000000000000002040507090A0C09
:104680000E0F1113141618191B1D1E202223252787
:10469000282A2C2D2F3133343638393B3D3E4042C9
:1046A000434547484A4C4D4F5152545657595B5C0D
:1046B0005E6061636566686A6B6D6F717274767750
:1046C000797B7C7E8081838586888A8B8D8F909292
:1046D000949597999A9C9E9F00000000000000000E
:1046E00000000000000000000000000000000000CA
:1046F00000000000000000000000000000000000BA
:1047000000000000000000000000000000000000A9
:10471000000000000000000001030506080A0B0D60
:104720000F1012141517191A1C1D1F2122242627D9
:10473000292B2C2E3031333536383A3B3D3E404222
:10474000434547484A4C4D4F5152545657595B5C6C
:104750005E606163646668696B6D6E7072737577B5
:10476000787A7C7D7F8182848587898A8C8E8F91FF
:1047700093949698999B9D9E000000000000000075
:104780000000000000000000000000000000000029
:104790000000000000000000000000000000000019
:1047A0000000000000000000000000000000000009
:1047B000000000000000000103040607090B0C0EB6
:1047C000101113141618191B1D1E2021232526282D
:1047D0002A2B2D2E3032333537383A3B3D3F40427D
:1047E000444547484A4C4D4F5152545657595A5CCC
:1047F0005E5F6163646667696B6C6E70717374761B
:1048000078797B7D7E8081838586888A8B8D8E906A
:1048100092939597989A9B9D9F000000000000003E
:104820000000000000000000000000000000000088
:104830000000000000000000000000000000000078
:104840000000000000000000000000000000000068
:104850000000000000000002040507080A0C0D0F0C
:104860001012141517181A1C1D1F21222425272980
:104870002A2C2D2F3132343537393A3C3D3F4142D5
:10488000444547494A4C4D4F5152545557595A5C2B
:104890005D5F6162646567696A6C6D6F7172747582
:1048A00077797A7C7D7F8182848687898A8C8E8FD6
:1048B0009192949697999A9C9E9F00000000000008
:1048C00000000000000000000000000000000000E8
:1048D00000000000000000000000000000000000D8
:1048E00000000000000000000000000000000000C8
:1048F0000000000000000203050608090B0D0E1061
:104900001113151618191B1C1E20212324262729D4
:104910002B2C2E2F3133343637393A3C3E3F41422F
:10492000444647494A4C4D4F5152545557585A5C8A
:104930005D5F6062646567686A6B6D6F70727375E6
:1049400077787A7B7D7E808283858688898B8D8E41
:10495000909193959698999B9C9E00000000000072
:104960000000000000000000000000000000000047
:104970000000000000000000000000000000000037
:104980000000000000000000000000000000000027
:1049900000000000000103040607090A0C0E0F11B5
:1049A00012141517181A1C1D1F2022232526282A29
:1049B0002B2D2E303133353638393B3C3E3F414389
:1049C000444647494A4C4D4F5152545557585A5BEB
:1049D0005D5F606263656668696B6D6E707173744C
:1049E0007678797B7C7E7F8182848687898A8C8DAC
:1049F0008F9092949597989A9B9D9E00000000003E
:104A000000000000000000000000000000000000A6
:104A10000000000000000000000000000000000096
:104A20000000000000000000000000000000000086
:104A3000000000000102040507080A0B0D0E101209
:104A400013151618191B1C1E1F2122242627292A7C
:104A50002C2D2F303233353638393B3D3E404143E3
:104A6000444647494A4C4D4F5152545557585A5B4A
:104A70005D5E606163656668696B6C6E6F717274B0
:104A80007577787A7C7D7F808283858688898B8C18
:104A90008E909193949697999A9C9D9F0000000008
:104AA0000000000000000000000000000000000006
:104AB00000000000000000000000000000000000F6
:104AC00000000000000000000000000000000000E6
:104AD000000000000203050608090B0C0E0F11125E
:104AE000141517181A1B1D1E202223252628292BD2
:104AF0002C2E2F3132343537383A3B3D3E4041433E
:104B0000444647494A4C4D4F5152545557585A5BA9
:104B10005D5E606163646667696A6C6D6F70727315
:104B2000757678797B7C7E808183848687898A8C80
:104B30008D8F909293959698999B9C9E9F000000D4
:104B40000000000000000000000000000000000065
:104B50000000000000000000000000000000000055
:104B60000000000000000000000000000000000045
:104B70000000000103040607090A0C0D0F101213B0
:104B8000151618191B1C1E1F2122242527282A2B25
:104B90002D2E303133343637393A3C3D3F40424395
:104BA000454648494B4C4E4F505253555658595B09
:104BB0005C5E5F6162646567686A6B6D6E7071737D
:104BC000747677797A7C7D7F808283858688898BED
:104BD0008C8E8F9192949597989A9B9D9E00000041
:104BE00000000000000000000000000000000000C5
:104BF00000000000000000000000000000000000B5
:104C000000000000000000000000000000000000A4
:104C100000000102040507080A0B0D0E1011121402
:104C20001517181A1B1D1E202123242627292A2C7C
:104C30002D2F303133343637393A3C3D3F404243F3
:104C4000454648494B4C4E4F505253555658595B68
:104C50005C5E5F6162646567686A6B6D6E6F7172DE
:104C6000747577787A7B7D7E808183848687898A54
:104C70008C8D8E909193949697999A9C9D9F00000D
:104C80000000000000000000000000000000000024
:104C90000000000000000000000000000000000014
:104CA0000000000000000000000000000000000004
:104CB00000000203050608090B0C0D0F1012131556
:104CC0001618191B1C1D1F202223252628292B2CD2
:104CD0002E2F303233353638393B3C3E3F4042434D
:104CE000454648494B4C4E4F505253555658595BC8
:104CF0005C5E5F606263656668696B6C6E6F707244
:104D000073757678797B7C7E7F81828385868889BE
:104D10008B8C8E8F919293959698999B9C9E9F00D9
:104D20000000000000000000000000000000000083
:104D30000000000000000000000000000000000073
:104D40000000000000000000000000000000000063
:104D5000000103040607090A0B0D0E1011131415A8
:104D600017181A1B1D1E202122242527282A2B2C28
:104D70002E2F313234353738393B3C3E3F414243A8
:104D8000454648494B4C4E4F505253555658595B27
:104D90005C5D5F606263656667696A6C6D6F7072A7
:104DA00073747677797A7C7D7E8081838486878927
:104DB0008A8B8D8E909193949597989A9B9D9E0047
:104DC00000000000000000000000000000000000E3
:104DD00000000000000000000000000000000000D3
:104DE00000000000000000000000000000000000C3
:104DF000010204050708090B0C0E0F1112131516FA
:104E000018191A1C1D1F202223242627292A2C2D7D
:104E10002E303133343537383A3B3D3E3F41424402
:104E2000454648494B4C4E4F505253555658595A87
:104E30005C5D5F606163646667696A6B6D6E70710B
:104E400072747577787A7B7C7E7F81828485868890
:104E5000898B8C8D8F909293959697999A9C9D9E15
:104E60000000000000000000000000000000000042
:104E70000000000000000000000000000000000032
:104E80000000000000000000000000000000000121
:104E90000203050608090A0C0D0F1011131416174A
:104EA000181A1B1D1E1F212224252628292B2C2DD4
:104EB0002F303233343637393A3B3D3E404142445D
:104EC000454748494B4C4E4F505253555657595AE7
:104ED0005C5D5E606163646567686A6B6C6E6F7170
:104EE0007273757678797A7C7D7F808183848687FA
:104EF000888A8B8D8E8F919294959698999B9C9D84
:104F00009F00000000000000000000000000000002
:104F1000000000000000000010B400220023002464
:104F20002200D2B23C2A0EDA00242300DBB2A02BEE
:104F300007DAD2B2A02404FB0204DBB219555B1CD1
:104F4000F4E7521CEDE710BC7047F0B4A8B00100C4
:104F50000022002000244FF44D7300252A00282A47
:104F600005DA551C00AE46F82250521CF7E7002522
:104F70002A00282A13DA51F82250002D03D1B2F169
:104F80002805EB1809E051F8225000AE574216EB05
:104F90008706D6F89C6006FB0544521CE9E794FBA3
:104FA000F3F5280028B0F0BC7047F8B504000D00F8
:104FB000FF212800FFF7B0FF00203C282ADADFF8A5
:104FC000C01A415CDFF8BC2A825C914220DAA02240
:104FD00002FB00428A5C1600A02202FB00428A18F3
:104FE00052781700002E07D1FF2F05D10122A023F0
:104FF00003FB0053CA5409E0FF2E07D1002F05D14F
:10500000A02202FB00528A1801235370491CD9E7E1
:10501000401CD2E7F1BD2DE9F84F04005FF0FF30EE
:10502000DFF8641A08605FF0FF30DFF8601A08608C
:105030005FF0FF30DFF8581A08605FF0FF30DFF8EC
:10504000541A08605FF0FF30DFF84C1A08605FF018
:10505000FF30DFF8481A08600020DFF8441A0870B3
:1050600000208046B8F13C0F11DA0020DFF8341A36
:1050700041F828000020DFF8301A41F8280000200D
:10508000DFF8281A41F8280018F10108EAE70020A3
:105090008046B8F1280F80F206810020814650201A
:1050A0008346DFF8DC09B0EB080090F83B00584578
:1050B00015DAD8F10000A02101FB00401BEB000035
:1050C00042F2E041085C0500012D05D1DFF8E0095E
:1050D00040F829B019F10109BBF1010BE1E700200B
:1050E000824650208346DFF89C09B0EB080090F818
:1050F0003B00834515DAD8F10000A02101FB0040F8
:105100001BEB000042F2E041085C0500012D05D1D7
:10511000DFF8A00940F82AB01AF1010A1BF1010BCF
:10512000E1E7B9F1000F12D1BAF1000F0FD0DFF8AB
:105130005C09C0F80080DFF85C09C0F80080DFF887
:1051400074090068DFF8601941F828006CE0BAF1D2
:10515000000F12D1B9F1000F0FD0DFF82C09C0F801
:105160000080DFF82C09C0F80080DFF844090068EF
:10517000DFF8301941F8280056E0B9F1000F53D09C
:10518000BAF1000F50D0002006004E454CDA002046
:10519000070057453ADADFF81C0950F82700DFF816
:1051A000101951F82610401A00900098DFF80819DD
:1051B00009680831884227DADFF8FC0800680838F7
:1051C0000099884220DADFF8C008C0F80080DFF8D4
:1051D000C008C0F80080DFF8D80850F82600DFF8D3
:1051E000C41841F82800DFF8A408C0F80080DFF8F0
:1051F000A408C0F80080DFF8BC0850F82700DFF8EA
:10520000A81841F8280001E07F1CC2E7DFF8780801
:10521000006810F1010F05D0DFF87008006810F188
:10522000010F01D1761CB0E7DFF85C08006810F1CF
:10523000010F05D1DFF85408006810F1010F2FD0DD
:10524000DFF84408006810F1010F17D0DFF83C08C0
:10525000006810F1010F26D1DFF84818200000F097
:1052600026F9DFF82C080068DFF81C180968884266
:1052700016D0DFF8300800F0F9F914E0DFF828184C
:10528000200000F014F9DFF80C080068DFF8FC17C4
:105290000968884204D0DFF8100800F0E7F902E05E
:1052A00018F10108F5E6DFF8E007006810F1010FDA
:1052B00008D1DFF8D807006810F1010F02D15FF0C4
:1052C000FF30F2E0DFF8C007006810F1010F18D0DE
:1052D000DFF8B807006810F1010F12D0DFF8C4172B
:1052E000200000F0E4F8DFF8BC0700F0BFF9DFF8B9
:1052F000B817200000F0DBF8DFF8AC0700F0B6F9D3
:10530000D2E0DFF88407006810F1010F63D0DFF806
:105310007C07006810F1010F5DD1DFF86C070068B1
:105320008046DFF86C0700684045C0F2BD80DFF8BA
:10533000740750F82800401C8346DFF8480718F827
:105340000000834534DAD8F10000A02101FB0040C1
:105350001BEB000042F2E041085C0500012D24D166
:10536000DFF8400750F82800BBEB0000DFF84817D3
:1053700009680A31884218DADFF83C0700680A3801
:10538000DFF8201751F82810BBEB010188420CDA36
:10539000DFF8F806C0F80080DFF8F806C0F80080F3
:1053A000DFF8040740F828B002E01BF1010BC4E766
:1053B000DFF8D806006810F1010F09D0DFF8E81611
:1053C000200000F074F8DFF8E00600F04FF96BE021
:1053D00018F10108A5E7DFF8B006006810F1010F29
:1053E00062D1DFF8A806006810F1010F5CD0DFF889
:1053F0009C0600688046DFF89C060068404553DB49
:10540000DFF8A40650F82800401E8346DFF8700637
:1054100018F80000584534DAD8F10000A02101FB4B
:1054200000401BEB000042F2E041085C0500012D4A
:1054300024D1DFF8740650F82800B0EB0B00DFF839
:10544000781609680A31884218DADFF86C060068B5
:105450000A38DFF8541651F82810B1EB0B018842D6
:105460000CDADFF82406C0F80080DFF82406C0F864
:105470000080DFF8300640F828B002E0BBF1010BF5
:10548000C4E7DFF80406006810F1010F09D0DFF867
:105490001416200000F00BF8DFF8080600F0E6F81C
:1054A00002E018F10108A6E70120BDE8F28F2DE91E
:1054B000F041DFF8F0E5714569D15FF0000E764606
:1054C000DFF8C4E5DEF800E051F82EE07246DFF8C0
:1054D000B8E5DEF800E01EF1010E77463C2F80F2C1
:1054E000C38011EB870E5EF804ECBEF1000F04D010
:1054F00011EB870E5EF804EC724612F10A0E734649
:10550000DFF880E5BEEB070E9EF83BE09E4504DA2F
:10551000DFF870E517F80EE07346B2F10A0E744634
:10552000DFF85CE5BEEB070E9EF83BE0744504DA5D
:10553000DFF84CE517F80EE074469C46A4451BDBEB
:10554000D7F1000E5FF0A00808FB0E0E1CEB0E0E4C
:1055500042F2E04818F80EE07546012D09D1DFF857
:1055600030E5CEF8007041F827C05FF0000E7646B7
:1055700002E0BCF1010CE1E7DFF814E5DEF800E041
:10558000BE4500D0761C0B2E6EDA7F1CA6E7DFF836
:1055900018E5714568D15FF0000E7646DFF8ECE45F
:1055A000DEF800E051F82EE07246DFF8E0E4DEF8C5
:1055B00000E01EF1010E77463C2F55DA11EB870E05
:1055C0005EF804ECBEF1000F04D011EB870E5EF81C
:1055D00004EC7246B2F10A0E7346DFF8A4E4BEEBA7
:1055E000070E9EF83BE0734504DADFF894E417F801
:1055F0000EE0734612F10A0E7446DFF888E4BEEB43
:10560000070E9EF83BE0A64504DADFF878E417F8C9
:105610000EE074469C4664451BDBD7F1000E5FF03C
:10562000A00808FB0E0E1CEB0E0E42F2E04818F824
:105630000EE07546012D09D1DFF858E4CEF8007070
:1056400041F827C05FF0000E764602E01CF1010C25
:10565000E1E7DFF840E4DEF800E0BE4500D0761C6C
:105660000B2E01DA7F1CA7E7BDE8F0812DE9F84F8A
:105670002DED048B80465FF0000B5FF09F09002644
:105680000027DFF82004804508D1DFF8FC0300681C
:105690000400DFF8FC030068814614E0DFF808042A
:1056A000804508D1DFF8E40300680400DFF8E40374
:1056B0000068814607E0DFF8E00300680400DFF8D7
:1056C000DC0300688146A14551DB58F8240082467E
:1056D000BAF1000F03D1002E01D1601E0600BAF10D
:1056E000000F42D0002E40D0270058F8260000EED0
:1056F000100AB0EE408A58F8270000EE100AF0EECB
:10570000408AB8EEE80AF8EEC80A30EE600A00EE09
:10571000907AF8EEE00A01EE106AB8EEC11A70EE67
:10572000C10A80EE200AB0EE409A701C0500BD420E
:1057300017DAB8EEC80AA81B00EE900AF8EEE00AE5
:1057400000EE890A10EE100A01F0C0FB0022DFF81B
:10575000383B01F0F3FB01F065FC48F825006D1CB7
:10576000E5E70020060000200700641CABE7BDEC65
:10577000048BBDE8F18F2DE9F84F2DED028BDFF89A
:105780009808006810F1010F2BD0DFF800030068C3
:1057900010F1010F25D1DFF880080068DFF8F8125A
:1057A0000860DFF878080068DFF8F0120860DFF8BA
:1057B000E8020068DFF8E41209688142C0F25B8108
:1057C000DFF8E01251F82010DFF8EC221268022313
:1057D00092FBF3F25118DFF8D42242F82010401C5B
:1057E000E8E7DFF83408006810F1010F2BD1DFF88B
:1057F0009C02006810F1010F25D0DFF890020068CC
:10580000DFF894120860DFF88C020068DFF88C1271
:105810000860DFF884020068DFF8801209688142BE
:10582000C0F22981DFF8801251F82010DFF88822B9
:105830001268022392FBF3F2891ADFF8702242F811
:105840002010401CE8E7DFF8D007006810F1010FD6
:1058500000F01181DFF83402006810F1010F00F050
:105860000A81DFF8B8070068DFF828120968401AD3
:1058700013281FDBDFF8A0070068DFF81C120860A0
:10588000DFF8980700688549086083480068834905
:1058900009688142C0F2EF80824951F82010864A9F
:1058A0001268022392FBF3F25118804A42F820104A
:1058B000401CECE777480068DFF860170968401A79
:1058C00013281CDB71480068734908607148006840
:1058D0007249086070480068704909688142C0F2E6
:1058E000CA80714951F82010734A1268022392FB52
:1058F000F3F2891A6D4A42F82010401CECE7DFF8F9
:105900001807006861490968884203DADFF8080768
:10591000046801E05D480468DFF8FC0600685B4944
:105920000968884202DA5948056802E0DFF8E806AB
:105930000568DFF8E806006856490968884203DA16
:10594000DFF8D806066801E052480668DFF8CC06A2
:10595000006850490968884202DA4E48076802E048
:10596000DFF8B8060768781B01F088FB82468B4693
:10597000701B01F083FB02000B005046594601F0FA
:1059800095FB01F0B7FC08EE100A43480460B81913
:10599000022190FBF1F0414908602000A8421FDA83
:1059A000DFF8741609688C420CD13E4951F820107A
:1059B000414A1268022392FBF3F251183B4A42F823
:1059C00020100BE0384951F820103B4A126802239E
:1059D00092FBF3F2891A354A42F82010401CDDE7A9
:1059E0002800864244DBDFF8341609688F4211D163
:1059F00000EE105AB8EEC00A411B00EE901AF8EE05
:105A0000E00A00EE880ABDEEC00A10EE101A8946C0
:105A1000804610E0814600EE105AB8EEC00A411BE5
:105A200000EE901AF8EEE00A00EE880ABDEEC00A19
:105A300010EE101A8846B9F13C0F17DAB8F13C0F96
:105A400014DA18EB0901022291FBF2F1174A154B07
:105A500053F82930DFF850C05CF828C01CEB030372
:105A60005FF0020C93FBFCF342F82130401CB8E7D6
:105A70000E48FFF7FBFDBDEC028BBDE8F18F000087
:105A800030F300006CF30000C83EFF1FD03EFF1F44
:105A9000CC3EFF1FD43EFF1FD83EFF1FDC3EFF1F42
:105AA000DD94FF1FE43EFF1FD43FFF1FC440FF1FD4
:105AB000C88CFF1F088EFF1F2004FF1F2DE9F04F29
:105AC00083B004000D005FF0FF36DFF84C0500687E
:105AD00010F1010F00F08880DFF840050268DFF860
:105AE00038050168DFF8380500F09CFA060016F169
:105AF000010F79D03200DFF820050168DFF82005BA
:105B000000F0EAFA0700DFF8180D0068022190FBA8
:105B1000F1F000EE100AB8EEC00AD7ED010A30EE3F
:105B2000200A87ED010A0123D7ED010A97ED000A4B
:105B3000DFF8E4040268DFF8E814280000F0AAFBAC
:105B40008046D8F8000010F1010F14D0D8F80400F6
:105B500010F1010F0FD0D8F80400DFF8C01408606E
:105B6000DFF8B8040268DFF8B0040168DFF8B004B9
:105B700000F0E9FD02E0DFF8A4040660DFF8440D60
:105B8000006810F1010F2ED00223D7ED010A97ED26
:105B9000000ADFF8FC060268DFF82C1D280000F080
:105BA00079FB8146D9F8000010F1010F1BD0D9F81C
:105BB000040010F1010F16D0D9F80400DFF8D01658
:105BC0000860D9F80420D9F80010DFF8FC0C00F0C8
:105BD00056FADFF8BC060268DFF8E80C0168DFF867
:105BE000E80C00F0B0FD14E216F1010F40F08880DF
:105BF000DFF8D00C006810F1010F00F08180DFF8B1
:105C000090060268DFF8BC0C0168DFF8BC0C00F0FD
:105C100009FA060016F1010F72D03200DFF8A40C69
:105C20000168DFF8A40C00F057FA0700DFF8F00B6A
:105C30000068022190FBF1F000EE100AB8EEC00AF5
:105C4000D7ED010A30EEC00A87ED010A0223D7ED35
:105C5000010A97ED000ADFF86C0C0268DFF8681C97
:105C6000280000F017FB8046D8F8000010F1010F63
:105C700014D0D8F8040010F1010F0FD0D8F80400A8
:105C8000DFF80C160860DFF808060268DFF8340C4D
:105C90000168DFF8340C00F056FD02E0DFF8F00593
:105CA0000660DFF87403006810F1010F27D00123AC
:105CB000D7ED010A97ED000AD8480268D8492800B4
:105CC00000F0E8FA8146D9F8000010F1010F16D073
:105CD000D9F8040010F1010F11D0D9F80400CF4910
:105CE0000860D9F80420D9F80010CD4800F0C7F9B1
:105CF000CA480268C8480168C94800F024FD88E124
:105D00005FF0FF375FF0FF38C348006810F1010F04
:105D100000F0B98001200090C0480368BE480268C6
:105D2000BF49200000F01BFC070017F1010F00F035
:105D3000AA803A00B8480168B94800F027FA0190F3
:105D40000198022800F06581781CB44909688142F5
:105D500005DB0021B24A42F82010401CF5E73A006A
:105D6000AD480168AE4800F0B7F98146DFF8B00AE7
:105D70000068022190FBF1F000EE100AB8EEC00AB4
:105D8000D9ED010A30EE200A89ED010A0123D9ED8F
:105D9000010A99ED000AA1480268A149280000F013
:105DA00079FA8246DAF8000010F1010F1AD0DAF819
:105DB000040010F1010F15D0DAF8040097490860CB
:105DC00001200090DAF80430DAF80020944920002D
:105DD00000F037FC914802688F480168904800F055
:105DE000B2FC01E08D480760DFF8D80A006810F1C6
:105DF000010F47D002200090DFF894040368DFF819
:105E0000C40A0268DFF8C01A200000F0A8FB804630
:105E10000223D9ED010A99ED000ADFF87404026843
:105E2000DFF8A41A280000F035FA8346DBF80000FA
:105E300010F1010F1FD0DBF8040010F1010F1AD090
:105E4000DBF80400DFF84814086002200090DBF85B
:105E50000430DBF80020DFF8701A200000F0F1FBBE
:105E6000DFF82C040268DFF85C0A0168DFF8580AE2
:105E700000F069FC06E018F1010F03D0DFF8100410
:105E8000C0F80080C5E017F1010F40F0C280DFF8D4
