:10000000F8FF002011040000CF410000CF410000A4
:10001000CF410000CF410000CF410000CF410000A0
:10002000CF410000CF410000CF410000CF41000090
:10003000CF410000CF410000CF410000CF41000080
:10004000CF410000CF410000CF410000CF41000070
:10040000FFFFFFFFFFFFFFFFFFFFFFFFFEFFFFFFFD
:1004100062B60FF08BFCFEE710B40022002300242C
:100420002200D2B23C2A0EDA00242300DBB2A02B39
:1004300007DAD2B2A02404FB0204DBB219555B1C1C
:10044000F4E7521CEDE710BC7047F0B49EB0010019
:1004500000220020002440F2D11301252A001F2A87
:1004600006DA00AD15EB820545F8042C521CF6E7C0
:1004700000252A001E2A12DA51F82250012D03DA33
:10048000B2F11E05EB1808E051F8225000AE5742B9
:1004900016EB8706766F06FB0544521CEAE794FBD1
:1004A000F3F528001EB0F0BC70472DE9F0470400BA
:1004B0000D005FF000085FF000095FF0000A002007
:1004C000DFF824180860FF212800FFF7A5FF0020AF
:1004D0003C284FDA0021884600218946DFF80C18B5
:1004E000415CDFF80C28825C914241DAA02202FBD9
:1004F00000428A5C1600A02202FB00428A18527851
:100500001700002E07D1FF2F05D10122A02303FBE6
:100510000053CA542AE0FF2E08D1002F06D1A02292
:1005200002FB00528A18012353701FE0FF2E14D1E2
:10053000FF2F12D118F10108B9F1070F16DBB9F13D
:100540000F0F13DA00229146BAF1000F02D1DFF843
:10055000982710601AF1010A08E057EA0602002AFB
:1005600004D1B8F1020F01DB19F10109491CB8E708
:10057000401CADE7BAF10A0F02DBBAF11B0F03DB37
:100580000020DFF864170860BDE8F0872DE9F84F18
:1005900004005FF0FF30DFF8601708605FF0FF30A5
:1005A000DFF8581708605FF0FF30DFF85417086075
:1005B0005FF0FF30DFF84C1708605FF0FF30DFF8C6
:1005C000481708605FF0FF30DFF840170860002030
:1005D000DFF83C17087000208046B8F13C0F11DAB4
:1005E0000020DFF8301741F828000020DFF8281736
:1005F00041F828000020DFF8FC1641F8280018F127
:100600000108EAE700208046B8F1280F80F2068151
:100610000020814650208346DFF8D006B0EB08006A
:1006200090F83B00584515DAD8F10000A02101FBF5
:1006300000401BEB000042F2E041085C0500012D88
:1006400005D1DFF8D80640F829B019F10109BBF14E
:10065000010BE1E70020824650208346DFF8900638
:10066000B0EB080090F83B00834515DAD8F10000A4
:10067000A02101FB00401BEB000042F2E041085CBE
:100680000500012D05D1DFF8980640F82AB01AF1CF
:10069000010A1BF1010BE1E7B9F1000F12D1BAF128
:1006A000000F0FD0DFF85406C0F80080DFF85406C2
:1006B000C0F80080DFF868060068DFF85C1641F8D3
:1006C00028006CE0BAF1000F12D1B9F1000F0FD081
:1006D000DFF82406C0F80080DFF82406C0F80080A8
:1006E000DFF838060068DFF82C1641F8280056E0DD
:1006F000B9F1000F53D0BAF1000F50D0002006001E
:100700004E454CDA0020070057453ADADFF810066C
:1007100050F82700DFF8041651F82610401A009010
:100720000098DFF8E01C09680831884227DADFF812
:10073000D40C006808380099884220DADFF8B80540
:10074000C0F80080DFF8B805C0F80080DFF8CC05FD
:1007500050F82600DFF8BC1541F82800DFF89C05AA
:10076000C0F80080DFF89C05C0F80080DFF8B00515
:1007700050F82700DFF8A01541F8280001E07F1CA1
:10078000C2E7DFF87405006810F1010F05D0DFF84B
:100790006C05006810F1010F01D1761CB0E7DFF89D
:1007A0005805006810F1010F05D1DFF85005006809
:1007B00010F1010F2FD0DFF84005006810F1010F94
:1007C00017D0DFF83805006810F1010F26D1DFF8E7
:1007D0004415200000F01DF9DFF824050068DFF85B
:1007E00018150968884216D0DFF8280500F0F0F9DE
:1007F00014E0DFF82415200000F00BF9DFF8040501
:100800000068DFF8F8140968884204D0DFF80805AA
:1008100000F0DEF902E018F10108F5E6DFF8D8048F
:10082000006810F1010F08D1DFF8D004006810F162
:10083000010F02D15FF0FF30E9E0DFF8BC0400688F
:1008400010F1010F18D0DFF8B404006810F1010FA7
:1008500012D0DFF8C014200000F0DBF8DFF8B40499
:1008600000F0B6F9DFF8B014200000F0D2F8DFF89D
:10087000A80400F0ADF9C9E0DFF87C04006810F1CD
:10088000010F63D0DFF87404006810F1010F5DD12F
:10089000DFF8640400688046DFF8640400684045BF
:1008A000C0F2B480DFF86C0450F82800401C834686
:1008B000DFF83C0418F80000834534DAD8F1000072
:1008C000A02101FB00401BEB000042F2E041085C6C
:1008D0000500012D24D1DFF83C0450F82800BBEBC3
:1008E0000000DFF8201B09680A31884218DADFF8B7
:1008F000140B00680A38DFF81C1451F82810BBEB01
:10090000010188420CDADFF8F403C0F80080DFF858
:10091000F403C0F80080DFF8000440F828B002E0DB
:100920001BF1010BC4E7DFF8D403006810F1010FDD
:1009300009D0DFF8E413200000F06BF8DFF8D803EB
:1009400000F046F962E018F10108A5E7DFF8A80316
:10095000006810F1010F59D1DFF8A003006810F111
:10096000010F53D0DFF8940300688046DFF894034A
:10097000006840454ADBDFF8A00350F82800401E1D
:100980008346DA4818F8000058452FDAD8F10000FD
:10099000A02101FB00401BEB000042F2E041085C9B
:1009A0000500012D1FD1DC4850F82800B0EB0B00EA
:1009B000DFF8501A09680A31884214DADFF8440A6D
:1009C00000680A38D44951F82810B1EB0B0188426D
:1009D00009DAC948C0F80080C948C0F80080CD488D
:1009E00040F828B002E0BBF1010BCAE7C24800683A
:1009F00010F1010F07D0C749200000F00AF8C548E0
:100A000000F0E6F802E018F10108AFE70120BDE8C8
:100A1000F28F2DE9F041DFF8FCE2714569D15FF01A
:100A2000000E7646DFF8D0E2DEF800E051F82EE066
:100A30007246DFF8C4E2DEF800E01EF1010E7746F0
:100A40003C2F80F2C38011EB870E5EF804ECBEF100
:100A5000000F04D011EB870E5EF804EC724612F121
:100A60000A0E7346DFF888E2BEEB070E9EF83BE005
:100A70009E4504DADFF878E217F80EE07346B2F12B
:100A80000A0E7446DFF864E2BEEB070E9EF83BE008
:100A9000744504DADFF854E217F80EE074469C4619
:100AA000A4451BDBD7F1000E5FF0A00808FB0E0E7B
:100AB0001CEB0E0E42F2E04818F80EE07546012DD0
:100AC00009D1DFF83CE2CEF8007041F827C05FF0B2
:100AD000000E764602E0BCF1010CE1E7DFF820E20F
:100AE000DEF800E0BE4500D0761C0B2E6EDA7F1CCF
:100AF000A6E7DFF824E2714568D15FF0000E764684
:100B0000DFF8F8E1DEF800E051F82EE07246DFF899
:100B1000ECE1DEF800E01EF1010E77463C2F55DADD
:100B200011EB870E5EF804ECBEF1000F04D011EB60
:100B3000870E5EF804EC7246B2F10A0E7346DFF8D7
:100B4000ACE1BEEB070E9EF83BE0734504DADFF83C
:100B50009CE117F80EE0734612F10A0E7446DFF8B6
:100B600090E1BEEB070E9EF83BE0A64504DADFF805
:100B700080E117F80EE074469C4664451BDBD7F114
:100B8000000E5FF0A00808FB0E0E1CEB0E0E42F2EA
:100B9000E04818F80EE07546012D09D1DFF864E150
:100BA000CEF8007041F827C05FF0000E764602E0F4
:100BB0001CF1010CE1E7DFF84CE1DEF800E0BE4596
:100BC00000D0761C0B2E01DA7F1CA7E7BDE8F08170
:100BD0002DE9F84F2DED048B04005FF0000B5FF062
:100BE0009F0900275FF000084A48844206D1424826
:100BF000006805004248006881460FE0464884428C
:100C000006D13E48006805003E480068814605E080
:100C10003D48006805003D4800688146A9455EDB07
:100C200054F825008246BAF1000F03D1002F01D1FC
:100C3000681E0700BAF1000F4FD0002F4DD0A84614
:100C400054F8270000EE100AB0EE408A54F828004D
:100C500000EE100AF0EE408AB8EEE80AF8EEC80A94
:100C600030EE600A00EE908AF8EEE00A01EE107AAB
:100C7000B8EEC11A70EEC10A80EE200AB0EE409ABA
:100C8000781C0600464524DAB8EEC80AF01B00EED0
:100C9000900AF8EEE00A00EE890A10EE100A02F05F
:100CA000F1F90022DFF8A43902F024FA02F096FAF2
:100CB00044F82600DFF8980954F82610A02202FB19
:100CC0000100305C002802D1002044F82600761C88
:100CD000D8E700200700002080466D1C9EE7BDEC91
:100CE000048BBDE8F18F0000C840FF1FECFE000040
:100CF00028FF0000CC40FF1FCC3EFF1FD43EFF1F4B
:100D0000D03EFF1FD83EFF1FDC3EFF1FE03EFF1F0F
:100D100089A3FF1FE83EFF1FD83FFF1FD08CFF1F96
:100D2000108EFF1F2DE9F84F2DED028B84B03C2073
:100D30000390642002900027DFF808090068DFF8BC
:100D400014190968814212DBDFF8FC1851F82010F1
:100D5000002905D10399DFF8F02842F8201004E0BB
:100D6000DFF8E41851F820100391401CE7E7DFF8A2
:100D7000E8080068DFF8E4180968814212DBDFF850
:100D8000E01851F82010002905D10299DFF8D02889
:100D900042F8201004E0DFF8C81851F82010029142
:100DA000401CE7E7DFF89C08006810F1010F47D00E
:100DB000DFF8A408006810F1010F41D1DFF88408C2
:100DC0000068DFF8A0180860DFF888080068DFF81E
:100DD00098180860DFF88C080068DFF88C1809683C
:100DE0008142C0F209830221072916DADFF8602860
:100DF00043425FF0A00C0CFB0322DFF84C3853F8A1
:100E000020305B1A9A1842F2E0439A5C002A01D122
:100E10007F1C00E07F1E491CE6E7DFF82C1851F824
:100E20002010DFF8E0251268022392FBF3F251183C
:100E3000DFF8382842F8201000210F00401CCCE7D2
:100E4000DFF80008006810F1010F51D1DFF8080841
:100E5000006810F1010F4BD0DFF8FC070068DFF8E5
:100E600004180860DFF8F4070068DFF8FC17086072
:100E7000DFF8F007D0F800B0DFF8EC07006858455D
:100E8000C0F2BA820220072816DADFF8C417DBF1B5
:100E90000002A02303FB0211DFF8C42752F82B2025
:100EA0008218511842F2E042515CFF2901D17F1CA7
:100EB00000E07F1E401CE6E7DFF8A40750F82B0097
:100EC0000090380002F0B6F997FBF0F0DFF8341527
:100ED00009684843022190FBF1F100980818DFF8F7
:100EE0008C1741F82B00002007001BF1010BC3E712
:100EF000DFF85007006810F1010F00F07D82DFF885
:100F00005807006810F1010F00F07682DFF84407FF
:100F10000068DFF848170968401A13285DDBDFF81E
:100F200024070068DFF83C170860DFF8280700682E
:100F3000DFF834170860DFF82C07D0F800B0DFF8CE
:100F4000280700685845C0F257820220072828DA8F
:100F5000DFF8FC16DBF10002A02303FB0211DFF82F
:100F6000E82652F82B20121A511842F2E042515C46
:100F7000002911D0DFF8D816DBF10002A02303FB13
:100F80000211DFF8C42652F82B208218511842F2C1
:100F9000E042515CFF2901D17F1C00E07F1E401C14
:100FA000D4E7DFF8A40650F82B000090380002F0D8
:100FB00041F997FBF0F0DFF84C140968484302212F
:100FC00090FBF1F100980818DFF8A01641F82B000B
:100FD000002007001BF1010BB1E7DFF88006006875
:100FE000DFF870160968401A13285CDBDFF8680622
:100FF0000068DFF870160860DFF860060068DFF848
:1010000068160860DFF85C06D0F800B0DFF8580614
:1010100000685845C0F2F0810220072828DADFF87E
:101020003016DBF10002A02303FB0211DFF83026AB
:1010300052F82B208218511842F2E042515CFF29ED
:1010400011D0DFF80C16DBF10002A02303FB021124
:10105000DFF80C2652F82B20121A511842F2E04207
:10106000515C002901D17F1C00E07F1E401CD4E7A9
:10107000DFF8EC0550F82B000090380002F0DAF8A9
:1010800097FBF0F0DF4909684843022190FBF1F13A
:1010900000980818DFF8D41541F82B00002007004D
:1010A0001BF1010BB2E7DFF89C050068DFF8A8151B
:1010B0000968884204DADFF88C05D0F8008003E084
:1010C000DFF89405D0F80080DFF878050068DFF8D5
:1010D00088150968884203DADFF87C05046802E0B5
:1010E000DFF860050468DFF86C050068DFF86C1550
:1010F0000968884203DADFF85C05056802E0DFF87A
:101100005C050568DFF84C050068DFF850150968D4
:10111000884203DADFF84405066802E0DFF83405A8
:101120000668301B02F08AF8CDE90001281B02F0A6
:1011300085F802000B00DDE9000102F097F802F0EB
:10114000B9F908EE100ADFF81C05C0F80080701924
:10115000022190FBF1F0DFF810150860C346A345AB
:1011600080F29180DFF8DC040068804544D10220E1
:10117000072828DADFF8D814DBF10002A02303FBEC
:101180000211DFF8C42452F82B20121A511842F22F
:10119000E042515C002911D0DFF8B414DBF1000209
:1011A000A02303FB0211DFF8A02452F82B208218A1
:1011B000511842F2E042515CFF2901D17F1C00E04E
:1011C0007F1E401CD4E7DFF8800450F82B0000900D
:1011D000380002F02FF897FBF0F08A49096848437D
:1011E000022190FBF1F100980818DFF8801441F813
:1011F0002B000020070043E00220072828DADFF850
:101200005014DBF10002A02303FB0211DFF850248D
:1012100052F82B208218511842F2E042515CFF290B
:1012200011D0DFF82C14DBF10002A02303FB021124
:10123000DFF82C2452F82B20121A511842F2E04207
:10124000515C002901D17F1C00E07F1E401CD4E7C7
:10125000DFF80C0450F82B000090380001F0EAFF92
:1012600097FBF0F0674909684843022190FBF1F1D0
:1012700000980818DFF8F41341F82B00002007004D
:101280001BF1010B6BE720008542C0F2B180DFF853
:10129000C41309688E4211D100EE104AB8EEC00A9C
:1012A000011B00EE901AF8EEE00A00EE880ABDEE8F
:1012B000C00A10EE101A8946824610E0814600EE00
:1012C000104AB8EEC00A011B00EE901AF8EEE00AD0
:1012D00000EE880ABDEEC00A10EE101A8A46B9F177
:1012E0003C0F80F28380BAF13C0F80F27F800221B4
:1012F00007294ADADFF8582343425FF0A00C0CFBC1
:101300000322DFF85C3353F82030CB189A1842F2EE
:10131000E0439A5CFF2A35D1DFF8342343425FF083
:10132000A00C0CFB0322C84B53F820305B1A9A1810
:1013300042F2E0439A5CFF2A24D1DFF814234342AF
:101340005FF0A00C0CFB0322DFF8143353F82030BD
:101350005B1A9A1842F2E0439A5C002A12D1DFF835
:10136000F02243425FF0A00C0CFB0322B64B53F873
:101370002030CB189A1842F2E0439A5C002A01D13F
:101380007F1C00E07F1E491CB2E7012F16DB1AEB21
:101390000901022291FBF2F1DFF8D022AA4B53F8A7
:1013A0002930DFF860C0DCF800C05FF0020E9CFB63
:1013B000FEFCB3EB0C0342F8213015E01AEB0901F7
:1013C000022291FBF2F1DFF8A4229F4B53F829305F
:1013D000DFF88CC25CF82AC01CEB03035FF0020C40
:1013E00093FBFCF342F8213000210F00401C4BE737
:1013F000DFF87802FFF7ECFB04B0BDEC028BBDE830
:10140000F18F00002004FF1F38B504000D00002CF0
:1014100005D43C2C03DA002D01D4142D00DB72E03E
:10142000DFF85C0A142101FB0400285C00286AD163
:101430000120DFF84C1A142202FB04116854012029
:10144000DFF8401A6054012C14DBDFF8400A142145
:1014500001FB0400285CDFF8341A142202FB04119B
:10146000691811F8141C0843FF2803D02900601ED6
:10147000FFF7CAFF012D17DBDFF8100A142101FB6B
:101480000400281810F8010CDFF8001A142202FBDF
:101490000411695CC9B2C909C9B20843C00703D4C1
:1014A000691E2000FFF7B0FF132D16DADFF8DC0904
:1014B000142101FB0400285CDFF8D019142202FB80
:1014C000041169184978C9B2C909C9B20843C007EB
:1014D00003D4691C2000FFF797FF3B2C13DADFF8D9
:1014E000AC09142101FB0400285CDFF8A0191422C8
:1014F00002FB04116918097D0843FF2803D0290065
:10150000601CFFF781FF31BD0100C9B20F290FDB5D
:10151000C9B2090900221000042807DA012282401A
:101520000B00DBB2134201D0401CF5E7001D0BE0BD
:1015300000221000042807DA012282400B00DBB2EF
:10154000134201D0401CF5E7D0F1080070470100BC
:101550000020C9B211F00F020F2A0DD00022100096
:10156000042806DAC9B20A000241D20701D4401C9D
:10157000F6E7D0F108000EE0C9B209090022100018
:10158000042806DAC9B20A000241D20701D4401C7D
:10159000F6E7D0F1040070472DE9F84F040000256C
:1015A0005FF000095FF0FF3800200600142E46DAD5
:1015B000DFF8D808142101FB0400305CFF283CD080
:1015C000DFF8C808142101FB0400305CFFF7BFFFFF
:1015D00010EBC6008346701C0700142F09DADFF8F1
:1015E000AC08142101FB0400385C002801D17F1CE9
:1015F000F3E7DFF89808142101FB0400385CFFF7DB
:1016000083FF10EBC70082461AEB0B0001F016FEB9
:1016100000220E4B01F06EFD00225FF0804301F0CE
:1016200025FE01F0DBFD00903E00BAEB0B0005004B
:10163000A94502DA00988046A946761CB6E74046DE
:10164000BDE8F28FCC3EFF1FE83EFF1F0000E03FE9
:10165000D041FF1FD03EFF1FD43EFF1FD83EFF1FCB
:10166000D83FFF1FDC3EFF1FE03EFF1FCC40FF1FA7
:101670002DE9F04F83B004000D005FF0FF36DFF876
:10168000B80B006810F1010F00F08880DFF88C0DB6
:101690000268DFF8A40B0168DFF8A40C00F0BEFAC2
:1016A000060016F1010F79D03200DFF88C0B0168CB
:1016B000DFF88C0C00F00CFB0700DFF8640D00680D
:1016C000022190FBF1F000EE100AB8EEC00AD7ED4F
:1016D000010A30EE200A87ED010A0123D7ED010A45
:1016E00097ED000ADFF8500B0268DFF8541C280061
:1016F00000F0CEFB8046D8F8000010F1010F14D0A6
:10170000D8F8040010F1010F0FD0D8F80400DFF86A
:101710000C1D0860DFF8040D0268DFF81C0B01687F
:10172000DFF81C0C00F00EFE02E0DFF8F00C0660A3
:10173000DFF8900D006810F1010F2ED00223D7EDD5
:10174000010A97ED000ADFF8800D0268DFF87C1DC2
:10175000280000F09DFB8146D9F8000010F1010F30
:101760001BD0D9F8040010F1010F16D0D9F80400ED
:10177000DFF8541D0860D9F80420D9F80010DFF80C
:101780004C0D00F078FADFF8400D0268DFF8340DF8
:101790000168DFF8380D00F0D5FD3DE216F1010FCC
:1017A00040F08F80DFF81C0D006810F1010F00F091
:1017B0008880DFF8140D0268DFF8080D0168DFF893
:1017C0000C0D00F02BFA060016F1010F79D0320053
:1017D000DFF8F00C0168DFF8F40C00F079FA07008C
:1017E000DFF83C0C0068022190FBF1F000EE100ADB
:1017F000B8EEC00AD7ED010A30EEC00A87ED010A43
:101800000223D7ED010A97ED000ADFF8B80C026851
:10181000DFF8B81C280000F03BFB8046D8F8000039
:1018200010F1010F14D0D8F8040010F1010F0FD0FF
:10183000D8F80400DFF8901C0860DFF88C0C026810
:10184000DFF8800C0168DFF8840C00F07BFD02E01B
:10185000DFF8740C0660DFF8E009006810F1010F92
:101860002ED00123D7ED010A97ED000ADFF8AC0B6B
:101870000268DFF8CC1A280000F00AFB8146D9F88C
:10188000000010F1010F1BD0D9F8040010F1010F76
:1018900016D0D9F80400DFF8841B0860D9F80420BA
:1018A000D9F80010DFF8980A00F0E5F9DFF86C0BC2
:1018B0000268DFF884090168DFF8840A00F042FD5D
:1018C000AAE15FF0FF375FF0FF38DFF86C090068CE
:1018D00010F1010F00F0CA8001200090DFF83C0BEE
:1018E0000368DFF854090268DFF8541A200000F09A
:1018F00034FC070017F1010F00F0B8803A00DFF860
:1019000038090168DFF8380A00F03CFA01900198C4
:10191000022800F08181781CDFF8001B09688142F1
:1019200006DB0021DFF8182A42F82010401CF3E7FC
:101930003A00DFF804090168DFF8040A00F0C8F98A
:101940008146DFF8DC0A0068022190FBF1F000EE2E
:10195000100AB8EEC00AD9ED010A30EE200A89ED6E
:10196000010A0123D9ED010A99ED000ADFF8AC0A5A
:101970000268DFF8CC19280000F08AFA8246DAF80B
:10198000000010F1010F1FD0DAF8040010F1010F70
:101990001AD0DAF80400DFF8841A086001200090F9
:1019A000DAF80430DAF80020DFF89419200000F0AB
:1019B00045FCDFF8680A0268DFF87C080168DFF898
:1019C000800900F0BFFC02E0DFF8500A0760DFF892
:1019D000F40A006810F1010F47D002200090DFF8F0
:1019E000E80A0368DFF8DC0A0268DFF8E01A200082
:1019F00000F0B3FB80460223D9ED010A99ED000AFD
:101A0000DFF8C40A0268DFF8C41A280000F040FAC0
:101A10008346DBF8000010F1010F1FD0DBF8040053
:101A200010F1010F1AD0DBF80400DFF89C1A0860EF
:101A300002200090DBF80430DBF80020DFF88C1A7D
:101A4000200000F0FBFBDFF8800A0268DFF8740A70
:101A50000168DFF8780A00F075FC06E018F1010F64
:101A600003D0DFF8640AC0F80080D5E017F1010F59
:101A700040F0D280DFF84C0A006810F1010F00F04E
:101A8000CB8002200090DFF8400A0368DFF8340AB8
:101A90000268DFF8381A200000F05FFB804618F17A
:101AA000010F00F0B9804246DFF8180A0168DFF83C
:101AB0001C0A00F067F901900198022800F0AC8040
:101AC00018F10100DFF8001A0968814206DB0021E5
:101AD000DFF8F82942F82010401CF3E74246DFF80F
:101AE000E4090168DFF8E40900F0F2F88146DFF864
:101AF00030090068022190FBF1F000EE100AB8EE08
:101B0000C00AD9ED010A30EEC00A89ED010A0223AC
:101B1000D9ED010A99ED000ADFF8AC090268DFF897
:101B2000AC19280000F0B4F98246DAF8000010F190
:101B3000010F1FD0DAF8040010F1010F1AD0DAF803
:101B40000400DFF88419086002200090DAF80430FD
:101B5000DAF80020DFF87419200000F06FFBDFF8DE
:101B600068090268DFF85C090168DFF8600900F0C5
:101B7000E9FB03E0DFF85009C0F80080DFF8B806A1
:101B8000006810F1010F46D001200090DFF88C08AA
:101B90000368DFF8A4060268DFF8A417200000F04D
:101BA000DCFA07000123D9ED010A99ED000ADFF8FC
:101BB0006C080268DFF88817280000F069F983468E
:101BC000DBF8000010F1010F1FD0DBF8040010F16A
:101BD000010F1AD0DBF80400DFF84018086001207C
:101BE0000090DBF80430DBF80020DFF85417200009
:101BF00000F024FBDFF824080268DFF83C060168E7
:101C0000DFF83C0700F09EFB05E017F1010F02D062
:101C1000DFF808080760FFE7BDE8F78FF0B40300BE
:101C2000481D571F874222DB53F8207013EB800CAE
:101C30005CF814CCB7EB0C073C0013EB80077F6912
:101C400053F820C0B7EB0C073D0005FB04F73E003E
:101C500016F1190F09DA471CBA4205DB5FF0000CD8
:101C600043F827C07F1CF7E703E0401CD9E75FF08B
:101C7000FF30F0BC7047F0B40300501F4F1DB84256
:101C800022DB53F8207013EB800C5CF814CCB7EB1C
:101C90000C073C0013EB80077F6953F820C0B7EBBB
:101CA0000C073D0005FB04F73E0016F1190F09DA99
:101CB000471E8F4205DB5FF0000C43F827C07F1EF4
:101CC000F7E703E0401ED9E75FF0FF30F0BC704754
:101CD0002DE9F0410300002005000020060000204F
:101CE000070000208446501A401C0400080082426D
:101CF00013DB53F820E01EEB05053B36361AD0F116
:101D00003B0E53F8208008FB0E77D0F13B0ED0F14C
:101D10003B0808FB0ECC401CE9E707FB04F006FB80
:101D2000150000EE100AB8EEC00A0CFB04F006FB2A
:101D3000160000EE900AF8EEE00A80EE200ADFF8C6
:101D4000740880ED000A95FBF4F000EE100AB8EE7E
:101D5000C00A00EE906AF8EEE00A01EE104AB8EE12
:101D6000C11AC0EE810ADFF84C0890ED001A00EEAF
:101D7000C10ADFF8400880ED010ADFF83808BDE845
:101D8000F0810000F8B52DED088B04000D00160061
:101D900054F8250054F82610401A401C00EE100A92
:101DA000B8EEC00A701B401C00EE900AF8EEE00A84
:101DB00080EE200AB0EE408A54F8250000EE100AAA
:101DC000B8EEC00AD5F13B0000EE900AF8EEE00A4A
:101DD00000EEC80AF0EE408A9FED2B0AB0EE409A62
:101DE0002F00BE4233DBD7F13B0000EE100AB8EE05
:101DF000C00A20EE080A54F8270000EE900AF8EE18
:101E0000E00A30EE600A30EE280A10EE100A01F007
:101E100039F931F0004141EC1B0BB7EE000A08EE36
:101E2000080A10EE100A01F02DF941EC100B01F038
:101E300089FB53EC102B51EC1B0B01F017FA01F04E
:101E400039FB09EE900A39EE299A7F1CC9E7701B0D
:101E5000401C00EE100AB8EEC00A89EE000AB0EE8F
:101E600040AADFF8540790ED000AB4EE4A0AF1EEFA
:101E700010FA01DB012000E00220BDEC088BF2BD6E
:101E8000DC39FF1F8C3EFF1F000000001C9EFF1F5F
:101E90002DE9F04F040000275FF0000C5FF0000E0A
:101EA0005FF0FF30DFF81497C9F800005FF0FF30F3
:101EB000DFF80897C9F80400012B40F0A480002047
:101EC0008446002086463B2012F10509814580F2B8
:101ED0004081D0F13B0901EE109AB8EEC11AF0EE44
:101EE000601A41EE001ABDEEE11A11EE109A4D464D
:101EF000A846DFF8CC96B9EB000999F83B90C145AC
:101F000006DADFF8BC96B9EB000999F83B90C846B1
:101F1000DFF8B096B9EB000999F83B90C84506DAAE
:101F2000DFF8A096B9EB000999F83B90C846C14686
:101F3000B9F1010F53DBD0F1000A5FF0A00B0BFBEE
:101F40000A4A19EB0A0A42F2E04B1BF80AA056466D
:101F5000012E41D1DFF8C8A4DAF800A05FF0020B2F
:101F60009AFBFBFA1AF10A0AB5EB090BDA4536DBE4
:101F70005FF0000AD646DFF844A6DAF804A01AF1AA
:101F8000010F00D14F46DFF840A6DAF800A0D44593
:101F900004DA41F820901CF1010C1BE0DFF828A6C0
:101FA000DAF800A0D44503D1DFF810A6CAF804007F
:101FB0001CF1010CB9EB070ABAF10A0F0ADAB9EB06
:101FC000070A1AF1090F05DB41F82090DFF8ECA5AC
:101FD000CAF800004F4602E0B9F10109A8E7BEF1D6
:101FE000000F08D0DFF8E095D9F80090CC4502DA70
:101FF0005FF00009CC461EF1010EBEF10B0F80F21E
:10200000A880401E60E7022B40F0A3800020844699
:10201000002086463B2012F10509814580F2998017
:10202000D0F13B0901EE109AB8EEC11AF0EE601A39
:1020300041EE001ABDEEE11A11EE109A4D46A84687
:10204000DFF87C95B9EB000999F83B90C14506DAB9
:10205000DFF86C95B9EB000999F83B90C846DFF8BA
:102060006495B9EB000999F83B90C84506DADFF8AA
:102070005495B9EB000999F83B90C846C146B9F1AF
:10208000A00F53DAD0F1000A5FF0A00B0BFB0A4A55
:1020900019EB0A0A42F2E04B1BF80AA05646012E41
:1020A00041D1DFF87CA3DAF800A05FF0020B9AFBC5
:1020B000FBFA1AF10A0AB9EB050BDA4536DB5FF0D9
:1020C000000AD646DFF8F4A4DAF804A01AF1010FEA
:1020D00000D14F46DFF8F0A4DAF800A0D44504DAC6
:1020E00041F820901CF1010C1BE0DFF8DCA4DAF8C9
:1020F00000A0D44503D1DFF8C4A4CAF804001CF141
:10210000010CB9EB070ABAF10A0F0ADAB9EB070AB0
:102110001AF1090F05DB41F82090DFF8A0A4CAF8F6
:1021200000004F4602E019F10109A8E7BEF1000FD7
:1021300008D0DFF89494D9F80090CC4502DA5FF02B
:102140000009CC461EF1010EBEF10B0F01DA401E54
:1021500061E7DFF86804BDE8F08F2DE9F041040085
:10216000069D00260027012D2FD1981A032802DA98
:10217000501C070001E0981E07003800834256DB20
:102180005FF0000C664651F820C0BCF1010F12DB75
:10219000D0F1000E5FF0A00808FB0E4E1CEB0E0EF7
:1021A00042F2E04818F80EE0BEF1000F03D1761CB1
:1021B000BCF1010CE9E7DFF890C5DCF800C0B445DC
:1021C00001DA401E35E0401CD8E7022D2FD1981AC5
:1021D000032802DA501C070001E0981E07003800AF
:1021E000834224DB5FF0000C664651F820C0BCF14E
:1021F000A00F12DAD0F1000E5FF0A00808FB0E4E1F
:102200001CEB0E0E42F2E04818F80EE0BEF1000F93
:1022100003D1761C1CF1010CE9E7DFF82CC5DCF8D2
:1022200000C0B44501DA401E03E0401CD8E75FF06F
:10223000FF30BDE8F0810000CC3EFF1F2DE9F041EA
:102240000400069D00260027012D39D1981A032885
:1022500002DA581E070001E0901C07003800904287
:102260006ADB5FF0000C664651F820C0BCF1010F3C
:1022700012DBD0F1000E5FF0A00808FB0E4E1CEB45
:102280000E0E42F2E04818F80EE0BEF1000F03D146
:10229000761CBCF1010CE9E7DFF8ACC4DCF800C047
:1022A000B4450BDA8446944506DB5FF0000E41F836
:1022B0002CE0BCF1010CF6E7401C3FE0401ECEE7ED
:1022C000022D39D1981A032802DA581E070001E0BE
:1022D000901C0700380090422EDB5FF0000C664631
:1022E00051F820C0BCF1A00F12DAD0F1000E5FF05F
:1022F000A00808FB0E4E1CEB0E0E42F2E04818F848
:102300000EE0BEF1000F03D1761C1CF1010CE9E7D1
:10231000DFF834C4DCF800C0B4450BDA84469445D9
:1023200006DB5FF0000E41F82CE0BCF1010CF6E793
:10233000401C03E0401ECEE75FF0FF30BDE8F081B7
:10234000E83EFF1F2DE9F24F2DED048B82B082464F
:1023500093460026002706980400A34559DB5AF847
:10236000240000900098002803D1002E01D1601EA7
:102370000600009800284AD0002E48D027005AF8BE
:10238000260000EE100AB0EE409A5AF8270000EE40
:10239000100AF0EE409AB8EEE90AF8EEC90A30EEFB
:1023A000600A00EE907AF8EEE00A01EE106AB8EEEC
:1023B000C11A70EEC10A80EE200A10EE100A00F079
:1023C00061FE41EC180B701C0500BD421BDA19EED2
:1023D000100A00F033FF80468946A81B00F02EFF4C
:1023E00053EC182B01F02EF942464B4600F082FECA
:1023F0000022DFF8983600F07DFE00F0EFFE4AF88C
:1024000025006D1CE1E70020060000200700641C89
:10241000A3E702B0BDEC048BBDE8F18FD03EFF1FF7
:102420002004FF1F30B4814207DADFF8482610602D
:102430000800DFF8402612681100DFF83C2652F849
:102440002020DFF838361A60DFF82C2652F82120D9
:10245000DFF82C361A60DFF828261268DFF81C3601
:102460001B68D21ADFF81C361A600A1ADFF8183611
:102470001A60DFF8102692ED000AB8EEC00AF0EEFE
:10248000000A20EE200ADFF800261268DFF8F8358F
:102490001B68DFF8F0452468DFF8E8552D686C43C9
:1024A00003FB024200EE902AF8EEE00A80EE200ADA
:1024B000DFF8DC2582ED000ADFF8D42592ED000A72
:1024C00030BC7047D43EFF1FD83EFF1FD83FFF1FD0
:1024D0002DE9FE4F82B004005FF0000B00260020C3
:1024E00001903848205C0090354814F8008000982E
:1024F0000500454559DADFF8040BA02101FB040073
:10250000285C00282FD0761CAA46681C0700474587
:1025100009DADFF8E80AA02101FB0400385C002892
:1025200001D07F1CF3E7B94619EB0A0000F086FEE4
:102530000022DFF8583500F0DDFD00225FF0804317
:1025400000F094FE00F04AFE8346B9EB0A000299BF
:1025500011EB860141F8040C049810EB860040F85A
:1025600004BC3D001DE0DFF8940AA02101FB04003B
:10257000285C002815D1AA46681C0700474509DADF
:10258000DFF8780AA02101FB0400385C002801D1A3
:102590007F1CF3E7B946B9EB0A00039941F826001E
:1025A0003D000A2E01DA6D1CA3E7300005B0BDE83E
:1025B000F08F0000508FFF1F3404FF1F588FFF1F44
:1025C00028FF0000ECFE00003804FF1F2DE9F04F4B
:1025D00083B000240020DFF8281A08600020DFF80C
:1025E000241A08607820019000200090DFF8185A23
:1025F000009A0199280001F0F7F84FF4966500263B
:10260000DFF8087A32002900380001F0EDF84FF4C5
:1026100096675FF00008DFF8F899424639004846AF
:1026200001F0E2F84FF496695FF0000ADFF8E4B9D0
:1026300052464946584601F0D7F85FF0190BBBF1F6
:10264000370F5CDABBF119000400DFF8C809282154
:1026500001FB0403DFF8B809282101FB0402DFF8BD
:10266000AC09282101FB04015846FFF731FFDFF8D0
:10267000981941F82400DFF8900950F82400042844
:1026800007DBDFF87C090068401CDFF8741908607C
:1026900032E0DFF8740950F8240002282CD1DFF86A
:1026A0006C09282101FB04000068DFF8601928226A
:1026B00002FB04114968401A152807DBDFF84409BA
:1026C0000068401CDFF83C19086015E0DFF83C09A1
:1026D000282101FB04004068DFF83019282202FBA2
:1026E00004110968401A152806DBDFF8180900688C
:1026F000401EDFF8101908601BF1010B9FE7DFF89F
:10270000040900680D2804DB0120DFF80C190860BB
:1027100018E0DFF8F008006810F10C0F04DA02206E
:10272000DFF8F41808600DE0DFF8D40800680A2824
:1027300004DB0420DFF8E018086003E00020DFF885
:10274000D8180860BDE8F78F3C04FF1FF0B583B0D0
:102750000600DFF8C80801683000FDF7A6FEDFF8C4
:10276000BC080068FDF712FF0700DFF8B008016839
:10277000DFF8AC080068FEF77BFFFEF7D3FA142001
:1027800000F088F9DFF89C180860DFF89808006806
:10279000142819DADFF88C080068102814DB0A20E6
:1027A00001F071F8002014280EDADFF87C18415C83
:1027B000DFF878281268032392FBF3F25118AE4A2F
:1027C00042F82010401CEEE70121002001F08FF8B4
:1027D0000121012001F08BF8DFF85408006800287F
:1027E00061D1FFF7F3FEDFF83008006804280DD14F
:1027F0000021012001F07BF80020142880F29A804B
:1028000050219D4A42F82010401CF6E7DFF80808E6
:102810000068012821D10021002001F068F8232060
:10282000DFF80C1808600020142880F28380DFF89D
:10283000F41551F8201000290DD0DFF8E81551F8F3
:102840002010DFF8E8271268042392FBF3F25118F6
:10285000894A42F82010401CE6E7DFF8BC07006810
:10286000022867D10021002001F041F82320DFF881
:10287000C0170860002014285CDADFF8AC1551F8A6
:10288000201000290DD0DFF8A01551F82010DFF836
:102890009C271268042392FBF3F2891A764A42F8C5
:1028A0002010401CE7E70021002001F020F8DFF8AD
:1028B00068070068012818D10020142833DADFF8EF
:1028C000641551F8201000290DD0DFF8581551F883
:1028D0002010DFF858271268042392FBF3F25118F6
:1028E000654A42F82010401CE7E7DFF82C07006833
:1028F000022818D10020142815DADFF82C1551F819
:10290000201000290DD0DFF8201551F82010DFF835
:102910001C271268042392FBF3F2891A564A42F8E4
:102920002010401CE7E7DFF808070068401EDFF8CA
:1029300000170860DFF8FC060068DFF8FC1609687D
:10294000401ADFF8F8160860DFF8E8060168DFF8DB
:10295000E8060068DFF8E42612685200032392FBC1
:10296000F3F21018FFF75EFDDFF8D40680ED000AE1
:10297000DFF8C4060068DFF8C416096849000322BE
:1029800091FBF2F10818411EDFF8AC060068DFF891
:10299000AC261268032392FBF3F21018FFF742FDF6
:1029A000DFF89C0680ED010ADFF888060168DFF891
:1029B00088060068FFF736FDDFF8840680ED020A1E
:1029C0002D48FDF742FDDFF87C160860DFF874063D
:1029D0000068DFF874160968401A00F02BFC1F2805
:1029E00006DBDFF864060068DFF85816086022E0AE
:1029F000DFF85006006800F021FC0022234B00F0B5
:102A000021FE04000D00DFF84006006800F016FC0F
:102A100000221E4B00F016FE22002B0000F06AFB85
:102A200000F0DCFBDFF81C160860DFF81806006811
:102A3000DFF8141608606420ADF804002020ADF81B
:102A400006004FF4784000901F230322DFF8F405BE
:102A50000168019801F044F9DFF8D8050268DFF851
:102A6000D80501680448FFF78DF9DFF8E015086024
:102A7000F7BD0000708FFF1FCC40FF1F608FFF1F4E
:102A8000648FFF1F688FFF1F6C8FFF1F0000E03FE8
:102A9000748FFF1F2DE9F14F87B000220023002023
:102AA0000390002006900024002002900020009057
:102AB0000025002600200590DFF86C054078401CBA
:102AC000C0B2DFF88C757F787F1EB84211DADFF86C
:102AD0002C75C0B2C71997F8A070FF2F07D1019FBE
:102AE0007F1C0197019F052F01DB002097E1401C0F
:102AF000E6E7DFF8340590F83A00401CC0B2DFF892
:102B0000507597F83A707F1EB84212DADFF8EC740D
:102B1000C0B2C71917F511573F78002F07D1019F91
:102B20007F1C0197019F052F01DB002077E1401CEE
:102B3000E4E700200100322980F2C580DFF81005AB
:102B4000401A90F83B00DFF8E0747F1A97F83B706A
:102B5000C01BC01E029050205027DFF8CCC4BCEB35
:102B6000010C9CF83BC01CF1010CC0B2844502DA98
:102B70005FF0010C01E05FF0000C5FFA8CFCFFB22B
:102B8000DFF8CCC4BCEB010C9CF83BC0BCF1010CE1
:102B9000674502DA5FF0010C01E05FF0000C5FFABC
:102BA0008CFCBCF1000F00F07F80DFF850C4D1F145
:102BB000000E5FF0A00808FB0ECC42F2305E1EF85B
:102BC0000CC0BCF1000F56D1DFF830C4D1F1000EBB
:102BD0005FF0A00808FB0ECCC0B210EB0C0C42F268
:102BE000E04E1EF80CC0BCF1000F00D1521CDFF803
:102BF0000CC4D1F1000E5FF0A00808FB0ECCFFB2B0
:102C000017EB0C0C42F2E04E1EF80CC0BCF1000FAA
:102C100000D16D1CDFF8E4C3D1F1000E5FF0A00815
:102C200008FB0ECCC0B210EB0C0C42F2E04E1EF8CA
:102C30000CC0BCF1FF0F00D15B1CDFF8C0C3D1F1A9
:102C4000000E5FF0A00808FB0ECCFFB217EB0C0CD7
:102C500042F2E04E1EF80CC0BCF1FF0F00D1761C12
:102C6000DDF808C05FF0040E9CFBFEFC15EB020EC5
:102C7000E64506DB00E017E0022B02DB022E00DB5C
:102C8000641C15EB020CDDF808E0F44509DBDDF807
:102C90000CC01CF1010ECDF80CE0032C01DB0091FF
:102CA00002E0401E7F1C58E70020030000200500C2
:102CB00000200200002006000098884201D100296F
:102CC00001D1491C37E70098884240F0A7800029CD
:102CD00000F0A4800027002004905FF0000E009810
:102CE000DDF81CC01CEB0000DDF800C0DDF81C8026
:102CF00018EB0C0CBCF1050C844580F28880DFF8E1
:102D000050C3BCEB000C9CF83BC0DFF81C83B8EB55
:102D1000000898F83B80BCEB080CBCF10308CDF828
:102D200008805FF0500C5FF05008DFF8FC92B9EBC0
:102D3000000999F83B9019F101095FFA8CFCE14513
:102D400002DA5FF0010901E05FF000095FFA89F93A
:102D50005FFA88F8DFF8F892B9EB000999F83B9030
:102D6000B9F10109C84502DA5FF0010901E05FF03D
:102D700000095FFA89F9B9F1000F43D0DFF87C92BE
:102D8000D0F1000A5FF0A00B0BFB0A9942F2305A17
:102D90001AF80990B9F1000F2CD1DFF86092D0F148
:102DA000000A5FF0A00B0BFB0A995FFA8CFC1CEB8E
:102DB000090942F2E04A1AF80990B9F1000F00D16E
:102DC0007F1CDFF83892D0F1000A5FF0A00B0BFBFC
:102DD0000A995FFA88F818EB090942F2E04A1AF8F2
:102DE0000990B9F1000F00D17F1CDDF808904F4524
:102DF00003DB00E006E01EF1010EBCF1010C18F14E
:102E0000010892E75FF0000C6746401E6CE7BEF1D8
:102E1000030F01DB009802E0002000E0002008B072
:102E2000BDE8F08FE83EFF1FD83FFF1F71B581B0AE
:102E3000814800687F4909680818022190FBF1F079
:102E400084490860844842690A23834844696425A8
:102E5000814840694FF47A7192FBF3F603FB162226
:102E600094FBF5F305FB13430A2493FBF4F30A24C4
:102E700004FB032290FBF1F301FB1300642190FBA0
:102E8000F1F0642101FB0020744908607248714927
:102E9000096850F821200A236F486E49096850F8E4
:102EA000214064256C486B49096850F821004FF4B3
:102EB0007A7192FBF3F603FB162294FBF5F305FB04
:102EC00013430A2493FBF4F30A2404FB032290FB2C
:102ED000F1F301FB1300642190FBF1F0642101FB8D
:102EE00000205F490860534800683C30ADF8060098
:102EF000BDF80600504909683C31884221DB56483C
:102F0000BDF806107FF0030202FB0100D0F8E001DB
:102F1000ADF80400BDF8040000F09AF9514A524B94
:102F200000F090FB00F05AF9ADF804004FF4FC619A
:102F3000019800F0A7FDBDF80600401EADF80600A0
:102F4000D6E74A4800683C30ADF80600BDF80600F8
:102F5000474909683C31884221DB4648BDF80610E4
:102F60007FF0030202FB0100D0F8E001ADF804009D
:102F7000BDF8040000F06CF93A4A3B4B00F062FBEC
:102F800000F02CF9ADF804004FF47841019800F0FE
:102F900079FDBDF80600401EADF80600D6E73648BC
:102FA00000683C30ADF80600BDF8060033490968FA
:102FB0003C31884220DB3248BDF806107FF0030226
:102FC00002FB0100D0F8E001ADF80400BDF80400F8
:102FD00000F03EF9234A244B00F034FB00F0FEF8E9
:102FE000ADF804001F21019800F04CFDBDF806006B
:102FF000401EADF80600D7E773BD0000D041FF1FAB
:10300000788FFF1F7C8FFF1F848FFF1FFC8FFF1F98
:10301000AC94FF1F5C99FF1F808FFF1F3004FF1FC0
:103020002C04FF1FC83EFF1FECFE00002004FF1F02
:103030000C9EFF1FE03EFF1FDC3EFF1FBC41FF1F39
:10304000C041FF1F2404FF1F2804FF1FE43EFF1F91
:1030500028FF0000189EFF1FCC40FF1F109EFF1F7F
:10306000149EFF1F9A9999999999E93FD03EFF1FA5
:10307000CC3EFF1FE83EFF1FD83EFF1FD43EFF1F80
:10308000D83FFF1F5FF0FF0C1CEAD05114BF614511
:1030900006E0C110400721F0E04101F160517047A6
:1030A00079B900F0004100020AD0B0FA80FC00FAC1
:1030B0000CF001F16051A1EB0C5101EBD021400566
:1030C000704741020CBF40F4E0016FF000010020A6
:1030D000704750F8041B61B150F8042BD30744BF6C
:1030E000A9F101039A180023091F42F8043BFAD101
:1030F000EFE7704770B44FF0004591EA030C44BF0E
:103100006B4000F029BF00BF841A71EB030603D2A5
:10311000001BB141121973414FF4001C1CEB410F0D
:1031200034BF7CEB430443E00C0DA4EB1356352E67
:1031300050DC45EAC323DB0A45EAC121C912B6F1D6
:1031400020050DDD63FA05F6EB4086EA0305124221
:1031500018BF45F00105C01851F100010CD213E071
:1031600062FA06F5F2405540F3415A40B340F3404D
:103170005A408018594107D349085FEA30005FEA96
:10318000350528BF45F0010501F58011420875F1AC
:10319000004250F1000041EB045170BC4FF4001CA0
:1031A0001CEB410F38BF70470020090D090570471F
:1031B0001CEB410F10D252EA43060BD0BCEB410F7F
:1031C00005D80C0DAB43661E342EB5DD02E0AB43D3
:1031D0008018594170BC704770BC7047F446400D70
:1031E00040EAC120490006D200F014F8004248BF6E
:1031F0006FF00040604700F00DF84FF0004188424A
:103200008CBF084640426047400D40EAC12049005B
:1032100080F00D8040F00040490DA1F58061491C0F
:1032200005D4D1F11F0154BFC840C01770474FF0FB
:1032300000007047002848BF40427047010040F13D
:103240000980F446404200F005F851F00041604723
:10325000010000BF09D0B0FA80F18840C91CC1F557
:103260008461090501EBD02140057047F0B540F2BB
:10327000FF7581EA030C0CF0004C15EA11541DBFD8
:1032800015EA1357AC42AF42E5E0BC41C1F313016C
:10329000C3F31303801A994143F4801304D2641ECC
:1032A0004000494180185941C90241EA5051B1FBDF
:1032B000F3F603FB1611A2FB0675D7EBC020A9415C
:1032C00002D2761E80185941C90241EA5051B1FB21
:1032D000F3FE03FB1E11A2FB0E75D7EBC020A94124
:1032E00003D2AEF1010E80185941890241EA905192
:1032F000760546EA8E2EB1FBF3F603FB1611A2FB10
:103300000675D7EB8020A94102D2761E801859415C
:10331000C90241EA50514EEA060EB1FBF3F603FB37
:103320001611A2FB0675D7EBC020A94102D2761E6A
:1033300080185941C90241EA5051B1FBF3F703FB30
:103340001711A2FB0735D3EBC020A94167F1000795
:103350000CBF004247F0010766F3D5274FEA1E3144
:10336000B80814F5806412DDBD0775F1004250EB1A
:103370000E5051EB045111F5801F5CBF41EA0C0166
:10338000F0BD4CF07F6141F0E0410020F0BDBD0791
:103390006D0840EA0E5041F48011D4F10104B4F1FB
:1033A00020060ADAC4F120060200E04001FA06F322
:1033B000E1401843B24015430EE0342C13DCC6F153
:1033C000200445EA40056D0820FA06F2154321FA6B
:1033D00006F0A1400D43002175F1004250F10000BC
:1033E00051EB0C01F0BD00205FEA0C01F0BDCFB93C
:1033F00092185B41B3FA83F704BFB2FA82F6BF19A1
:103400000B3FB7F120062FBF02FA06F3BB40C7F10E
:10341000200622FA06F638BF3343BA401CB1E4193D
:10342000641E33E77F4231F00041B1FA81F404BFFA
:10343000B0FA80F6A4190B3CB4F120062FBF00FAB5
:1034400006F1A140C4F1200620FA06F638BF314348
:10345000A0403C1B1AE7AC421ABF05EA1357AF4223
:1034600012E050EA41061CBF52EA4306BFE750EAA9
:103470004107304661461CBF41EA0551F0BD52EAA2
:10348000430C08BFC143F0BD00204FF4001616EBFB
:10349000410F98BF16EB430F08BF16EB410F24BF37
:1034A000C14305E016EB430F0CBF61464CEA0551E2
:1034B000F0BDFF004FEAF17CBCF1E04C2CBFBCF545
:1034C000001F11E05FEA4C0C34BFBCF17F5F2EE0BF
:1034D0005FEA9C0C4FEA0C1C4FEA3C0CC10071F1F6
:1034E00000414CEB50707047C90241EA5051C00294
:1034F00018BF41F0010141F000414FEA6C50C0F1AA
:103500000900212810D240EACC7CCCF1200C11FA21
:103510000CF070F10040CCF1200C21FA0CF00CF012
:10352000004C40EB0C0070474FEACC7070474900EC
:1035300011F5001F04D84FEACC10FF30C0057047CA
:10354000C817704751EC100B00B500F003F841ECC0
:10355000100B00BD40F2FF7C0B0D4DD0634566D2D1
:1035600030B421EA035141F4801103F2FD3C5FEADB
:103570005C0C01D300184941890041EA9071800038
:103580004FF440140023E202D50AB1F5100107D42C
:103590006D081DD2091B641900184941491BF7D554
:1035A0006D080AD20919641B00184941491BEFD55F
:1035B0006D08F7D301E0520817D0C01861419B1A7B
:1035C000AC4100184941801AA941F4D452080AD0EC
:1035D000C01AA1419B186C4100184941801AA941A9
:1035E000E9D45208F4D15B1C6C4161084FEA330006
:1035F00001EB0C5130BC704750EA0103FBD030B4F2
:10360000B1FA81F311B9B0FA80F41B190B3BB3F195
:1036100020042FBF00FA04F19940C3F1200420FADE
:1036200004F438BF21439840D3F101039DE763457B
:10363000E1D011F5801FDED850EA4101DBD0D9433B
:1036400000F040BDB0B581EA030C0CF0004C40F234
:10365000FF7515EA11541DBF15EA1357AC42AF426E
:1036600039E0E41923EA455343F48013C90241F0D9
:10367000004141EA505EC7021100A7FB0202002888
:103680004FF00000EEFB01204FF00001E3FB0721AB
:1036900018BF42F00102401800214941E3FB0E012E
:1036A000A4F580640F0302D252004041494154F115
:1036B00001046CDD470872F1004250F1000051EB4B
:1036C0000451A1F580115CBF41EA0C01B0BD4CEA88
:1036D00005510020B0BD05EA1357AC4214BFAF42FC
:1036E00041E050EA410E1CBF52EA430E02E061463F
:1036F0000020B0BD24423C441BD15FEA070EF6D047
:10370000090302BF01460020AEF1140EB1FA81F7A1
:10371000AEEB070401FA07FE0C37C7F1200100FAEF
:1037200007F7C8404EEA000E23EA455343F48013DE
:10373000A2E733F00043B3FA83F704BFB2FA82FE84
:1037400077440B3FE41BB7F1200E2FBF02FA0EF3B4
:10375000BB40C7F1200E22FA0EFE38BF43EA0E032B
:10376000BA40641C82E750EA410E14BF52EA430E8D
:103770006FF000014FF4001717EB430F8ABF194693
:1037800017EB410FB5E74CEA05510020B0BDD4F16D
:103790000104B4F120070FDAC4F12007520828BF52
:1037A00042F0010210FA07F501FA07F7E1BF2A43D8
:1037B000E0403843E1400FE0352C98DCC7F12004AD
:1037C00052EA400220FA07F218BF42F0010231FA31
:1037D00007F0A1400A43002172F1004250F10000BD
:1037E00051EB0C01B0BD000062F30F2262F31F42E7
:1037F000401810F0030308D0C91A1FD3DB0748BFD5
:1038000000F8012D28BF20F8022D130030B4144613
:103810001546103928BF20E93C00FAD8490728BFCF
:1038200020E90C0048BF40F8042D890028BF20F88B
:10383000022D48BF00F8012D30BC7047C91818BFD1
:1038400000F8012DCB0728BF00F8012D70470000BC
:1038500010B50400002C15D0B4F1807F03D32921CA
:103860000F4800F04AFC00200E4908600E48046032
:1038700000200E49086005200A49086009480068D0
:10388000C003FBD510BD10B504002000441E002865
:1038900004D007480068FFF7DBFFF6E710BD000023
:1038A000A0FF000010E000E014E000E018E000E0FD
:1038B00024A3FF1F10B5040064B2042C07DA012210
:1038C0000121264864B2205C00F0AAFC0EE004202E
:1038D00004002000441E40B2002807D0012201212C
:1038E0001E4864B2205C00F09BFCF2E710BD38B5C6
:1038F00004000D0064B2042C07DA2900C9B217488D
:1039000064B2205C00F0E3FC0EE004200400200020
:10391000441E40B2002807D02900C9B20F4864B243
:10392000205C00F0D4FCF2E731BD10B5040064B2B5
:10393000042C05DA094864B2205C00F002FD0CE0BA
:10394000042004002000441E40B2002805D0034893
:1039500064B2205C00F0F5FCF4E710BD2811FF1FF5
:1039600010B582B0DFF8B405046800F02BFD02F05A
:103970002AFBADF8000002F023FBADF802004FF483
:1039800078420099200000F001F813BDF2B5040060
:1039900015000099200002F005FABDF80000BDF8FE
:1039A0000210484307000120DFF87415086000206A
:1039B000DFF8701508600020DFF86C1508602C2017
:1039C000DFF8681508700020DFF864150860012032
:1039D000DFF85C1508600120DFF84C150860002056
:1039E0000600BE4239D20120DFF8341508600120FC
:1039F000DFF8301508600020DFF82C150860ADB244
:103A0000280ADFF8281508700020DFF82415086060
:103A10000120DFF81C1508600120DFF80C15086094
:103A20000120DFF8FC1408600120DFF8F8140860BA
:103A30000020DFF8F4140860DFF8F00405700020BF
:103A4000DFF8EC1408600120DFF8E41408600120BE
:103A5000DFF8D4140860761CC3E7F1BD38B5040064
:103A6000DFF8D004056802F0ABFAADF8020002F00E
:103A7000AAFAADF80000220092B200992800FFF7E0
:103A800085FF31BD70B504000D00DFF8AC04066899
:103A90003100200002F086F90120DFF8841408606C
:103AA0000020DFF8801408600020DFF87C14086034
:103AB0002C20DFF8781408700020DFF874140860F8
:103AC0000120DFF86C1408600120DFF85C14086046
:103AD0000120DFF84C1408600120DFF8481408606A
:103AE0000020DFF844140860ADB2280ADFF83C1467
:103AF00008700020DFF8381408600120DFF8301467
:103B000008600120DFF8201408600120DFF810149D
:103B100008600120DFF80C1408600020DFF80814AA
:103B20000860DFF8080405700020DFF8041408605E
:103B30000120DFF8FC1308600120DFF8EC130860B7
:103B400070BD2DE9F14781B00C0015001E00DFF8B3
:103B5000EC03D0F800A002F036FA0838BDF80410E3
:103B6000884206DB02F02CFA1038BDF806108842B5
:103B700000DAB3E05146019802F014F90120DFF8B1
:103B8000A01308600020DFF89C1308600020DFF815
:103B9000981308602C20DFF8941308700020DFF8D9
:103BA000901308600120DFF8881308600120DFF817
:103BB00078130860002081465FFA89F9B9F1100F87
:103BC00080F28C80DFF87803E4B2210151FA89F1A8
:103BD0000818B0F5007000780700002080465FFAF2
:103BE00088F8B8F1080F76DA380638D50120DFF802
:103BF000301308600120DFF82C1308600020DFF884
:103C000028130860ADB2280ADFF8201308700020DE
:103C1000DFF81C1308600120DFF81413086001208E
:103C2000DFF8041308600120DFF8F41208600120B7
:103C3000DFF8F01208600020DFF8EC120860DFF80F
:103C4000EC0205700020DFF8E81208600120DFF8C0
:103C5000E01208600120DFF8D012086037E0012090
:103C6000DFF8BC1208600120DFF8B81208600020FD
:103C7000DFF8B4120860B6B2300ADFF8B01208708C
:103C80000020DFF8AC1208600120DFF8A412086001
:103C90000120DFF8941208600120DFF88412086028
:103CA0000120DFF8801208600020DFF87C12086035
:103CB000DFF8780206700020DFF874120860012037
:103CC000DFF86C1208600120DFF85C1208607F00EA
:103CD00018F1010883E719F101096DE7BDE8F387E1
:103CE0002DE9F14382B0894615001E000A9C4F461B
:103CF0005FF00008BDF80A00ADF80600B9F1000F4A
:103D00001CD123009BB2320092B230210298FFF7FF
:103D100018FFBDF808000830ADF808001020ADF815
:103D20000200EDB2681E80B2C000ADF800002200B3
:103D300092B200990298FFF729FE4EE0002F05D0BD
:103D40000A20B7FBF0F718F10108F7E75FFA88F8E7
:103D5000EDB2A84500D3A8465FFA88F847465FFA57
:103D600088F8B8F1000F1FD0BDF808005FFA88F896
:103D70001FFA88F810EBC8000838ADF80400B8F155
:103D800001080A2023009BB2320092B2B9FBF0F185
:103D900000FB119010F13001C9B20198FFF7D1FE7C
:103DA0000A20B9FBF0F9DAE7EDB2AF4215D0EDB277
:103DB000E81B80B2C000ADF80000BDF80800F900B3
:103DC00011FA80F0ADF808001020ADF802002200D2
:103DD00092B200990298FFF7D9FDBDE8F7832DE96B
:103DE000FA4F83B004001500AA460399200001F0A1
:103DF000D9FF0120DFF8281108600020DFF8241126
:103E000008600020DFF8201108602C20DFF81C116A
:103E100008700020DFF8181108600120DFF8101189
:103E200008600120DFF80011086000208046BDF81E
:103E30000E001FFA88F880456CD21FFA88F8BDF88A
:103E4000120000FB08F0BDF80E1090FBF1F0ADF889
:103E50000000BDF80000BDF810104843019000209C
:103E60000700BDF80C00BFB2874250D2BFB2BDF808
:103E7000100000FB07F0BDF80C1090FBF1F081463C
:103E8000019810FA89F0060016F80A00C0B2C008BE
:103E9000C0B216F80A10C9B28908C9B2490151EA7C
:103EA000C02016F80A10C9B2C908C9B2084383462F
:103EB00001201B49086001201A49086000201A49A6
:103EC00008601FFA8BFB5FEA1B201849087000206E
:103ED000174908600120164908600120124908604E
:103EE00001200F49086001200E49086000200E499A
:103EF00008600E4880F800B000200D4908600120DD
:103F00000B4908600120084908607F1CA9E718F1E7
:103F100001088CE705B0BDE8F08F000064030100E4
:103F20002810FE433010FE432C10FE4380F00F405B
:103F30002410FE43680301006C03010070030100BC
:103F400060F1000070B44FF0004591EA030F44BFE8
:103F50006B40FFF7D9B800BF841A71EB030604D297
:103F60006E40001BB141121973414FF4001C1CEB51
:103F7000410F34BF7CEB430684E00C0DA4EB1356D9
:103F8000362E7DDC012E43DC45EAC32343EA52533F
:103F900012BFD20292025B08240545EAC12141EA20
:103FA0005051D2EBC020994125D407D1B0FA80F608
:103FB00010FA06F164D00020203608E0B1FA81F64C
:103FC000B140C6F1200220FA02F21143B0404FEA9C
:103FD000F474B4EB465434F001064FEA74040AD882
:103FE000D6F50016760D04F00044F04061FA06F2B2
:103FF0005040F1404840C00A40EA415021F00041A1
:1040000028BF5FEA500550F1000044EBD12137E0B2
:1040100045EAC323DB0A45EAC121C90AB6F12005F6
:104020000EDD42EA0242120CC5F1200603FA06F642
:10403000EB4042EA06056D42984161F100010DE056
:1040400062FA06F5F240554063FA06FC82EA0C0279
:10405000F3405A406D42904161EB030111F4801F1F
:1040600005D1641E620502D06D004041494121F432
:104070008011430875F1004350F1000041EB0451F9
:1040800070BC70471CEB410F15D223F0004352EA7D
:1040900043060BD04FEA4C0CBCEB410F04D80C0D7F
:1040A000661E342EB7DDEBE7801A994150EA4106CF
:1040B00008BF0021E4E708BF1CEB430F28BF6FF0E7
:1040C0000001DDE71FB501F093FF212101601FBD55
:1040D000DFF800F00912FF1FDFF800F02D12FF1FBC
:1040E000BFF34F8F4648006810F4E060454908432D
:1040F00043490860BFF34F8FFEE738B504000D0059
:104100000020FFF7D7FB2A0021003F4801F076FF8F
:104110000020FFF70AFC4FF47A70FFF7B4FBF2E7D8
:1041200038B504000D00210049B2042002F082F8E5
:10413000200032BD10B50024042002F095F80420C0
:1041400002F0C8F8002841D10020FFF7B3FB04209B
:1041500002F0C0F8012801D1012004000020FFF77F
:10416000E4FB2A4801F04AFF4FF4FA70FFF78BFB9B
:10417000E4B2012CEBD1042002F0ACF80028E6D127
:10418000042002F0A7F8002806D10020FFF7CDFB9D
:104190006420FFF778FBF3E7042002F09BF8012886
:1041A00006D10020FFF7C1FB3220FFF76CFBF3E7DD
:1041B000174801F023FFFFF78BFF6420FFF763FB35
:1041C0000020FFF789FFFFF78BFFC0E710BD10B598
:1041D000104804680120FFF76DFB0120FFF7A5FBE5
:1041E0000D48E4B20F2101FB0402E4B221000B48A8
:1041F00001F004FF4FF47A70FFF745FBEDE7000094
:104200000CED00E00400FA05C001010030030100DC
:104210006002010004ED00E06809FF1F64FF000078
:1042200070B504000D0016004FF480712000C0B27C
:1042300002F068F86DB2002D11D16048E4B261114E
:1042400050F821005D49E4B2621151F82210496929
:10425000012214F01F039A409143416136E0574810
:10426000E4B2611150F821005449E4B2621151F8EE
:1042700022104969012214F01F039A401143416141
:10428000F6B2002E11D14D48E4B2611150F8210070
:104290000068012114F01F02914088434749E4B2AD
:1042A000621151F82210086010E04448E4B2611134
:1042B00050F821000068012114F01F0291400843CA
:1042C0003E49E4B2621151F82210086070BD38B561
:1042D00004000D003948E4B2611150F82100406932
:1042E00014F01F010200CA40D00703D463213448F0
:1042F000FFF703FFEDB2002D11D13048E4B2611198
:1043000050F821000068012114F01F0291408843F9
:104310002A49E4B2621151F82210086010E02748DF
:10432000E4B2611150F821000068012114F01F026D
:10433000914008432149E4B2621151F8221008600B
:1043400031BD10B504001D48E4B2611150F82100E0
:10435000406914F01F010200CA40D00703D47B213A
:104360001748FFF7CAFE1548E4B2611150F8210062
:10437000012114F01F029140C16010BD10B504006E
:104380000E48E4B2611150F82100406914F01F0199
:104390000200CA40D00703D58C210948FFF7ADFEC3
:1043A0000648E4B2611150F82100006914F01F01C1
:1043B0000200CA4012F0010010BD00008010FF1F73
:1043C000BC00010010B500200400E4B2082C08DA9B
:1043D0000022012114F14000C0B2FFF721FF641C4C
:1043E000F3E7002201214920FFF71AFF01220121F2
:1043F0004A20FFF715FF012201214B20FFF710FF94
:10440000002201214C20FFF70BFF002201214D204B
:10441000FFF706FF4FF4A071492001F073FF4FF43E
:10442000A0714A2001F06EFF4FF4A0714B2001F003
:1044300069FF4FF4A0714C2001F064FF0020DFF809
:10444000241D08600120DFF81C1D08604FF4FA707D
:10445000FFF719FA0120DFF8101D08600020DFF8CF
:104460000C1D08600020DFF8081D08601120DFF82F
:10447000041D08700020DFF8001D08600120DFF82F
:10448000F81C08600120DFF8E81C08607820FFF7BE
:10449000FAF90120DFF8D01C08600020DFF8CC1CFE
:1044A00008600020DFF8C81C0860B120DFF8C41CD9
:1044B00008700020DFF8C01C08600120DFF8B81C7D
:1044C00008600120DFF8A81C08600120DFF8981CB4
:1044D00008600120DFF8941C08600020DFF8901CC1
:1044E00008600520DFF88C1C08700020DFF8881CAD
:1044F00008600120DFF8801C08600120DFF8701CD4
:1045000008600120DFF8601C08600120DFF85C1CF7
:1045100008600020DFF8581C08603A20DFF8541CBF
:1045200008700020DFF8501C08600120DFF8481CEC
:1045300008600120DFF8381C08600120DFF8281C23
:1045400008600120DFF8241C08600020DFF8201C30
:1045500008603A20DFF81C1C08700020DFF8181CE7
:1045600008600120DFF8101C08600120DFF8001C43
:1045700008600120DFF8F01B08600020DFF8EC1B6A
:1045800008600020DFF8E81B0860B220DFF8E41BB9
:1045900008700020DFF8E01B08600120DFF8D81B5E
:1045A00008600120DFF8C81B08600120DFF8B81B95
:1045B00008600120DFF8B41B08600020DFF8B01BA2
:1045C00008600520DFF8AC1B08700020DFF8A81B8E
:1045D00008600120DFF8A01B08600120DFF8901BB5
:1045E00008600120DFF8801B08600120DFF87C1BD9
:1045F00008600020DFF8781B08603A20DFF8741BA1
:1046000008700020DFF8701B08600120DFF8681BCD
:1046100008600120DFF8581B08600120DFF8481B04
:1046200008600120DFF8441B08600020DFF8401B11
:1046300008603A20DFF83C1B08700020DFF8381BC8
:1046400008600120DFF8301B08600120DFF8201B24
:1046500008600120DFF8101B08600020DFF80C1B49
:1046600008600020DFF8081B0860B320DFF8041B97
:1046700008700020DFF8001B08600120DFF8F81A3E
:1046800008600120DFF8E81A08600120DFF8D81A76
:1046900008600120DFF8D41A08600020DFF8D01A83
:1046A00008600520DFF8CC1A08700020DFF8C81A6F
:1046B00008600120DFF8C01A08600120DFF8B01A96
:1046C00008600120DFF8A01A08600120DFF89C1ABA
:1046D00008600020DFF8981A08603A20DFF8941A82
:1046E00008700020DFF8901A08600120DFF8881AAF
:1046F00008600120DFF8781A08600120DFF8681AE6
:1047000008600120DFF8641A08600020DFF8601AF2
:1047100008603A20DFF85C1A08700020DFF8581AA9
:1047200008600120DFF8501A08600120DFF8401A05
:1047300008600120DFF8301A08600120DFF82C1A29
:1047400008600020DFF8281A08600520DFF8241A26
:1047500008700020DFF8201A08600120DFF8181A1E
:1047600008600120DFF8081A08600120DFF8F81956
:1047700008600120DFF8F41908600020DFF8F01964
:1047800008603A20DFF8EC1908700020DFF8E8191B
:1047900008600120DFF8E01908600120DFF8D01977
:1047A00008600120DFF8C01908600120DFF8BC199B
:1047B00008600020DFF8B81908603A20DFF8B41963
:1047C00008700020DFF8B01908600120DFF8A81990
:1047D00008600120DFF8981908600120DFF88819C7
:1047E00008600020DFF8841908600020DFF88019D5
:1047F0000860B420DFF87C1908700020DFF8781911
:1048000008600120DFF8701908600120DFF86019E6
:1048100008600120DFF8501908600120DFF84C190A
:1048200008600020DFF8481908600720DFF8441905
:1048300008700020DFF8401908600120DFF83819FF
:1048400008600120DFF8281908600120DFF8181936
:1048500008600020DFF8141908600020DFF8101944
:104860000860C020DFF80C1908700020DFF8081974
:1048700008600120DFF8001908600120DFF8F01857
:1048800008600120DFF8E01808600120DFF8DC187C
:1048900008600020DFF8D81808602820DFF8D41856
:1048A00008700020DFF8D01808600120DFF8C81871
:1048B00008600120DFF8B81808600120DFF8A818A8
:1048C00008600120DFF8A41808600020DFF8A018B5
:1048D00008600820DFF89C1808700020DFF898189E
:1048E00008600120DFF8901808600120DFF88018C8
:1048F00008600120DFF8701808600120DFF86C18EC
:1049000008600020DFF8681808608420DFF8641869
:1049100008700020DFF8601808600120DFF85818E0
:1049200008600120DFF8481808600120DFF8381817
:1049300008600020DFF8341808600020DFF8301825
:104940000860C120DFF82C1808700020DFF8281854
:1049500008600120DFF8201808600120DFF8101837
:1049600008600120DFF8001808600120DFF8FC175C
:1049700008600020DFF8F8170860C020DFF8F4179F
:1049800008700020DFF8F01708600120DFF8E81752
:1049900008600120DFF8D81708600120DFF8C81789
:1049A00008600020DFF8C41708600020DFF8C01797
:1049B0000860C220DFF8BC1708700020DFF8B817C5
:1049C00008600120DFF8B01708600120DFF8A017A9
:1049D00008600120DFF8901708600120DFF88C17CD
:1049E00008600020DFF8881708600C20DFF88417C3
:1049F00008700020DFF8801708600120DFF87817C2
:104A000008600120DFF8681708600120DFF85817F8
:104A100008600120DFF8541708600020DFF8501705
:104A200008600020DFF84C1708700020DFF84817F6
:104A300008600120DFF8401708600120DFF8301718
:104A400008600120DFF8201708600020DFF81C173D
:104A500008600020DFF818170860C320DFF814177B
:104A600008700020DFF8101708600120DFF8081731
:104A700008600120DFF8F81608600120DFF8E8166A
:104A800008600120DFF8E41608600020DFF8E01677
:104A900008608C20DFF8DC1608700020DFF8D816DC
:104AA00008600120DFF8D01608600120DFF8C0168A
:104AB00008600120DFF8B01608600120DFF8AC16AE
:104AC00008600020DFF8A81608602A20DFF8A41686
:104AD00008700020DFF8A01608600120DFF89816A3
:104AE00008600120DFF8881608600120DFF87816DA
:104AF00008600020DFF8741608600020DFF87016E8
:104B00000860C420DFF86C1608700020DFF8681613
:104B100008600120DFF8601608600120DFF85016F9
:104B200008600120DFF8401608600120DFF83C161D
:104B300008600020DFF8381608608A20DFF8341695
:104B400008700020DFF8301608600120DFF8281612
:104B500008600120DFF8181608600120DFF8081649
:104B600008600120DFF8041608600020DFF8001656
:104B70000860EE20DFF8FC1508700020DFF8F8155B
:104B800008600120DFF8F01508600120DFF8E0156B
:104B900008600120DFF8D01508600020DFF8CC1590
:104BA00008600020DFF8C8150860C520DFF8C415CC
:104BB00008700020DFF8C01508600120DFF8B81584
:104BC00008600120DFF8A81508600120DFF89815BB
:104BD00008600120DFF8941508600020DFF89015C8
:104BE00008600C20DFF88C1508700020DFF88815AD
:104BF00008600120DFF8801508600120DFF87015DB
:104C000008600120DFF8601508600020DFF85C15FF
:104C100008600020DFF858150860E020DFF8541520
:104C200008700020DFF8501508600120DFF84815F3
:104C300008600120DFF8381508600120DFF828152A
:104C400008600120DFF8241508600020DFF8201537
:104C500008600520DFF81C1508700020DFF8181523
:104C600008600120DFF8101508600120DFF800154A
:104C700008600120DFF8F01408600120DFF8EC1470
:104C800008600020DFF8E81408601A20DFF8E41458
:104C900008700020DFF8E01408600120DFF8D81465
:104CA00008600120DFF8C81408600120DFF8B8149C
:104CB00008600120DFF8B41408600020DFF8B014A9
:104CC00008600C20DFF8AC1408700020DFF8A8148E
:104CD00008600120DFF8A01408600120DFF89014BC
:104CE00008600120DFF8801408600120DFF87C14E0
:104CF00008600020DFF8781408600E20DFF87414D4
:104D000008700020DFF8701408600120DFF86814D4
:104D100008600120DFF8581408600120DFF848140B
:104D200008600120DFF8441408600020DFF8401418
:104D300008603A20DFF83C1408700020DFF83814CF
:104D400008600120DFF8301408600120DFF820142B
:104D500008600120DFF8101408600120DFF80C144F
:104D600008600020DFF8081408603420DFF804141D
:104D700008700020DFF8001408600120DFF8F81345
:104D800008600120DFF8E81308600120DFF8D8137D
:104D900008600120DFF8D41308600020DFF8D0138A
:104DA00008602D20DFF8CC1308700020DFF8C8134E
:104DB00008600120DFF8C01308600120DFF8B0139D
:104DC00008600120DFF8A01308600120DFF89C13C1
:104DD00008600020DFF8981308602F20DFF8941394
:104DE00008700020DFF8901308600120DFF88813B6
:104DF00008600120DFF8781308600120DFF86813ED
:104E000008600120DFF8641308600020DFF86013F9
:104E100008602D20DFF85C1308700020DFF85813BD
:104E200008600120DFF8501308600120DFF840130C
:104E300008600120DFF8301308600120DFF82C1330
:104E400008600020DFF8281308602A20DFF8241308
:104E500008700020DFF8201308600120DFF8181325
:104E600008600120DFF8081308600120DFF8F8125D
:104E700008600120DFF8F41208600020DFF8F0126B
:104E800008602F20BB4908700020BB490860012042
:104E9000B94908600120B64908600120B24908609C
:104EA0000120B24908600020B14908603C20B149A6
:104EB00008700020B04908600120AF490860012057
:104EC000AB4908600120A84908600120A749086093
:104ED0000020A74908600020A64908700020A649C4
:104EE00008600120A44908600120A1490860012050
:104EF0009D49086001209D49086000209C49086088
:104F000001209C49087000209B49086001209A49B3
:104F1000086001209649086001209349086001203B
:104F20009249086000209249086002209149087067
:104F300000209149086001208F49086001208C49B8
:104F40000860012088490860012088490860002025
:104F5000874908601020874908700020864908604A
:104F600001208549086001208149086001207E49AF
:104F7000086000207D49086000207D490860E1202C
:104F80007C49087000207C49086001207A4908604B
:104F900001207749086001207349086001207349A6
:104FA00008600020724908600420724908700020DF
:104FB0007149086001207049086001206C4908604F
:104FC000012069490860012068490860002068499B
:104FD00008601B20674908700020674908600120AD
:104FE0006549086001206249086001205E49086047
:104FF00001205E49086000205D4908600D205D4980
:10500000087000205C49086001205B4908600120AD
:10501000574908600120544908600120534908603D
:105020000020534908600E20524908700020524960
:10503000086001205049086001204D4908600120A6
:105040004949086001204949086000204849086032
:105050002D20484908700020474908600120464932
:10506000086001204249086001203F490860012092
:105070003E49086000203E49086029203D490870EB
:1050800000203D49086001203B4908600120384963
:10509000086001203449086001203449086000207C
:1050A00033490860242033490870002032490860E1
:1050B00001203149086001202D49086001202A495A
:1050C000086001202949086000202949086029203A
:1050D00028490870002028490860012026490860F6
:1050E00001202349086001201F49086001201F4951
:1050F000086000201E49086028201E490870002012
:105100001D49086001201C490860012018490860F9
:105110000120154908600120144908600020144945
:1051200008602620134908700020134908600120F8
:105130001149086001200E49086001200A490860F1
:1051400001200A4908600020094908603120094906
:105150000870002008490860012007490860012004
:1051600003490BE03410FE432810FE433010FE4389
:105170002C10FE4380F00F402410FE4308600120F5
:10518000DFF80C1C08600120DFF8081C0860002014
:10519000DFF8041C08603B20DFF8001C08700020CA
:1051A000DFF8FC1B08600120DFF8F41B0860012019
:1051B000DFF8E41B08600120DFF8D41B0860012041
:1051C000DFF8D01B08600020DFF8CC1B086000204F
:1051D000DFF8C81B08700020DFF8C41B086001203E
:1051E000DFF8BC1B08600120DFF8AC1B0860012061
:1051F000DFF89C1B08600120DFF8981B0860002086
:10520000DFF8941B08600020DFF8901B0870002076
:10521000DFF88C1B08600120DFF8841B0860012088
:10522000DFF8741B08600120DFF8641B08600120B0
:10523000DFF8601B08600020DFF85C1B08600320BB
:10524000DFF8581B08700020DFF8541B08600120AD
:10525000DFF84C1B08600120DFF83C1B08600120D0
:10526000DFF82C1B08600120DFF8281B08600020F5
:10527000DFF8241B08601220DFF8201B08700020D4
:10528000DFF81C1B08600120DFF8141B08600120F8
:10529000DFF8041B08600120DFF8F41A0860002022
:1052A000DFF8F01A08600020DFF8EC1A08603A20F6
:1052B000DFF8E81A08700020DFF8E41A086001201F
:1052C000DFF8DC1A08600120DFF8CC1A0860012042
:1052D000DFF8BC1A08600120DFF8B81A0860002067
:1052E000DFF8B41A08600520DFF8B01A0870002053
:1052F000DFF8AC1A08600120DFF8A41A086001206A
:10530000DFF8941A08600120DFF8841A0860002092
:10531000DFF8801A08600020DFF87C1A0860292076
:10532000DFF8781A08700020DFF8741A086001208E
:10533000DFF86C1A08600120DFF85C1A08600120B1
:10534000DFF84C1A08600020DFF8481A08600020D7
:10535000DFF8441A08602C20DFF8401A087000209B
:10536000DFF83C1A08600120DFF8341A08600120D9
:10537000DFF8241A0860DFF8540C007800F001F818
:1053800010BD10B50400E4B2042C04DBC821DFF822
:10539000400CFEF7B2FEDFF8340C0470E4B2002CCF
:1053A00009D0022C00F0B982C0F05E81032C00F01D
:1053B000EA8300F0EBBC0120DFF8D419086000207C
:1053C000DFF8D01908600020DFF8CC19086036201B
:1053D000DFF8C81908700020DFF8C4190860012040
:1053E000DFF8BC1908600120DFF8AC190860012063
:1053F000DFF89C1908600120DFF898190860002088
:10540000DFF894190860C820DFF8901908700020B0
:10541000DFF88C1908600120DFF88419086001208A
:10542000DFF8741908600120DFF8641908600020B3
:10543000DFF8601908600020DFF85C1908602A2096
:10544000DFF8581908700020DFF8541908600120AF
:10545000DFF84C1908600120DFF83C1908600120D2
:10546000DFF82C1908600120DFF8281908600020F7
:10547000DFF8241908600020DFF8201908700020E8
:10548000DFF81C1908600120DFF8141908600120FA
:10549000DFF8041908600120DFF8F4180860012023
:1054A000DFF8F01808600020DFF8EC180860022030
:1054B000DFF8E81808700020DFF8E4180860012021
:1054C000DFF8DC1808600120DFF8CC180860012044
:1054D000DFF8BC1808600120DFF8B8180860002069
:1054E000DFF8B41808600020DFF8B018087000205A
:1054F000DFF8AC1808600120DFF8A418086001206C
:10550000DFF8941808600120DFF884180860012093
:10551000DFF8801808600020DFF87C180860812020
:10552000DFF8781808700020DFF874180860012090
:10553000DFF86C1808600120DFF85C1808600120B3
:10554000DFF84C1808600020DFF8481808600020D9
:10555000DFF8441808602B20DFF84018087000209E
:10556000DFF83C1808600120DFF8341808600120DB
:10557000DFF8241808600120DFF814180860012003
:10558000DFF8101808600020DFF80C180860002011
:10559000DFF8081808700020DFF804180860012000
:1055A000DFF8FC1708600120DFF8EC170860012025
:1055B000DFF8DC1708600120DFF8D817086000204A
:1055C000DFF8D41708600320DFF8D0170870002038
:1055D000DFF8CC1708600120DFF8C417086001204D
:1055E000DFF8B41708600120DFF8A4170860012075
:1055F000DFF8A01708600020DFF89C170860002083
:10560000DFF8981708700020DFF894170860012071
:10561000DFF88C1708600120DFF87C170860012094
:10562000DFF86C1708600120DFF8681708600020B9
:10563000DFF8641708608220DFF860170870002028
:10564000DFF85C1708600120DFF8541708600120BC
:10565000DFF8441708608020DFF878190880802080
:10566000DFF87419088091E30120DFF8241708603F
:105670000020DFF8201708600020DFF81C17086002
:105680003620DFF8181708700020DFF814170860BC
:105690000120DFF80C1708600120DFF8FC16086015
:1056A0000120DFF8EC1608600120DFF8E81608603A
:1056B0000020DFF8E4160860A820DFF8E016087084
:1056C0000020DFF8DC1608600120DFF8D41608603F
:1056D0000120DFF8C41608600120DFF8B416086066
:1056E0000020DFF8B01608600020DFF8AC16086074
:1056F0002A20DFF8A81608700020DFF8A41608603A
:105700000120DFF89C1608600120DFF88C16086085
:105710000120DFF87C1608600120DFF878160860A9
:105720000020DFF8741608600020DFF8701608709B
:105730000020DFF86C1608600120DFF864160860AE
:105740000120DFF8541608600120DFF844160860D5
:105750000120DFF8401608600020DFF83C160860E2
:105760000320DFF8381608700020DFF834160860D0
:105770000120DFF82C1608600120DFF81C160860F5
:105780000120DFF80C1608600120DFF80816086019
:105790000020DFF8041608600020DFF8001608700B
:1057A0000020DFF8FC1508600120DFF8F415086020
:1057B0000120DFF8E41508600120DFF8D415086047
:1057C0000120DFF8D01508600020DFF8CC15086054
:1057D0008220DFF8C81508700020DFF8C4150860C3
:1057E0000120DFF8BC1508600120DFF8AC15086067
:1057F0000120DFF89C1508600020DFF8981508608C
:105800000020DFF8941508602B20DFF89015087051
:105810000020DFF88C1508600120DFF8841508608F
:105820000120DFF8741508600120DFF864150860B6
:105830000120DFF8601508600020DFF85C150860C3
:105840000020DFF8581508700020DFF854150860B4
:105850000120DFF84C1508600120DFF83C150860D6
:105860000120DFF82C1508600120DFF828150860FA
:105870000020DFF8241508600220DFF820150870EA
:105880000020DFF81C1508600120DFF814150860FF
:105890000120DFF8041508600120DFF8F414086027
:1058A0000120DFF8F01408600020DFF8EC14086035
:1058B0000020DFF8E81408700020DFF8E414086026
:1058C0000120DFF8DC1408600120DFF8CC14086048
:1058D0000120DFF8BC1408600120DFF8B81408606C
:1058E0000020DFF8B41408608120DFF8B0140870DD
:1058F0000020DFF8AC1408600120DFF8A414086071
:105900000120DFF8941408608020DFF8C8160880B2
:105910008020DFF8C416088038E20120DFF8701418
:1059200008600020DFF86C1408600020DFF86814BD
:1059300008603620DFF8641408700020DFF8601477
:1059400008600120DFF8581408600120DFF84814CF
:1059500008600120DFF8381408600120DFF83414F3
:1059600008600020DFF8301408600820DFF82C14ED
:1059700008700020DFF8281408600120DFF82014E8
:1059800008600120DFF8101408600120DFF800141F
:1059900008600020DFF8FC1308600020DFF8F8132F
:1059A00008602A20DFF8F41308700020DFF8F013F5
:1059B00008600120DFF8E81308600120DFF8D81341
:1059C00008600120DFF8C81308600120DFF8C41365
:1059D00008600020DFF8C01308600020DFF8BC1367
:1059E00008700020DFF8B81308600120DFF8B0135A
:1059F00008600120DFF8A01308600120DFF8901391
:105A000008600120DFF88C1308600020DFF888139D
:105A100008600220DFF8841308700020DFF880138C
:105A200008600120DFF8781308600120DFF86813B0
:105A300008600120DFF8581308600120DFF85413D4
:105A400008600020DFF8501308600020DFF84C13D6
:105A500008700020DFF8481308600120DFF84013C9
:105A600008600120DFF8301308600120DFF8201300
:105A700008600120DFF81C1308600020DFF818130D
:105A800008608120DFF8141308700020DFF810137D
:105A900008600120DFF8081308600120DFF8F81221
:105AA00008600120BA4908600020BA490860002057
:105AB000B94908602B20B94908700020B84908602E
:105AC0000120B74908600120B34908600120B049AE
:105AD00008600120AF4908600020AF49086000203D
:105AE000AE4908700020AE4908600120AC4908604A
:105AF0000120A94908600120A54908600120A549A5
:105B000008600020A44908600320A4490870002010
:105B1000A34908600120A249086001209E4908604D
:105B200001209B49086001209A49086000209A4999
:105B300008600020994908700020994908600120F8
:105B40009749086001209449086001209049086045
:105B500001209049086000208F49086082208F4909
:105B6000087000208E49086001208D4908600120DE
:105B7000894908608020DFF85C1408808020DFF805
:105B80005814088002E10120814908600020814901
:105B90000860002080490860362080490870002095
:105BA0007F49086001207E49086001207A49086029
:105BB0000120774908600120764908600020764975
:105BC0000860682075490870002075490860012048
:105BD0007349086001207049086001206C49086021
:105BE00000206C49086000206B4908602A206B493E
:105BF000087000206A490860012069490860012096
:105C00006549086001206249086001206149086017
:105C10000020614908600020604908700020604948
:105C2000086001205E49086001205B49086001208E
:105C3000574908600120574908600020564908600C
:105C40000320564908700020554908600120544936
:105C5000086001205049086001204D49086001207A
:105C60004C49086000204C49086000204B490870EE
:105C700000204B490860012049490860012046493D
:105C80000860012042490860012042490860002064
:105C9000414908608220414908700020404908605D
:105CA00001203F49086001203B4908600120384934
:105CB00008600020374908600020374908602B2021
:105CC00036490870002036490860012034490860D0
:105CD00001203149086001202D49086001202D492B
:105CE000086000202C49086000202C490870002022
:105CF0002B49086001202A490860012026490860D4
:105D0000012023490860012022490860002022491F
:105D10000860022021490870002021490860012004
:105D20001F49086001201C490860012018490860CB
:105D30000120184908600020174908600020174911
:105D400008700020164908600120154908600120EC
:105D50001149086001200E49086001200D490860C2
:105D600000200D49086081200C49087000200C4972
:105D7000086001200A490860012007490860802066
:105D800094490880802094490880FFE710BD0000F6
:105D90002810FE433010FE432C10FE4380F00F40CD
:105DA0002410FE4303B489480078C0070AD5BDF823
:105DB0000000C01CADF80000BDF80200801CADF86A
:105DC000020009E0BDF80000801CADF80000BDF83D
:105DD0000200C01CADF802000120804908600020CC
:105DE0007F49086000207F4908602A207E490870AA
:105DF00000207E49086001207C4908600120794923
:105E0000086001207549086001207549086000207C
:105E100074490860BDF8000080B2000A7249087039
:105E200000207249086001207049086001206D4916
:105E30000860012069490860012069490860002064
:105E400068490860BDF8000067490870002067498C
:105E5000086001206549086001206249086001204E
:105E60005E49086001205E49086000205D490860C5
:105E7000BDF80000BDF8041011FA80F0401E0012B9
:105E800059490870002059490860012057490860A5
