:10000000F8FF0020110400005F2900005F290000B4
:100010005F2900005F2900005F2900005F290000C0
:100020005F2900005F2900005F2900005F290000B0
:100030005F2900005F2900005F2900005F290000A0
:100040005F2900005F2900005F2900005F29000090
:10040000FFFFFFFFFFFFFFFFFFFFFFFFFEFFFFFFFD
:1004100062B603F075F9FEE72DE9F04FA1B0824610
:10042000002017461D4602910B900DF1440B6FF012
:1004300000490AE017F8011B0298D04702900028F3
:1004400000F0A2820B98401C0B90387808B90B98EA
:100450009CE22528EED10020059006900790089098
:1004600009900A9001E040F0010017F8011F2029CF
:10047000F9D023290DD02B2904D02D2906D03029DD
:100480000AD00CE040F0020080B2EEE740F0040039
:10049000FAE740F00800F7E740F01000F4E72A29F7
:1004A0000ED12968296051F8042B2960002A0D9289
:1004B00004D5514240F004000D9180B27F1C11E040
:1004C00000210D9109E00D99494505D001EB81030B
:1004D00002EB430130390D917F1C3A78A2F13001D3
:1004E0000A29F0D339782E2903D04FF0FF310C912F
:1004F0001DE017F8011F2A2907D1296829607F1CF0
:1005000051F8042B29600C9211E000210C9109E0B4
:100510000C99494505D001EB810302EB43013039C9
:100520000C917F1C3A78A2F130010A29F0D3ADF882
:1005300038000FF6B820397800F076FD08B117F8CA
:10054000010B8DF83A009DF83A00682802BF39780F
:100550006829622005D06C2804BF38786C2803D144
:1005600071208DF83A007F1C11A8049017F8014BF8
:10057000B4F1250024D02038022840F2C580133879
:1005800000F0EB800B3800F04F81401E00F024811A
:10059000401E022840F2B880001F00F01D81401F5D
:1005A00000F08380401E00F0D880401E29D0C01E7D
:1005B0000CD0801E00F0D180C01E00F0CE803DE146
:1005C0000120059025208DF8440043E1286828602B
:1005D00050F8044B28600394DDF83080B8F1000F28
:1005E00004D5204600F02CFD804607E0424600215D
:1005F000204600F041FD08B1A0EB0408CDF81880BA
:1006000028E1296829604FF03C0851F8040B296063
:100610000021CDE9000111A80390DDE90001049C4F
:1006200011B908B90C9AC2B10206120FA0EB02125E
:100630003032D2B23A2AA8BF27320009A8F101030A
:1006400040EA017009091A5508BF0028984604D0ED
:10065000039A08EB04039A42E6D308EB04000390E4
:10066000C8F13C010C980691814209DA401A0890C1
:100670004FF6EF71BDF838000840ADF83800E9E0FA
:10068000002840F1E7809DF8380000F014001028A1
:1006900040F0E0800D98059A801A089A801A401A56
:1006A0000128C0F2D7800890D4E09DF83A00622873
:1006B0001AD0682806D06A280CD06C281CD0712863
:1006C00008D019E02868286050F8041B28600B98AF
:1006D0000880BFE02868286050F8042B28600B9839
:1006E000C117C2E90001B5E02868286050F8041B72
:1006F00028600B980870ADE02868286050F8041B4B
:1007000028600B980860A5E02868C01D20F007024B
:100710002A60D2E9000108322A60CDE900010029EF
:1007200003D5012005902D200CE0BDF8380081078D
:1007300003D5012005902B2004E0C00704D501203B
:10074000059020208DF84400059911A80818039001
:10075000214600A800F0D8F97CE09DF83A206C2AE8
:100760000DD0712A18BF6A2A09D12868C01D20F04F
:1007700007032B60D3E9000108332B6005E02968EB
:10078000296051F8040B29600021CDE90001682A95
:1007900008BF80B207D0622A08BFC0B203D0742A53
:1007A00018BF7A2A02D10021CDE900019DF8380056
:1007B000000730D5DDE90001002908BF00282AD054
:1007C00044F02000782826D130208DF844008BF8A2
:1007D0000140022005901EE09DF83A00294600F0F5
:1007E000D8F8CDE90001002904DA0598411C0591EB
:1007F0002D210EE0BDF83800810704D50598411C75
:1008000005912B2105E0C00705D50598411C0591F0
:10081000202100F80B10059911A808180390214613
:1008200000A800F0EDF815E0012005902868286088
:1008300050F8041B28608DF844100BE0012005904F
:100840002520002C8DF8440004D00598411C05910A
:1008500000F80B400D980599401A0899401A06991E
:10086000401A0999401A0799401A0A99A0EB010801
:100870009DF8380040070FD420208DF84000002458
:1008800008E0012310AA00A9504600F098FB0028B8
:100890007AD1641C4445F4DB059C11AE0AE016F8DD
:1008A000011B0298D047029000286DD00B98401C85
:1008B0000B90641E002CF2D130208DF840000026F1
:1008C000089C08E0012310AA00A9504600F077FB1D
:1008D000002859D1761CA642F4DB069C039E0AE050
:1008E00016F8011B0298D047029000284CD00B98B4
:1008F000401C0B90641E002CF2D130208DF840007B
:100900000026099C07E0012310AA00A9504600F028
:1009100056FBC8BB761CA642F5DB03980699079CDC
:100920000E1809E016F8011B0298D047029058B340
:100930000B98401C0B90641E002CF3D130208DF8D6
:10094000400000260A9C07E0012310AA00A9504697
:1009500000F035FBC0B9761CA642F5DB9DF83800E7
:1009600040077FF572AD20208DF84000002400E0A4
:10097000641C4445BFF669AD012310AA00A9504686
:1009800000F01DFB0028F3D04FF0FF3021B0BDE890
:10099000F08F622826D068281DD06A2808D06C28DD
:1009A00027D0712804D0742823D07A280CD020E0D6
:1009B0000868C01D20F007000860D0E90023083057
:1009C00008601946104670470A680A6052F8040B1E
:1009D0000A60002170470A680A6052F8040B0A6036
:1009E00000B20BE00A680A6052F8040B0A6040B2D9
:1009F00004E00A680A6052F8040B0A60C1177047E5
:100A00002DE9FA4E05460A462F696F2A08BF0824C9
:100A100005D041F02000782814BF0A2410243C2679
:100A2000D5E90001642A18BF692A81468A4605D1A2
:100A3000002903DAD9F100096AEB4A0ABAF1000F7A
:100A400008BFB9F1000F0CD1286B50B9082C36D172
:100A500095F83800000732D530203B2687F83B0058
:100A60002DE0E31748465146224600F031FBA4FB37
:100A70000023A9EB02023032D2B2A6F1010B3A2ACE
:100A80005E4603DB9DF80030513B9A1881465FEAD1
:100A9000010A0BF8072008BFB9F1000F03D0E8687E
:100AA000F1198842DDD3082C09D195F838000007E8
:100AB00005D5F05D302802D0761E3020F055C6F105
:100AC0003C00A861F119E960296B884208DA081A2C
:100AD00028624FF6EF71288F08402887BDE8F38E13
:100AE00000290ED595F8381001F01401102908D10D
:100AF000696B6A69891A2A6A891A081A0128A8BFC3
:100B00002862BDE8F38E00002DE9F34F8BB0D0E9E9
:100B10000089006B002801AF48BF062005D404BF40
:100B200041F02000672802D101200B99086340F2B0
:100B3000FF720B984168C1F30A50904220D108031C
:100B400002BF0B98006800280AD10B990320886126
:100B50009DF8300061381A2858D30FF2A44109E0FB
:100B60000B99032088619DF8300061381A284AD318
:100B70000FF284410B98C068032200F021FB00E1D2
:100B8000012807DA0B9800F056FB012802DB00234E
:100B90000026EDE00B9ADFF854B1526840F2FE31C6
:100BA00061F31E520B994A6040F2FE31461A4046EC
:100BB00049460022002300F05FFB38BF89F000495E
:100BC00036B247F297507043494990FBF1F636B27E
:100BD000C6F10707012F92461BDBF80707D55246DF
:100BE0005B464046494600F05FFB804689467F10E1
:100BF0005046594652465B4600F056FB002F82464F
:100C00008B46EAD126E00FF2EC31B3E70FF2EC317C
:100C1000B0E77F420024374D12E0F80707D552466F
:100C20005B462046294600F03FFB04460D467F10F8
:100C30005046594652465B4600F036FB82468B468C
:100C4000002FEAD14046494622462B4600F0FEFBE3
:100C5000804689469DF830000B99DFF89CB0096BFF
:100C600040F02005662D0CBF06F10A00062047184B
:100C7000142FA8BF132730208DF804000DF10504B0
:100C8000012F3BDB4046494600F004FD014604F1DC
:100C9000080204234FF00A0CB1FBFCFC0CEB8C04A3
:100CA000A1EB4401303102F8011D0A21BCFBF1FE29
:100CB0000EEB8E04ACEB440430345B1E714602F83C
:100CC000014DE7D1083F012F02F10804D8DB00F005
:100CD000F7FC02460B464046494600F0FFFC002266
:100CE0005B4600F0E1FA80468946CBE700002440ED
:100CF000A08601000000F03F84D797410DF1050068
:100D0000201A0DF1050702E0401E761E7F1C39787F
:100D10003029F9D0662D02D136B2711C03E0652D61
:100D20000CBF012100210B9A126B8B181BB2984249
:100D3000B8BF03461BB219001AD4814204DAC85D59
:100D40003528A8BF392000DA3020CA19521E00E029
:100D50005B1E12F80159491E8542F9D0392802D18B
:100D6000C85D401CC855002902D57F1E5B1C761C3F
:100D700036B29DF830100B9800961BB23A4600F040
:100D800003F80DB0BDE8F08F2DE9F04786B00646B8
:100D90008A4690461D4600F07EFD406A376B90F80B
:100DA0000090012D02DA01250FF258284AF02000A8
:100DB000BDF93840662808BF641C13D0672840F08E
:100DC000888014F1040F73DBBC4271DA96F83800A6
:100DD000641C000702D4BD42B8BF2F4624B23F1B9B
:100DE00048BF002724B2F068B169012C21DA4A1CFF
:100DF00030230B54012F03DA96F83810090702D577
:100E000002F80090521CE742B8BF7C4224B2614213
:100E1000E719AF42B261B8BF3D4671622DB2F561CC
:100E20002A46B3694146181800F0CAF9781BB06227
:100E3000AEE00818A54216DA2A46414600F0C0F98D
:100E4000B1696918601BB161012F706203DA96F80D
:100E50003800000705D5F06801F80090F069401CE3
:100E6000F061B76294E02246414600F0A9F9B0690A
:100E700020182D1B012F03DA96F83810090703D527
:100E8000F16800F80190401CB0612DB2AF42B8BFCC
:100E90003D46F068B3692DB22A4604EB08011818E4
:100EA00000F08EF9B0692818B061781B70626FE0AD
:100EB000BD4204DA96F83810090758BF2F467F1E46
:100EC00048BF0027BAF1670F0CBF4FF0650A4FF01B
:100ED000450AB169F06818F8013B0B544A1C012F10
:100EE00005DA96F83810090758BFB26115D502F82F
:100EF0000090531C012FB3610FDB6D1E2DB2AF426A
:100F0000B8BF3D462DB22A464146181800F058F9A0
:100F1000B0692818B061781B7062F068B16901EBA4
:100F20000008200008F801AB03D42B2008F8010BBF
:100F300003E02D2108F8011B6442002502AF08E000
:100F40000A2200A800F0C0FC019807F8010B6D1CF4
:100F5000009C21B20129F3DA022D06DA4AF02000C2
:100F6000652804BF302008F8010B4DB9302008F87F
:100F7000010B07E06D1E02A8285C303008F8010B59
:100F8000012DF7DAF068B1690818A8EB0000F061EC
:100F900096F8380000F0140010280DD17069B1697E
:100FA0000818716A0818F1690818B16A0818716B95
:100FB0008842BCBF081A306206B0BDE8F087F8B5B9
:100FC00004460D4616461F46002004E0E86A401C11
:100FD000E8627F1E002047B116F8011BA868A047F1
:100FE000A8600028F2D14FF0FF30F2BD686A6C743F
:100FF0007A4C00006E616E004E414E00696E6600D4
:10100000494E4600300050F8041B61B150F8042BE3
:10101000D30744BFA9F101039A180023091F42F81E
:10102000043BFAD1EFE770470278C9B28A421AB19D
:101030001CBF10F8012FF9E718BF0020704703FC10
:1010400000F10103810704D010F8011B89B1810769
:10105000FAD10268B2F10131914311F0803F04BF2F
:1010600050F8042FF6E710F8011B11B110F8011B1E
:10107000FBE7C01A7047FC03C9B2830706D0521EB3
:1010800022D310F8013B9942F7D11FE0083A13D35D
:1010900002F1040241EA012141EA014150F8043B16
:1010A000121F21BF4B40A3F1013C2CEA030C1CF0A2
:1010B000803FF3D0C9B2001F083210F8013B521E26
:1010C00028BF91EA030FF8D818BF0120401E7047CF
:1010D0001B4213D1094236D12AB18446B0FBF2F04B
:1010E00002FB10C2704700F0F7BBFCD300220023C4
:1010F00070470B000200002100207047904271EB06
:10110000030CF6D370B5B1FA81F4B3FA83F52C1B56
:10111000A340C4F1200532FA05F63343A2405FF044
:101120000046E64002E05B085FEA3202841A71EB97
:10113000030524BF204629467641F4D302000B0064
:101140003000002170BD012ACFD970B5140C20D019
:10115000B1FA81F4B2FA82F5C4F120046419B4F151
:101160002006D6D3B2405FF00044F440002502E0F0
:1011700052085FEA3303C61A71EB020E24BF3046F1
:10118000714664416D41F3D302000B002000290039
:1011900070BD0C46B1FBF2F102FB11452D0445EA8E
:1011A0001045B5FBF2F402FB145580B240EA054548
:1011B000B5FBF2F002FB105240EA044070BD0000A3
:1011C00062B38B0708D0521E11F8013B00F8013BB7
:1011D00000F024808B07F6D1830740F0208000BF09
:1011E000103A07D330B4B1E83810103AA0E83810FC
:1011F000F9D230BC530724BFB1E80810A0E80810AA
:1012000044BF51F8043B40F8043BD20724BF31F8F7
:10121000022B20F8022B44BF0B7803707047083A6A
:1012200007D3B1E80810083A40F8043B40F804CB73
:10123000F7D25307E4E730B4436803F000420121DA
:101240001B031B0B436004BF0368002B08D10DE098
:101250000368DD0F45EA440444605B000360491EF7
:101260004468E302F4D523031B0B436043681A432D
:101270004260084630BC70474FF4001C1CEB410F25
:1012800094BF1CEB430F09E041EA030C50EA4C0CFD
:1012900052EA0C0C03D2994208BF9042704714BF27
:1012A0008B42824270470000B0B581EA030C0CF01B
:1012B000004C40F2FF7515EA11541DBF15EA135793
:1012C000AC42AF4239E0E41923EA455343F48013BA
:1012D000C90241F0004141EA505EC7021100A7FB7C
:1012E000020200284FF00000EEFB01204FF0000149
:1012F000E3FB072118BF42F00102401800214941D9
:10130000E3FB0E01A4F580640F0302D252004041BA
:10131000494154F101046CDD470872F1004250F17B
:10132000000051EB0451A1F580115CBF41EA0C01B2
:10133000B0BD4CEA05510020B0BD05EA1357AC42E0
:1013400014BFAF4241E050EA410E1CBF52EA430EC7
:1013500002E061460020B0BD24423C441BD15FEA5C
:10136000070EF6D0090302BF01460020AEF1140EAD
:10137000B1FA81F7AEEB070401FA07FE0C37C7F1AB
:10138000200100FA07F7C8404EEA000E23EA455351
:1013900043F48013A2E733F00043B3FA83F704BFAA
:1013A000B2FA82FE77440B3FE41BB7F1200E2FBF49
:1013B00002FA0EF3BB40C7F1200E22FA0EFE38BF30
:1013C00043EA0E03BA40641C82E750EA410E14BFA0
:1013D00052EA430E6FF000014FF4001717EB430F72
:1013E0008ABF194617EB410FB5E74CEA05510020BB
:1013F000B0BDD4F10104B4F120070FDAC4F1200725
:10140000520828BF42F0010210FA07F501FA07F767
:10141000E1BF2A43E0403843E1400FE0352C98DC3F
:10142000C7F1200452EA400220FA07F218BF42F046
:10143000010231FA07F0A1400A43002172F1004293
:1014400050F1000051EB0C01B0BD0000F0B540F2CE
:10145000FF7581EA030C0CF0004C15EA11541DBF16
:1014600015EA1357AC42AF42E5E0BC41C1F31301AA
:10147000C3F31303801A994143F4801304D2641E0A
:101480004000494180185941C90241EA5051B1FB1D
:10149000F3F603FB1611A2FB0675D7EBC020A9419A
:1014A00002D2761E80185941C90241EA5051B1FB5F
:1014B000F3FE03FB1E11A2FB0E75D7EBC020A94162
:1014C00003D2AEF1010E80185941890241EA9051D0
:1014D000760546EA8E2EB1FBF3F603FB1611A2FB4E
:1014E0000675D7EB8020A94102D2761E801859419B
:1014F000C90241EA50514EEA060EB1FBF3F603FB76
:101500001611A2FB0675D7EBC020A94102D2761EA8
:1015100080185941C90241EA5051B1FBF3F703FB6E
:101520001711A2FB0735D3EBC020A94167F10007D3
:101530000CBF004247F0010766F3D5274FEA1E3182
:10154000B80814F5806412DDBD0775F1004250EB58
:101550000E5051EB045111F5801F5CBF41EA0C01A4
:10156000F0BD4CF07F6141F0E0410020F0BDBD07CF
:101570006D0840EA0E5041F48011D4F10104B4F139
:1015800020060ADAC4F120060200E04001FA06F360
:10159000E1401843B24015430EE0342C13DCC6F191
:1015A000200445EA40056D0820FA06F2154321FAA9
:1015B00006F0A1400D43002175F1004250F10000FA
:1015C00051EB0C01F0BD00205FEA0C01F0BDCFB97A
:1015D00092185B41B3FA83F704BFB2FA82F6BF19DF
:1015E0000B3FB7F120062FBF02FA06F3BB40C7F14D
:1015F000200622FA06F638BF3343BA401CB1E4197C
:10160000641E33E77F4231F00041B1FA81F404BF38
:10161000B0FA80F6A4190B3CB4F120062FBF00FAF3
:1016200006F1A140C4F1200620FA06F638BF314386
:10163000A0403C1B1AE7AC421ABF05EA1357AF4261
:1016400012E050EA41061CBF52EA4306BFE750EAE7
:101650004107304661461CBF41EA0551F0BD52EAE0
:10166000430C08BFC143F0BD00204FF4001616EB39
:10167000410F98BF16EB430F08BF16EB410F24BF75
:10168000C14305E016EB430F0CBF61464CEA055120
:10169000F0BD0000400D40EAC120490080F00D80FF
:1016A00040F00040490DA1F58061491C05D4D1F1FD
:1016B0001F0154BFC840C01770474FF0000070476B
:1016C000010000BF09D0B0FA80F18840C91CC1F503
:1016D0008461090501EBD0214005704770B44FF0DB
:1016E000004591EA030F44BF6B4000F001B900BF11
:1016F000841A71EB030604D26E40001BB14112192B
:1017000073414FF4001C1CEB410F34BF7CEB4306CC
:1017100084E00C0DA4EB1356362E7DDC012E43DC49
:1017200045EAC32343EA525312BFD20292025B0836
:10173000240545EAC12141EA5051D2EBC02099412C
:1017400025D407D1B0FA80F610FA06F164D0002053
:10175000203608E0B1FA81F6B140C6F1200220FA45
:1017600002F21143B0404FEAF474B4EB465434F043
:1017700001064FEA74040AD8D6F50016760D04F077
:101780000044F04061FA06F25040F1404840C00A7F
:1017900040EA415021F0004128BF5FEA500550F176
:1017A000000044EBD12137E045EAC323DB0A45EAD8
:1017B000C121C90AB6F120050EDD42EA0242120C2F
:1017C000C5F1200603FA06F6EB4042EA06056D4233
:1017D000984161F100010DE062FA06F5F2405540D2
:1017E00063FA06FC82EA0C02F3405A406D429041D3
:1017F00061EB030111F4801F05D1641E620502D064
:101800006D004041494121F48011430875F10043C6
:1018100050F1000041EB045170BC70471CEB410FCC
:1018200015D223F0004352EA43060BD04FEA4C0C8A
:10183000BCEB410F04D80C0D661E342EB7DDEBE770
:10184000801A994150EA410608BF0021E4E708BF29
:101850001CEB430F28BF6FF00001DDE780B5134894
:1018600000F0B0F80FF24801016041608160C16092
:101870000161416181610FF23C0242628162C16299
:10188000016341630FF2300282630FF23402C263DC
:101890000164416401BD10B5044800F093F80446AA
:1018A000206808B9FFF7DAFF204610BDC80EFF1FF9
:1018B000000000002E00000066616C7365000000EF
:1018C000747275650000000091FBF2F303FB1211C6
:1018D000C0E90031704700007047000070B44FF05D
:1018E000004591EA030C44BF6B40FFF701BF00BF06
:1018F000841A71EB030603D2001BB1411219734124
:101900004FF4001C1CEB410F34BF7CEB430443E05D
:101910000C0DA4EB1356352E50DC45EAC323DB0A2D
:1019200045EAC121C912B6F120050DDD63FA05F6BD
:10193000EB4086EA0305124218BF45F00105C018C6
:1019400051F100010CD213E062FA06F5F240554065
:10195000F3415A40B340F3405A408018594107D3ED
:1019600049085FEA30005FEA350528BF45F0010508
:1019700001F58011420875F1004250F1000041EB81
:10198000045170BC4FF4001C1CEB410F38BF704772
:101990000020090D090570471CEB410F10D252EAD7
:1019A00043060BD0BCEB410F05D80C0DAB43661EB4
:1019B000342EB5DD02E0AB438018594170BC70474E
:1019C00070BC704770470000000000400000803F7E
:1019D0003333B33E00B0034000B00B4000000000C2
:1019E00000000000000000000000000000000000F7
:1019F000000000000000000000004E6F6E4D61739B
:101A00006B61626C6500000000486172644661753C
:101A10006C740000000000004D656D4D616E6167E3
:101A2000656D656E7400004275734661756C740077
:101A300000000000000055736167654661756C74B5
:101A40000000000000000000000000000000000096
:101A50000000000000000000000000000000000086
:101A60000000000000000000000000000000000076
:101A70000000000000000000000000000000000066
:101A800000535643616C6C00000000000000000031
:101A900044656275674D6F6E69746F720000000077
:101AA0000000000000000000000000000000506581
:101AB0006E6453560000000000000000005379736C
:101AC0005469636B0000000000000000444D413089
:101AD0000000000000000000000000444D41310003
:101AE00000000000000000000000444D41320000F2
:101AF000000000000000000000444D4133000000E1
:101B00000000000000000000444D413400000000CF
:101B100000000000000000444D41350000000000BE
:101B2000000000000000444D4136000000000000AD
:101B30000000000000444D4137000000000000009C
:101B400000000000444D413800000000000000008B
:101B5000000000444D41390000000000000000007A
:101B60000000444D41313000000000000000000042
:101B700000444D4131310000000000000000000031
:101B8000444D4131320000000000000000000044DC
:101B90004D41313300000000000000000000444DC2
:101BA00041313400000000000000000000444D41BD
:101BB000313500000000000000000000444D415F8E
:101BC0004572726F720000000000004D434D00002E
:101BD000000000000000000000004654464C0000D9
:101BE000000000000000000000526561645F436F68
:101BF0006C6C6973696F6E004C56445F4C565700AD
:101C0000000000000000004C4C57000000000000E5
:101C10000000000000005761746368646F67000093
:101C20000000000000524E470000000000000000CD
:101C300000000000493243300000000000000000B6
:101C400000000049324331000000000000000000A5
:101C50000000535049300000000000000000000068
:101C60000053504931000000000000000000000057
:101C70005350493200000000000000000000004303
:101C8000414E305F4F525F4D425F62756600434187
:101C90004E305F4275735F4F666600000043414EF1
:101CA000305F4572726F72000000000043414E3099
:101CB0005F54785F5761726E696E6743414E305F63
:101CC00052785F5761726E696E6743414E305F575D
:101CD000616B655F557000000052657365727665D3
:101CE00064353100000000005265736572766564EA
:101CF0003532000000000043414E315F4F525F4DCE
:101D0000425F6275660043414E315F4275735F4FBB
:101D1000666600000043414E315F4572726F72008B
:101D20000000000043414E315F54785F5761726E8E
:101D3000696E6743414E315F52785F5761726E69D9
:101D40006E6743414E315F57616B655F55700000B0
:101D500000526573657276656435390000000000D5
:101D60005265736572766564363000000000005578
:101D7000415254305F52585F5458000000005541A2
:101D80005254305F4552520000000000005541524D
:101D900054315F52585F545800000000554152546E
:101DA000315F45525200000000000055415254324C
:101DB0005F52585F54580000000055415254325F42
:101DC00045525200000000000055415254335F520A
:101DD000585F54580000000055415254335F45523B
:101DE0005200000000000055415254345F52585FC9
:101DF00054580000000055415254345F455252007F
:101E0000000000000055415254355F52585F54584D
:101E10000000000055415254355F45525200000009
:101E200000000041444330000000000000000000BA
:101E300000004144433100000000000000000000A9
:101E400000434D5030000000000000000000000082
:101E5000434D50310000000000000000000000432E
:101E60004D50320000000000000000000000465409
:101E70004D30000000000000000000000046544DFE
:101E800031000000000000000000000046544D3208
:101E90000000000000000000000000434D5400005E
:101EA0000000000000000000000052544300000049
:101EB0000000000000000000005265736572766546
:101EC0006438330000000000504954300000000026
:101ED00000000000000000504954310000000000E4
:101EE00000000000000050495432000000000000D3
:101EF00000000000005049543300000000000000C2
:101F000000000000504442300000000000000000CB
:101F100000000055534230000000000000000000A7
:101F200000005553424443440000000000000000FC
:101F300000454E45545F313538385F54696D6572E0
:101F4000454E45545F5472616E736D69740000456F
:101F50004E45545F52656365697665000000454EE5
:101F600045545F4572726F720000000000493253A1
:101F7000300000000000000000000000534448430F
:101F80000000000000000000000000444143300059
:101F90000000000000000000000044414331000048
:101FA0000000000000000000005453493000000011
:101FB00000000000000000004D434700000000004A
:101FC000000000000000004C5054696D6572000074
:101FD0000000000000005265736572766564313060
:101FE0003200000000504F52544100000000000039
:101FF00000000000504F525442000000000000005A
:10200000000000504F525443000000000000000048
:102010000000504F52544400000000000000000037
:1020200000504F5254450000000000000000000026
:102030005265736572766564313038000000005275
:102040006573657276656431303900000000526551
:10205000736572766564313130000000005265733B
:102060006572766564313131000000005265736538
:10207000727665643131320000000052657365721A
:102080007665643131330000000052657365727605
:102090006564313134000000005265736572766505
:1020A00064313135000000005265736572766564F5
:1020B0003131360000000052657365727665643117
:1020C0003137000000005265736572766564313106
:1020D00038000000005265736572766564313139ED
:1020E0000000000000F00F4040F00F4080F00F4073
:1020F000C0F00F4000F10F4066000A1D32000701DA
:10210000640007106E000406780004088200040AC8
:102110008C00040C9600040EA0000410AA00041207
:10212000B4000414BE000416C8000418D200041A37
:10213000DC00041CE100041DE600041EEB00041F8B
:10214000F4000317FA000318130101062C0102140E
:10215000000109080090044000A0044000B00440C1
:1021600000C0044000D0044000A0064000B006407B
:1021700000C0064000D0064000A00E4000B00E4057
:102180006A6E6B6C676D4E4F343536370204010151
:10219000780EFF1FC80EFF1F780EFF1F780EFF1F5F
:1021A000780EFF1F110CFF1FF80BFF1F000000002F
:1021B000000000000000000000000000000000001F
:1021C000000000000000000000000000DFF800F048
:1021D000B50DFF1FDFF8B41340B231F8201040B244
:1021E0000128C0F2788140B2162880F27481002262
:1021F000DFF89C331A7089B2652904DA0022DFF80F
:1022000090335A707DE089B2C92904DA0122DFF8DF
:1022100080335A7075E089B2B1F5967F04DC0222F2
:10222000DFF86C335A706CE089B2B1F5C87F04DC1A
:102230000322DFF85C335A7063E089B2B1F5FA7FAC
:1022400004DC0422DFF848335A705AE089B2B1F551
:10225000167F04DC0522DFF838335A7051E089B26A
:10226000B1F52F7F04DC0622DFF824335A7048E0F2
:1022700089B2B1F5487F04DC0722DFF814335A70C5
:102280003FE089B2B1F5617F04DC0822DFF800335A
:102290005A7036E089B2B1F57A7F04DC0922DFF8A2
:1022A000F0325A702DE089B240F24D42914203DA89
:1022B0000A22B74B5A7024E089B2B1F5966F03DC5D
:1022C0000B22B34B5A701CE089B240F21552914276
:1022D00003DA0C22AE4B5A7013E089B2B1F5AF6F3E
:1022E00003DC0D22AA4B5A700BE089B240F2DD529A
:1022F000914203DA0E22A64B5A7002E00F22A44B41
:102300005A7089B2332903DA0022A14B9A7071E026
:1023100089B2652903DA01229D4B9A706AE089B27D
:10232000972903DA02229A4B9A7063E089B2C9298D
:1023300003DA0322964B9A705CE089B2FB2903DA38
:102340000422934B9A7055E089B2B1F5967F03DC75
:1023500005228F4B9A704DE089B2B1F5AF7F03DC57
:1023600006228B4B9A7045E089B2B1F5C87F03DC39
:102370000722874B9A703DE089B2B1F5E17F03DC1B
:102380000822834B9A7035E089B2B1F5FA7F03DCFD
:1023900009227F4B9A702DE089B240F227229142A8
:1023A00003DA0A227A4B9A7024E089B2B1F5167FDB
:1023B00003DC0B22764B9A701CE089B240F28B2230
:1023C000914203DA0C22724B9A7013E089B2B1F594
:1023D0002F7F03DC0D226E4B9A700BE089B240F226
:1023E000EF22914203DA0E22694B9A7002E00F222B
:1023F000674B9A7089B21A2903DA0022644BDA70AB
:1024000069E089B2332903DA0122614BDA7062E0B4
:1024100089B24C2903DA02225D4BDA705BE089B2A3
:10242000652903DA03225A4BDA7054E089B27E2917
:1024300003DA0422564BDA704DE089B2972903DAA9
:102440000522534BDA7046E089B2B02903DA06223E
:102450004F4BDA703FE089B2C92903DA07224C4BAF
:10246000DA7038E089B2E22903DA0822484BDA70E0
:1024700031E089B2FB2903DA0922454BDA702AE000
:1024800089B2B1F58A7F03DA0A22414BDA7022E081
:1024900089B2B1F5967F03DC0B223D4BDA701AE06E
:1024A00089B2B1F5A37F03DA0C22394BDA7012E05E
:1024B00089B2B1F5AF7F03DC0D22354BDA700AE04B
:1024C00089B2B1F5BC7F03DA0E22314BDA7002E03B
:1024D0000F222F4BDA70704710B50400200040B275
:1024E000FFF778FE2B48007810F0FD0029490870AE
:1024F0002848007850F0100026490870B820264976
:10250000087026480078C006FBD424480078C0F341
:102510008100C0B20228F8D11D48C3781C488278D7
:102520001B4841781A480078FFF750FE174864B2FC
:1025300010EB8400807810F00700194908701348E8
:1025400064B210EB8400C07810F01F0050F040001F
:1025500014490870114800788006FBD50F480078B0
:102560004006FBD50C48007810F03F000A4908707F
:102570000A480078C0F38100C0B20328F8D10348AC
:1025800064B230F82400C0B210BD0000400BFF1F41
:10259000980BFF1F014006400040064006400640E1
:1025A000044006400540064038B5040064B2651199
:1025B000EDB2002D02D0012D11D021E0A34800681A
:1025C00050F00060A1490860A148006830F0900018
:1025D0009F4908609E4800689D49086014E09D4836
:1025E000006850F000609B4908609948006830F42A
:1025F000104097490860964800689549086003E0D4
:102600003321954800F041F964B22000002800F021
:102610008980012800F08680032800F08380082844
:102620004ED0092851D00A2854D00B2857D00C2856
:102630005AD00D285DD00E2860D00F2863D0102806
:1026400070D0112864D0122867D013286AD01428BB
:1026500068D01A2866D01D2864D01E2862D0202891
:1026600061D021285FD023285DD024285CD0252884
:102670005FD0262862D0272865D0282868D029284E
:102680006BD02A286ED02B2871D02C2874D02D28FE
:1026900077D02E287AD02F287DD0302800F0858062
:1026A00031287DD0322800F0808033287DD0342836
:1026B0007BD03A2879D03D2877D03E2875D075E078
:1026C0000021202000F074F974E00021212000F0A6
:1026D0006FF96FE00021072000F06AF96AE000213D
:1026E000082000F065F965E00021222000F060F983
:1026F00060E00021232000F05BF95BE00021402036
:1027000000F056F956E00021412000F051F951E067
:102710000021982000F04CF94CE00021992000F0B5
:1027200047F947E046E045E00021802000F040F90D
:1027300040E00021812000F03BF93BE000218220B5
:1027400000F036F936E00021832000F031F931E065
:102750000021202000F02CF92CE00021212000F0A5
:1027600027F927E00021242000F022F922E00021AF
:10277000252000F01DF91DE00021262000F018F9A9
:1027800018E00021272000F013F913E000212A208F
:1027900000F00EF90EE000212B2000F009F909E00D
:1027A0000021112000F004F904E003E09A212A48F6
:1027B00000F06BF831BDF8B504000D0064B266118D
:1027C0000027290049B2200040B200F01CF823483D
:1027D00076B250F8260000680006F8D51F4876B299
:1027E00050F82600006907001C4876B250F8260011
:1027F000006830F08000194976B251F82610086060
:10280000380080B2F2BD30B440B2421110F01F0364
:1028100049B28C0014F00C0454F050040F4D52B225
:1028200055F82250AC6004240C4D52B255F8225099
:10283000EC60DBB213F01F0454F04004074D52B2B9
:1028400055F822502C6030BC704700003C8004409A
:102850001880044030800440103900001C04FF1F21
:10286000DFF800F0450CFF1FDFF800F0690CFF1FD8
:10287000BFF34F8F4648006810F4E06045490843B5
:1028800043490860BFF34F8FFEE738B504000D00E1
:10289000002000F0E5F82A0021003F4800F018F978
:1028A000002000F0FAF84FF47A7000F03EF9F2E7F9
:1028B00038B504000D00210049B2042000F056FA9A
:1028C000200032BD10B50024042000F07BFA042063
:1028D00000F0AEFA002841D1002000F0C1F8042039
:1028E00000F0A6FA012801D101200400002000F028
:1028F000D4F82A4800F0ECF84FF4FA7000F015F91B
:10290000E4B2012CEBD1042000F092FA0028E6D1C9
:10291000042000F08DFA002806D1002000F0BDF858
:10292000642000F002F9F3E7042000F081FA0128A6
:1029300006D1002000F0B1F8322000F0F6F8F3E7FD
:10294000174800F0C5F8FFF78BFF642000F0EDF8A2
:102950000020FFF789FFFFF78BFFC0E710BD10B520
:1029600010480468012000F07BF8012000F095F881
:102970000D48E4B20F2101FB0402E4B221000B4830
:1029800000F0A6F84FF47A7000F0CFF8EDE7000001
:102990000CED00E00400FA05EC3A0000C43B000036
:1029A000443B000004ED00E02404FF1F883A0000CF
:1029B00010B4294A12684FF40073C0B24409A3400E
:1029C0001A43254B1A60254AC0B2431152F82320FE
:1029D000012310F01F04A340C2F8A0301F4AC0B268
:1029E000431152F82320C0B210F01F0342F8231005
:1029F00010BC704710B4184A12684FF40073C0B28C
:102A00004409A3401A43144B1A60144AC0B243113C
:102A100052F82320012310F01F04A340C2F8A03075
:102A200031F4E0610D4AC0B2431152F82320C0B224
:102A300010F01F0352F8232012F4E0621143074AFA
:102A4000C0B2431152F82320C0B210F01F0342F865
:102A5000231010BC70470000388004409C0BFF1FFF
:102A600010B5040064B2042C07DA012201211748D2
:102A700064B2205C00F0F4F90EE0042004002000B1
:102A8000441E40B2002807D0012201210F4864B241
:102A9000205C00F0E5F9F2E710BD10B5040064B267
:102AA000042C05DA094864B2205C00F030FA0CE02E
:102AB000042004002000441E40B2002805D0034832
:102AC00064B2205C00F023FAF4E710BDD00BFF1FC6
:102AD0000EB400B582B003A90091024600AB0121FB
:102AE000034878440A30FDF797FC06BC5DF810FBFC
:102AF000B110000010B50400002C15D0B4F1807F97
:102B000003D329210F48FFF7C0FE00200E490860BB
:102B10000E48046000200E49086005200A4908603C
:102B200009480068C003FBD510BD10B504002000A3
:102B3000441E002804D007480068FFF7DBFFF6E7D3
:102B400010BD0000C038000010E000E014E000E01C
:102B500018E000E06C0EFF1F2DE9F84304000D00A3
:102B600064B2002C08D0022C2CD018D3042C4FD0E7
:102B70003BD3052C5FD071E0DFF83002006850F4E1
:102B80008060DFF8281208604FF440716620FFF77C
:102B90000FFF4FF440716720FFF70AFF5EE0DFF898
:102BA0000C02006850F40060DFF8001208604FF477
:102BB00040714320FFF7FCFE4FF440714420FFF7C3
:102BC000F7FE4BE0DFF8E401006850F48050DFF8D6
:102BD000DC1108604FF440716320FFF7E9FE4FF409
:102BE00040716220FFF7E4FE38E0DFF8C0010068C2
:102BF00050F40050DFF8B41108604FF440715020D9
:102C0000FFF7D6FE4FF440715120FFF7D1FE25E0CB
:102C1000DFF89C01006850F48060DFF894110860D0
:102C20004FF440714E20FFF7C3FE4FF440714F2028
:102C3000FFF7BEFE12E0DFF87801006850F4006094
:102C4000DFF86C1108604FF440718920FFF7B0FE87
:102C50004FF440718820FFF7ABFEFFE7DFF8540127
:102C600064B250F82400C07810F0F300DFF844118B
:102C700064B251F82410C870DFF8380164B250F81B
:102C800024008078DFF82C1164B251F82410887089
:102C900064B2002C02D064B2012C07D1DFF8180115
:102CA00000684FF47A714843814606E0DFF80C0172
:102CB00000684FF47A71484381462801B9FBF0F06F
:102CC0000600B6B2B6F5005F02DB41F6FF70060003
:102CD000B9FBF5F0B6B2B0EB06100700BFB2202F7B
:102CE00003DBDC213648FFF7D0FD324864B250F8F0
:102CF0002400007810F0E0008046C6F3042050EA7B
:102D000008002C4964B251F824100870294864B2B4
:102D100050F824004670274864B250F82400807AA6
:102D200010F0E000804617F01F0050EA080021492B
:102D300064B251F8241088721E4864B250F824001E
:102D4000007C50F088001B4964B251F824100874CC
:102D5000184864B250F82400C07850F00C001549AF
:102D600064B251F82410C870BDE8F183114A40B232
:102D700052F8202012791206F8D50E4A40B252F8C5
:102D80002020D171704770B504000D00160030008E
:102D9000461E002808D095F9001049B2200040B224
:102DA000FFF7E4FF6D1CF2E770BD000034800440C3
:102DB00028800440B00BFF1F6C0EFF1F740EFF1F16
:102DC000F439000010B5040064B2082C0DDA0022BA
:102DD0000021224864B2205C00F042F803211F4821
:102DE00064B2205CFFF706FE14E008200400200017
:102DF000441E40B200280DD000220021174864B2C2
:102E0000205C00F02DF80321144864B2205CFFF729
:102E1000F1FDECE710BD10B50400104864B2205C71
:102E200000F092F8002801D1002000E0012010BD40
:102E300010B50400200040B2FFF7EDFF00280AD1D2
:102E40000A20FFF772FE200040B2FFF7E4FF0028DF
:102E500001D1002000E0012010BD0000C80BFF1FC1
:102E600070B504000D0016004FF480712000C0B250
:102E7000FFF79EFD6DB2002D11D14348E4B2611100
:102E800050F821004049E4B2621151F8221049691A
:102E9000012214F01F039A409143416136E03A4801
:102EA000E4B2611150F821003749E4B2621151F8DF
:102EB00022104969012214F01F039A401143416115
:102EC000F6B2002E11D13048E4B2611150F8210061
:102ED0000068012114F01F02914088432A49E4B29E
:102EE000621151F82210086010E02748E4B2611125
:102EF00050F821000068012114F01F02914008439E
:102F00002149E4B2621151F82210086070BD10B579
:102F100004001D48E4B2611150F82100406914F02A
:102F20001F010200CA40D00703D47B211748FFF7D6
:102F3000ACFC1548E4B2611150F82100012114F0F5
:102F40001F029140C16010BD10B504000E48E4B2EC
:102F5000611150F82100406914F01F010200CA40BD
:102F6000D00703D58C210948FFF78FFC0648E4B24F
:102F7000611150F82100006914F01F010200CA40DD
:102F800012F0010010BD00002C0BFF1F5C39000087
:102F900010B5040001212C20FFF70DFCA0800121B9
:102FA0002D20FFF708FCE08001210D20FFF703FC36
:102FB000208001210C20FFF7FEFB608010BD000087
:102FC00038B52DED028B9FED618ADFED608A002020
:102FD000052813DA5E4931F8101000EE101AB8EE29
:102FE000400A30EE088A5B4931F8101000EE101AE2
:102FF000B8EE400A70EE288A401CE9E7B1EE040AF8
:1030000088EE000A544880ED000AB1EE040A88EE0A
:10301000800A524880ED000A5148006800F0CAF862
:103020005FF033324F4BFEF73FF904000D004A4882
:10303000006800F0BFF85FF066324B4BFEF734F9E2
:1030400022002B00FEF74AFC00F0DCF8444908603F
:103050004648006800F0AEF8454A464BFEF724F9B2
:1030600004000D003D48006800F0A4F8424A434BBC
:10307000FEF71AF922002B00FEF730FC00F0C2F830
:103080003A490860BDEC028B31BD3D483D490160C5
:103090003D483E49016030483949096801602F4880
:1030A0003949096801602E483549096801602F488F
:1030B0003549096801603648002101603548002122
:1030C0000160704738B52DED028BB0EE408AF0EE0E
:1030D000608A314890ED000A28EE008A2F4890ED72
:1030E000000A68EE808A2A482D490968016029484B
:1030F000C0ED008A2A4890ED000A38EE400A2948BF
:10310000D0ED000A80EE200A274880ED000A24480E
:10311000006800F04FF804000D00234890ED000A0D
:1031200038EE800A10EE100A00F044F81F4A204BD7
:10313000FEF7BAF822002B00FEF7D0FB00F062F891
:1031400017490860BDEC028B31BD00000000000093
:103150002C0EFF1F380EFF1F040EFF1F080EFF1F4F
:103160000C0EFF1F3333D33F6666E63F100EFF1F82
:103170007B14AE47E17A843FAE47E17A14AEEF3F6D
:103180001C0EFF1F0000FA44200EFF1F00C00F4559
:10319000140EFF1F180EFF1F1404FF1F1804FF1F3B
:1031A000240EFF1F1004FF1F280EFF1F9A999999E4
:1031B0009999A93F5FF0FF0C1CEAD05114BF6145FB
:1031C00006E0C110400721F0E04101F16051704775
:1031D00079B900F0004100020AD0B0FA80FC00FA90
:1031E0000CF001F16051A1EB0C5101EBD021400535
:1031F000704741020CBF40F4E0016FF00001002075
:10320000704700004FEAF17CBCF1E04C2CBFBCF5EC
:10321000001F11E05FEA4C0C34BFBCF17F5F2EE071
:103220005FEA9C0C4FEA0C1C4FEA3C0CC10071F1A8
:1032300000414CEB50707047C90241EA5051C00246
:1032400018BF41F0010141F000414FEA6C50C0F15C
:103250000900212810D240EACC7CCCF1200C11FAD4
:103260000CF070F10040CCF1200C21FA0CF00CF0C5
:10327000004C40EB0C0070474FEACC70704749009F
:1032800011F5001F04D84FEACC10FF30C00570477D
:10329000C8177047DFF800F02B2B0000DFF800F0B4
:1032A0008B280000F020544908705348007800062D
:1032B000FBD5514800787121084201D0002000E080
:1032C0000120704780B54D48006850F400204B49FC
:1032D0000860494800780006FBD5F0204649087090
:1032E0000A20FFF7D7FF01BD10B582B00400A4B2D9
:1032F0004FF4805000FB04F0009009204049087012
:103300009DF802003F4908709DF801003E49087091
:103310009DF800003D490870FFF7C4FF002801D167
:1033200000200EE0A4B2002C0AD15FF0FF327FF043
:1033300001034FF48161200080B200F003F800E047
:10334000012016BDF0B583B006000F0014001D006B
:10335000B6B24FF48050BFB200FB06700190BFB20E
:10336000082097FBF0F101FB1071002903D0EA213E
:103370002748FFF793FFBFB2B7F5805F03DDEC216D
:103380002348FFF78BFF9DF806001E4908709DF843
:1033900005001D4908709DF804001C490870009440
:1033A0009DF803001B4908709DF802001A49087037
:1033B0009DF80100194908709DF80000184908702F
:1033C00007200F49087000959DF803001549087003
:1033D0009DF80200144908709DF801001349087017
:1033E0009DF8000012490870FFF75CFF002801D12A
:1033F000002000E00120FEBD0000024004F001407A
:10340000070002400600024005000240040002409E
:10341000703800000B0002400A0002400900024020
:10342000080002400F0002400E0002400D00024062
:103430000C000240F0B4114E366834000F4E36686E
:1034400056F47F060D4F3E600E0616F0706656EA83
:103450000076170517F470073E431F0417F4702712
:103460003E43074F3E6000263500EDB29D4201D23B
:103470006D1CFAE7014E3460F0BC704700F001406B
:1034800044800440012110F01F029140584A40B28C
:10349000430942F82310704780B50920FFF784F8EC
:1034A0002D20FFF781F82C20FFF77EF80C20FFF786
:1034B0007BF80D20FFF778F80920FFF775F8FFF784
:1034C000E4FD0FF27901542000F0C5F85FF4E1311A
:1034D0000420FFF741FB4420FFF7D4FF4548016873
:1034E000002000F0CFF862B61E20FFF71EFB424816
:1034F000808800EE100AB8EE400A404880ED000ACD
:103500003E483F49096841603C483E49096881603E
:103510003A483D490968C16038483C4991ED000A84
:10352000B1EE400A80ED040A344839490968416126
:103530001821324800F03FF8D6E7000080B5354842
:103540000068052813D1FFF73BFD2F4890ED000AD6
:103550003148D0ED000A70EE600A304890ED000A64
:10356000284890ED001A30EE410AFFF7ABFD2248E3
:10357000FFF70EFD204880882949264A126821F865
:1035800012001D4800882749224A126821F81200BB
:1035900020480068401C1F4908601E480068062833
:1035A00002D100201B4908601F48006850F001004C
:1035B0001D49086001BD38B504000D001B48008896
:1035C000ADF802001A480088ADF8000002220DF1A3
:1035D00002010420FFF7D7FB2A0021000420FFF797
:1035E000D2FB022200A90420FFF7CDFB31BD000071
:1035F00000E100E0740EFF1F440EFF1F500EFF1F7E
:10360000080EFF1F0C0EFF1F100EFF1F140EFF1FD2
:10361000180EFF1F680EFF1F200EFF1F1C0EFF1F3E
:103620002C0EFF1F380EFF1F0C7103403E100000D0
:103630007610000010B504004FF4007094FBF0F118
:1036400001FB1041002903D01E210B48FFF71DF993
:103650000A48046010BD38B504000D000748006832
:103660000749884203D030210348FFF70EF9044888
:1036700064B240F8245031BD403A000008ED00E04B
:103680000000FF1F38B504000D00002D03D12221DA
:103690001748FFF7FAF81748006850F4000015497A
:1036A0000860002014490860681E144964B22201B1
:1036B0005050124864B210EB0410C06850F0010082
:1036C0000E4964B211EB0411C8600C4864B210EBEF
:1036D0000410806840084000084964B211EB0411EE
:1036E00088600320054964B211EB0411886031BD84
:1036F000A83900003C800440007003400071034082
:1037000080B500F095F800F02AF800F00AF8FFF70D
:10371000D9F8012201210420FFF7A2FBFFF7BCFE2C
:10372000FEE780B50C20FEF7D7FE3349086032482B
:1037300000684FF47A714843304908602F480068A8
:103740002F490968C1F30361491CB0FBF1F02D4911
:1037500008605FF4E1310420FFF7FEF901BD2DE9B7
:10376000F8432948294988420DD000208046B8F501
:10377000826F08D2254850F82800234941F82800D4
:1037800018F10108F3E72048FFF754FF204807002D
:103790002048060020480400A01B80464046B0F1A7
:1037A0000108002804D030783870761C7F1CF5E7BB
:1037B0001A4881461A480500B5EB09008046404684
:1037C000B0F10108002805D0002089F8000019F1A7
:1037D0000109F4E713481449144A531A984643461A
:1037E000B3F10108002B04D00B780370491C401C76
:1037F000F5E7BDE8F1830000700EFF1F6C0EFF1FA0
:1038000044800440740EFF1F0000FF1F00000000F2
:103810001004FF1FC8190000CC210000040EFF1F78
:10382000C80EFF1F140CFF1F9432000084340000E8
:1038300080B500F008F80C4800884FF6FE7108408B
:103840000949088001BDEFF3118072B64CF2205196
:10385000064A11804DF62811044A1180C0B2002892
:1038600000D162B670470000002005400E200540E0
:10387000433A5C55736572735C636F736D6F735C11
:103880004465736B746F705CC8FDD6E1BCD3CBD953
:10389000B6C8BACDCDD3C2DDD2C7BBA5B2B9C2CBF3
:1038A000B2A8C4E2BACF5C436869705C7372635CAF
:1038B0004D4B36305F666C6173682E63000000000C
:1038C000433A5C55736572735C636F736D6F735CC1
:1038D0004465736B746F705CC8FDD6E1BCD3CBD903
:1038E000B6C8BACDCDD3C2DDD2C7BBA5B2B9C2CBA3
:1038F000B2A8C4E2BACF5C436869705C7372635C5F
:103900004D4B36305F5379735469636B2E630000FF
:10391000433A5C55736572735C636F736D6F735C70
:103920004465736B746F705CC8FDD6E1BCD3CBD9B2
:10393000B6C8BACDCDD3C2DDD2C7BBA5B2B9C2CB52
:10394000B2A8C4E2BACF5C436869705C7372635C0E
:103950004D4B36305F6164632E630000433A5C5523
:10396000736572735C636F736D6F735C4465736BC7
:10397000746F705CC8FDD6E1BCD3CBD9B6C8BACDE4
:10398000CDD3C2DDD2C7BBA5B2B9C2CBB2A8C4E207
:10399000BACF5C436869705C7372635C4D4B3630C0
:1039A0005F6770696F2E6300433A5C55736572738D
:1039B0005C636F736D6F735C4465736B746F705C85
:1039C000C8FDD6E1BCD3CBD9B6C8BACDCDD3C2DD04
:1039D000D2C7BBA5B2B9C2CBB2A8C4E2BACF5C43CE
:1039E0006869705C7372635C4D4B36305F5049544C
:1039F0002E630000433A5C55736572735C636F73AA
:103A00006D6F735C4465736B746F705CC8FDD6E159
:103A1000BCD3CBD9B6C8BACDCDD3C2DDD2C7BBA536
:103A2000B2B9C2CBB2A8C4E2BACF5C436869705CD9
:103A30007372635C4D4B36305F756172742E630038
:103A4000433A5C55736572735C636F736D6F735C3F
:103A50004465736B746F705CC8FDD6E1BCD3CBD981
:103A6000B6C8BACDCDD3C2DDD2C7BBA5B2B9C2CB21
:103A7000B2A8C4E2BACF5C436869705C7372635CDD
:103A80006D6973632E6300000A2A2A2A2A64656618
:103A900061756C745F69737220656E7465726564BC
:103AA000206F6E20766563746F722025642A2A2A3F
:103AB0002A2A0A0A257320496E7465727275707419
:103AC0000000000010B5074979441831064C7C44C9
:103AD000163404E00A68081D511888470146A142BF
:103AE000F8D110BD500000005C0000004173736508
:103AF0007274696F6E206661696C656420696E20FE
:103B00002573206174206C696E652025640A0000AD
:103B10004EF68851CEF20001086840F4700008604B
:103B2000BFF34F8FBFF36F8F4FF00070E1EE100ABD
:103B300070470000D3D4FFFFC4000000040EFF1F35
:103B4000000000000ABDF8D0D0BDE2CBF8B2D9D752
:103B5000F7A3ACC7EBD6D8D0C2CBA2C8EBB9CCBCCC
:103B6000FE00000000F00BF8002801D0FFF7AAFFCC
:103B70000020C046C046FFF78FFC00F002F801208D
:103B8000704700F001B800000746384600F002F820
:103B9000FBE700002021090326311820ABBEF9E71E
:103BA00038B504460D46284600F006F8A84218BF6E
:103BB0000024204632BD00000149FEF779BE00BF57
:103BC000D40BFF1F0ABDF8C8EBCBC0D1ADBBB7B556
:103BD000C8B4FDA3A1000000C046C046FFF798FF8F
:103BE000FFF7C0FF00000000000000000000000020
:103BF00000000000000000000000000000000000C5
:103C0000FFFFFFFFFFFFFFFF0000000000000000BC
:103C100000000000000000000000000000000000A4
:103C2000000000000000000000000000FFFFFFFF98
:103C3000FFFF000000000000000000000000000086
:103C40000000000000000000000000000000000074
:103C50000000000000000000000000000000000064
:0C3C600000000000000000000000000058
:0400000500003BD9E3
:00000001FF
